:020000040800F2
:10000000F814002439030008F3330008112F000806
:10001000F13300089B050008013F000800000000C4
:100020000000000000000000000000003936000859
:10003000A905000800000000F53300083B36000861
:100040005703000857030008570300085703000828
:100050005703000857030008570300085703000818
:100060005703000857030008570300085703000808
:1000700057030008570300085703000857030008F8
:1000800057030008570300085703000857030008E8
:1000900057030008570300085703000857030008D8
:1000A00057030008570300085703000857030008C8
:1000B00057030008570300085703000857030008B8
:1000C00057030008570300085703000857030008A8
:1000D0005703000857030008570300085703000898
:1000E00057030008570300080000000057030008EA
:1000F0005703000857030008570300085703000878
:100100005703000857030008570300085703000867
:100110005703000857030008DD370008570300089D
:100120005703000857030008570300085703000847
:100130005703000857030008570300085703000837
:1001400000000000000000000000000000000000AF
:100150005703000857030008570300085703000817
:100160005703000857030008570300085703000807
:100170005703000857030008570300080000000059
:1001800057030008570300085703000857030008E7
:1001900057030008570300085703000857030008D7
:1001A000152F0008570300089D0500085703000895
:1001B00057030008570300085703000857030008B7
:1001C00057030008570300085703000857030008A7
:1001D0005703000857030008570300085703000897
:1001E0005703000857030008570300085703000887
:1001F0005703000857030008570300085703000877
:100200005703000857030008570300085703000866
:100210005703000857030008570300085703000856
:1002200057030008570300085703000800000000A8
:100230005703000857030008000000005703000898
:100240005703000857030008570300085703000826
:100250005703000857030008570300085703000816
:100260005703000857030008570300085703000806
:100270005703000857030008570300080000000058
:100280005703000857030008570300080000000048
:10029000000000005703000800F002F800F03CF8EE
:1002A0000AA090E8000C82448344AAF10107DA45D1
:1002B00001D100F031F8AFF2090EBAE80F0013F0E7
:1002C000010F18BFFB1A43F001031847083D000057
:1002D000283D0000103A24BF78C878C1FAD85207E8
:1002E00024BF30C830C144BF04680C6070470000B0
:1002F0000023002400250026103A28BF78C1FBD82F
:10030000520728BF30C148BF0B6070471FB503F0CC
:1003100040FE1FBD10B510BD00F005F91146FFF7F6
:10032000F5FF03F0FFFD00F023F903B4FFF7F2FF40
:1003300003BC00F02BF900000A4880470A488047B8
:100340000A480047FEE7FEE7FEE7FEE7FEE7FEE7B6
:10035000FEE7FEE7FEE7FEE705480649064A074BCB
:1003600070470000B1050008E53600089902000852
:10037000F8020024F8140024F8040024F8040024EF
:1003800053EA020C00F069802DE9F04B4FF00006B3
:10039000002B1FBFB3FA83F503FA05F424FA05F620
:1003A0005E4012BF1643B2FA82F502FA05F4C5F1B7
:1003B00020051EBF22FA05FC44EA0C04203556EA4B
:1003C000044C4FEA144418BF641C4FF000084FF06F
:1003D0000009904271EB030C39D3002919BFB1FA1F
:1003E00081F701FA07F6B0FA80F700FA07F6C7F1CD
:1003F00020071EBF20FA07FC46EA0C062037B6FB92
:10040000F4FCA7EB0507103F07F01F0BCBF120060C
:100410000CFA0BFB2CFA06F644BFB3460026202F3D
:10042000A4BF5E464FF0000B5BEA060C08BF4FF01E
:10043000010B19EB0B09ABFB027C48EB0608C01B58
:1004400006FB02CC0BFB03CC71EB0C01C1E70B46A6
:10045000024641464846BDE8F08B13B54FF0000018
:100460004FF00001AFF30080BDE81C40704710B5AD
:10047000203AC0F00B80B1E81850203AA0E818509C
:10048000B1E81850A0E81850BFF4F5AF5FEA027C5D
:1004900024BFB1E81850A0E8185044BF18C918C0CC
:1004A000BDE810405FEA827C24BF51F8043B40F86D
:1004B000043B08BF7047D20728BF31F8023B48BF52
:1004C00011F8012B28BF20F8023B48BF00F8012B90
:1004D00070474FF0000200B5134694469646203907
:1004E00022BFA0E80C50A0E80C50B1F12001BFF4ED
:1004F000F7AF090728BFA0E80C5048BF0CC05DF853
:1005000004EB890028BF40F8042B08BF704748BFA0
:1005100020F8022B11F0804F18BF00F8012B704714
:10052000704770477047754600F02CF8AE460500DE
:100530006946534620F00700854618B020B5FFF7FE
:100540000BFFBDE820404FF000064FF000074FF0D2
:1005500000084FF0000B21F00701AC46ACE8C009E1
:10056000ACE8C009ACE8C009ACE8C0098D467047EA
:1005700010B50446AFF300802046BDE81040FFF7F9
:10058000D4BE00000048704794020024014918209E
:10059000ABBEFEE7260002007047FEE7014800F010
:1005A00009B900001C000024704772B6FEE7000085
:1005B000054805490839026842F0020202600868ED
:1005C0008004FCD5704700000C480258F0B5D1E912
:1005D0000843CD690A68C2B10268254322F4F84293
:1005E00013431D430560D1E90125D1E903364C6968
:1005F0002A434568334389691A43EB0B2243DB03E3
:100600000A431A4342600020F0BDD1E9012ED1E92E
:10061000036CD1E9057142EA0E0246EA0C06324348
:100620003A430A4301682A4322431A436FF30E01F7
:100630000A430260E7E700002DE9F04F8B8A6FF074
:100640000F05264C4FF07F4BD1F80C9004EB035371
:100650006FF0FF044FEA042A1AB386684FEA0932A2
:100660001F4FA2F580521A433E4032438260D1E9C7
:1006700000278E68521E05EB07150F8A2A43C568AE
:1006800004EB06240E7E0AEB074322431A430BEBCE
:1006900006610A4305F070431A43C2600020BDE8BA
:1006A000F08F91E804110F4E521E0F8A05EB0815CA
:1006B0002A4304EB0C2C06EB09350E7E42EA0C02B1
:1006C0002A4385680AEB074422431A430BEB066171
:1006D0000A4305F070431A438260DFE70000F0FF31
:1006E000FF0F0FFF00F0FFFF70470000F0B590F81C
:1006F0006020012A22D0C1EBC102012780F860707E
:10070000022380F8613000EB8202284D138F168E91
:10071000B2F83CC0D46A1B05283244EA064643EAD4
:100720004C530A2C46EA03060AD0092C08D0137B46
:1007300046EA036349B10B2C1AD01DE00220F0BD3C
:10074000D36803F07F433343F4E701684C6AAC435A
:100750001C434C62016813688B6151680A2901D0FF
:1007600009291BD1D168026821F07F41916215E00F
:10077000118B0F4D43EA81430168CC69AC431C43A4
:10078000CC61016813680B6151680A2901D00929FD
:1007900004D1D168026821F07F411162002180F804
:1007A000617080F860100846F0BD00000F0033FF54
:1007B0000F003FFF2DE9F0470446006800274FF087
:1007C00004084FF0010946680568F10714D0E905EF
:1007D00012D5036823F480730360606E40F001005B
:1007E00060662068C0F8089084F8618084F86070C2
:1007F000616A09B120468847B00615D5A80413D50B
:1008000020682022036823F400530360206882607C
:10081000606E40F00200606684F8618084F8607069
:10082000616A09B120468847300715D5280513D5D8
:1008300020680822036823F4006303602068826054
:10084000606E40F00400606684F8618084F8607037
:10085000616A09B12046884770070CD568050AD53A
:100860002068026822F4806202602068C0F8088074
:10087000204600F071F8B00713D5A80511D52068FF
:100880000222036823F40073036020688260606EB4
:10089000606684F8619084F86070216A09B120462E
:1008A0008847F00612D5E80410D52068016821F4C5
:1008B00080510160226810219160616E616684F848
:1008C0006190204684F86070FFF70EFFBDE8F08766
:1008D0002DE9F041040004D094F86100002518B11E
:1008E00007E00120BDE8F081204684F8605000F068
:1008F00035F8184E022084F861000123D4E9001075
:10090000D4F81CC040F207120F6840EA0C003740D0
:10091000384308602068A769A168466B394396434D
:10092000314341632068E268016C6FF30F011143AA
:1009300001642068218AA28A466B090541EA425176
:1009400026F4401211434163656684F8613000204B
:10095000C8E70000BFFFF8FF7047000008B5006857
:100960000B49884212D10B48016841F01001016027
:1009700000680022114600F0100000905A2000F09C
:10098000FFFCBDE808405A2000F0ECBC08BD0000A8
:1009900000100052D4440258F0B5B7B0142130A86A
:1009A000FFF797FD2F480168002959D10121016007
:1009B000C0216846FFF78DFD0DF1080C052064236A
:1009C000022404268CE85900802712940022089201
:1009D0004FF080711546CDE90607CDE90012684653
:1009E00000F080FE08B1FFF7E0FD1F48016841F408
:1009F00080510160006830A9032600F480503590D2
:100A00000C2740F2FF6081E8F100184800F03AF846
:100A100030A94FF6837081E8F100154800F032F8F4
:100A200030A94FF62C7081E8F100124800F02AF846
:100A300030A948F2331081E8F1000F4800F022F8A5
:100A400030A94CF2037081E8F1000C4800F01AF86C
:100A500030A94FF63F0081E8F100094800F012F894
:100A600037B0F0BD00000024D444025800200258E2
:100A700000100258001C025800180258000C0258BE
:100A8000001402582DE9F84F03247D4D00234FF048
:100A900001094FF0B04B4FF00F0AE9E009FA03F7F4
:100AA0003A4076D00E7906F00306012E01D0022ED0
:100AB00018D1D0F808C04FEA430ECE6804FA0EF8F9
:100AC0002CEA080C06FA0EF646EA0C068660D0F808
:100AD00004C00E792CEA070CC6F300169E4046EAC5
:100AE0000C0646600E79F643B6070BD0C6684FEA8F
:100AF00043088F6804FA08FC26EA0C0607FA08F790
:100B00003743C7600E7906F00306022E12D1DE08C5
:100B10000F694FEA437C00EB8606B646366A4FEA19
:100B2000DC6C0AFA0CF807FA0CF726EA08063743D9
:100B3000CEF820700F7906684FEA430807F00307E4
:100B400004FA08FC07FA08F726EA0C0637430760A0
:100B50004E6816F4403F1CD04A4E376847F00207F3
:100B6000376036689F0706F00206009623F00306FA
:100B700006F1B046B6463F0FD6F80864DFF80881A4
:100B80000AFA07FC404526EA0C0603D14FF0000C98
:100B900041E06CE0DFF8F4C0604502D14FF0010C99
:100BA00039E0DFF8ECC0604502D14FF0020C32E0D2
:100BB000DFF8E0C0604502D14FF0030C2BE0DFF816
:100BC000D8C0604502D14FF0040C24E0DFF8CCC05F
:100BD000604502D14FF0050C1DE0DFF8C4C0604550
:100BE00002D14FF0060C16E0DFF8B8C0604502D124
:100BF0004FF0070C0FE0DFF8B0C0604502D14FF0B6
:100C0000080C08E0DFF8A4C0604502D14FF0090CE1
:100C100001E04FF00A0C0CFA07FC4CEA060CCEF887
:100C200008C44F68DBF80060FF0226EA020600D520
:100C300016435F46CBF80060D1F804C0DBF80460CF
:100C40005FEA8C2C26EA020600D516437E606E68A9
:100C50004F6826EA0206BF0300D516436E602E6871
:100C60004F6826EA0206FF0300D516432E605B1C80
:100C70000A6832FA03F67FF411AFBDE8F88F00007E
:100C800080000058F4440258000002580004025842
:100C900000080258000C02580010025800140258B4
:100CA00000180258001C0258002002580024025864
:100CB0000AB1816170470904FBE700000148006840
:100CC000000C70470010005C01488068704700000D
:100CD0000800002430B590F84120202A24D190F853
:100CE0004020012A20D0012380F84030242280F8BF
:100CF0004120202300240268156825F001051560B5
:100D00000268156825F480551560026815680D4362
:100D1000156001680A6842F001020A6080F84130FB
:100D200080F84040002030BD022030BD30B590F842
:100D30004120202A22D190F84020012A1ED00123F0
:100D400080F84030242280F84120202400250268C9
:100D5000136823F0010313600268136823F47063BF
:100D600043EA0121116001680A6842F001020A6049
:100D700080F8414080F84050002030BD022030BD56
:100D800070B5040004D094F84100002510B106E0CD
:100D9000012070BD204684F8405000F051F8242016
:100DA00084F841002068016821F001010160D4E964
:100DB000001020F0706008612068816821F4004113
:100DC0008160E06821680128A06830D040F40440C8
:100DD0008860E0680228206841682BD021F4006117
:100DE000416020682021154A43681343436020680E
:100DF000C26822F40042C26054F8106B0DCC10435C
:100E000040EA0320F06054F81C3CD4E9000210438F
:100E1000186054F81C0D026842F00102026065641B
:100E200084F84110256384F84250002070BD40F4DE
:100E30000040CDE741F40061D2E7000000800002ED
:100E400010B5B6B00446142130A8FFF742FBC0210C
:100E50006846FFF73EFB1A49206888422DD10020E2
:100E6000219008210446CDE90010684600F03AFCC4
:100E700008B1FFF79AFB1348016841F002010160D5
:100E800000680DF1C00C122100F0020035904FF403
:100E9000107004238CE8130003220B48CDE93323A0
:100EA00030A9FFF7EFFD07480830016841F4001151
:100EB0000160006800F40010359036B010BD0000ED
:100EC00000540040E044025800040258024881687F
:100ED000027811448160704708000024032010B597
:100EE00000F06EFA01F076FA0F4A104914681368A0
:100EF000C4F3032203F00F038A5CC95C02F01F02F3
:100F000001F01F01D0400A4A20FA01F1116009499D
:100F100008600F2000F010F808B1012010BD00F0AB
:100F200013FA002010BD000018440258C43F000806
:100F3000180000241400002410B5102804468AB0BC
:100F40002CD200220146362000F01AFA362000F09A
:100F500009FA174804601748016841F01001016060
:100F6000006809A900F010000890684601F0BEF979
:100F70000598B0B101F00AFA40000F4900220F4C69
:100F8000B0FBF1F10E4840F2E7330460C0E90332F0
:100F9000491EC0E9011201F0A8FD28B101200AB0E4
:100FA00010BD01F0F3F9E8E7054801F0D1FDF6E7DF
:100FB0000C000024E844025840420F00001000409A
:100FC000480200242DE9F041044690F8A00016469E
:100FD0000F4601281DD0012584F8A050022084F876
:100FE000A10006EB860000EBC600342204EB800073
:100FF0003830FFF73CFA32463946204601F090FF80
:10100000216800204D6284F8A15084F8A000BDE85A
:10101000F0810220FBE770472DE9F04104460068AB
:1010200000274FF00408856B466B690715D57107DB
:1010300013D5426B22F0040242632068C0F83C8062
:10104000D4F8A40040F00100C4F8A40084F8A18002
:10105000204684F8A070FFF7DEFFA80716D5B0077A
:1010600014D520680222436B23F0020343632068F7
:10107000C263D4F8A40040F00200C4F8A40084F8CD
:10108000A180204684F8A070FFF7C5FF05EA06009E
:101090004FF00108C0070ED021684A6B22F0010210
:1010A0004A632168C1F83C8084F8A180204684F816
:1010B000A07000F075F8280710D530070ED520680D
:1010C0000822436B23F0080343632068C26384F85B
:1010D000A180204684F8A07000F0E6F8BDE8F08119
:1010E0002DE9F041040004D094F8A100002518B1C6
:1010F00007E00120BDE8F081204684F8A05000F010
:1011000051F8022084F8A10020680123816921F0B0
:1011100070418161D4E90010D4E902722669384334
:1011200032438E691043304388612268A08AA169E6
:1011300041EA004191602268A08B216A41EA0041A6
:10114000D1602268A08CA16A41EA00411161226845
:10115000A08D216B41EA00415161226894F835105D
:1011600094F83600D66A000406F07F46D6622268FC
:1011700040EA012094F83460D16A31430143D162DE
:101180002068416B41F0060141632068816941F0AC
:1011900001018161C4F8A45084F8A1300020A9E7BE
:1011A00070470000F0B5B7B00446142130A8FFF72F
:1011B00090F9C0216846FFF78CF9364920688842CB
:1011C00066D10DF1280E002102250C4601220623CE
:1011D0008EE82C0040041191CDE900010DA968466C
:1011E00005265F024FF4007C81E8E01000F07AFAF7
:1011F00008B1FFF7DAF92848016841F008010160F9
:10120000006800F0080035902348001F016841F491
:1012100080610160016801F480613591016841F4E9
:1012200000710160016801F400713591016841F4B9
:1012300080710160006832AA032600F48070359046
:10124000FF20CDE930050E27144882E8D00030A9F0
:10125000FFF718FC32AA4FF6FF70CDE930051048B1
:1012600030A982E8D000FFF70DFC4FF4704032AA9D
:10127000CDE930050B4830A982E8D000FFF702FC29
:1012800000225820114600F07BF8582000F06AF840
:1012900037B0F0BD00100050E44402580028025856
:1012A000002402580020025870470000154BF0B58A
:1012B000083B427813491A600B680A1F23F00103A8
:1012C0000B6043681360057BC67A827A437B2D07E7
:1012D000847B45EA0665C77B90F809C0067A90F8DA
:1012E00000E045EAC24040EA834040EA444040EA28
:1012F000074040EA0C2040EA460040EA0E00086041
:10130000F0BD0000A0ED00E0BFF35F8F04480021B6
:101310000368034A23F4803303607032116070471E
:1013200024ED00E0074A40F00100064970321060E9
:10133000086840F480300860BFF34F8FBFF36F8FB1
:101340007047000024ED00E0054808B5016841F051
:1013500002010160006800F00200009008BD00007A
:10136000F4440258002809DB410900F01F028900FB
:10137000012001F1E0219040C1F800017047000018
:101380000E4BF0B41B680D46C3F30223C3F10706EE
:10139000042E00D90426191D072901D2002300E0DC
:1013A000DB1E012404FA06F19C40491E2940641EFC
:1013B000994014402143F0BC02F0A3BD0CED00E0C5
:1013C000064900F0070210B54FF6FF040868044B09
:1013D000204040EA02201843086010BD0CED00E0F8
:1013E0000000FA05134970B50A68D243520705D5C3
:1013F000096801F00701814213D118E00A6822F060
:10140000070202430A60FFF75FFC0A4D4FF47A7649
:101410000446083D07E000BFFFF756FC001BB04242
:1014200001D9012070BD2868C0438004F4D4002095
:1014300070BD00000C48025810B500F085FF05494A
:101440000968054AC1F30211515C01F01F01C8404F
:1014500010BD000020440258C43F0008494930B57F
:10146000484C0B1D0A68143409681D68246802F092
:101470000303C5F30012C1F30531C4F3CC04002902
:1014800014FB02F200EE102AF8EE400A75D03F4A33
:101490009FED3D1AB7EE000A6BB1DFED3D1A012B4F
:1014A00001D0022B64D002EE101A1168F8EE422A25
:1014B00081EEA22A21E0334C283C23689B0612D5FA
:1014C000344B246801EE901A1168C4F3C104F8EE9D
:1014D000612AE34001EE903AC1F30801F8EE611A87
:1014E00081EEA22A0BE001EE901ADFED2B2A00BF5D
:1014F000F8EE611A116882EEA12AC1F3080101EE2B
:10150000901A1168F8EE611A40EE811A71EE800AA5
:1015100062EE200AC1F3462101EE101AB8EE411A1C
:1015200031EE001AC0EE811ABCEEE11A80ED001A0D
:101530001168C1F3064101EE101AB8EE411A31EEFE
:10154000001AC0EE811ABCEEE11A80ED011A116892
:10155000C1F3066101EE101AB8EE411A31EE000A2D
:1015600080EE801ABCEEC10A80ED020A30BD04E0B4
:1015700001EE901ADFED092ABAE70021016041600F
:101580008160F3E7284402580000003938440258CB
:101590000024744A0090D0030024744C20BCBE4B3D
:1015A000494930B5484C0B1D0A681C3409681D6850
:1015B000246802F00303C5F30022C1F30551C4F30C
:1015C000CC04002914FB02F200EE102AF8EE400AC7
:1015D00075D03F4A9FED3D1AB7EE000A6BB1DFEDC3
:1015E0003D1A012B01D0022B64D002EE101A1168B3
:1015F000F8EE422A81EEA22A21E0334C283C2368EF
:101600009B0612D5344B246801EE901A1168C4F37E
:10161000C104F8EE612AE34001EE903AC1F30801FB
:10162000F8EE611A81EEA22A0BE001EE901ADFEDCE
:101630002B2A00BFF8EE611A116882EEA12AC1F3CD
:10164000080101EE901A1168F8EE611A40EE811A55
:1016500071EE800A62EE200AC1F3462101EE101AF3
:10166000B8EE411A31EE001AC0EE811ABCEEE11A52
:1016700080ED001A1168C1F3064101EE101AB8EEB0
:10168000411A31EE001AC0EE811ABCEEE11A80ED6B
:10169000011A1168C1F3066101EE101AB8EE411A81
:1016A00031EE000A80EE801ABCEEC10A80ED020A1B
:1016B00030BD04E001EE901ADFED092ABAE70021FF
:1016C000016041608160F3E728440258000000395E
:1016D000404402580024744A0090D0030024744C03
:1016E00020BCBE4B2DE9FE4F0546DFF8E48350F8E1
:1016F000081B0024F64FC943019005F12800264637
:1017000008F12408009008011DD4A86E50B1B0F56E
:10171000801F0CD0B0F5001F0ED0B0F5401F1ED0BA
:1017200001240FE0386840F40030386017E0019879
:10173000022101F061FE03E00098022101F0ECFEBD
:1017400004000CD026462888C043C00523D4A86DC9
:1017500005281ED2DFE800F00C11161B1B00AA6E34
:10176000D8F8001021F440111143C8F80010EAE73E
:10177000386840F40030386009E00198002101F039
:101780003BFE03E00098002101F0C6FE044674B160
:1017900000E0012426462888C043800528D4E86D4F
:1017A00080281ED00CDC90B140280ED114E0AA6D28
:1017B000D8F8001021F007011143C8F80010EAE73B
:1017C000C02813D0B0F5807F10D001240FE0386816
:1017D00040F40030386009E00198002101F00CFE6F
:1017E00003E00098002101F097FE04469CB12646D4
:1017F0002888DFF8DC92C04309F12C0940052CD47D
:10180000D5F8A800B0F5800F20D00DDCA0B1B0F560
:10181000001F0FD115E0EA6DD8F8001021F4E07137
:101820001143C8F80010E3E7B0F5C00F13D0B0F5CE
:10183000000F10D001240FE0386840F40030386009
:1018400009E00198002101F0D7FD03E00098002194
:1018500001F062FE04467CB126462888C04300059C
:101860002DD4D5F8AC00B0F1007F21D00EDCA8B1AA
:10187000B0F1807F10D116E0D5F8A820D9F800107B
:1018800021F460011143C9F80010E6E7B0F1407F90
:1018900013D0B0F1806F10D001240FE0386840F40D
:1018A0000030386009E00198002101F0A5FD03E057
:1018B0000098002101F030FE044674B126462868E5
:1018C000C04380011FD4E86CD8B110280FD0202865
:1018D00012D0302815D0012414E0D5F8AC20D9F866
:1018E000001021F0E0611143C9F80010E7E7386803
:1018F00040F40030386004E00198022101F07CFDE2
:10190000044674B126462888C043C0042BD4286EF0
:10191000B0F5005F20D00DDCA0B1B0F5805F0FD135
:1019200015E06B48EA6C2030016821F0300111436A
:101930000160E8E7B0F5405F13D0B0F5804F10D0FC
:1019400001240FE0386840F40030386009E0019865
:10195000002101F051FD03E00098002101F0DCFDC1
:1019600004468CB126462888C043800429D4686E7A
:10197000B0F5403F23D010DC08B3B0F5803F14D061
:10198000B0F5003F0FD115E02A6ED8F8001021F411
:10199000E0411143C8F80010E5E7B0F5802F0ED004
:1019A000B0F5A02F0BD001240AE00198012101F02D
:1019B00023FD03E00098012101F0AEFD044694B13F
:1019C00026462888C04340042AD4D5F8B000B0F198
:1019D000405F23D010DC08B3B0F1805F14D0B0F1C9
:1019E000005F0FD115E06A6ED8F8001021F4E021F5
:1019F0001143C8F80010E4E7B0F1804F0ED0B0F109
:101A0000A04F0BD001240AE00198012101F0F4FC61
:101A100003E00098012101F07FFD044674B12646E1
:101A20002888C04300041FD4286FD8B1B0F1805F6C
:101A30000ED0B0F1005F10D0012414E0D5F8B02032
:101A4000D9F8001021F0E0411143C9F80010E7E790
:101A5000386840F40030386004E00198012101F05A
:101A6000CBFC044674B126462868C043C0011ED48E
:101A7000A86CD0B101280ED0022811D0032814D0B0
:101A8000012413E02A6FD8F8001021F040511143CF
:101A9000C8F80010E8E7386840F40030386004E027
:101AA0000198022101F0A8FC0446ACB12646286842
:101AB000DFF81CB0C043ABF11C0B400252D4054808
:101AC000016841F480710160FFF7FEF8824611E081
:101AD0002C44025800480258FA48AA6C016821F0C8
:101AE000030111430160E2E7FFF7EEF8A0EB0A0003
:101AF000642835D8F4480068C005F5D58CBBDFF8FC
:101B0000C4A3B5F8B4100AF1240ADAF8000001F40D
:101B1000407100F44070884211D0DAF80010DAF811
:101B2000002021F4407142F48032CAF80020DAF833
:101B3000002022F48032CAF80020CAF80010D5F83C
:101B4000B400B0F5807F1AD1FFF7BEF8029012E022
:101B5000FFF7BAF80299411A41F2883081420AD956
:101B6000032426462878DFF85CA3C0430AF1080A5C
:101B7000C00721D03CE0DAF800008007E8D5D5F8AE
:101B8000B410C1F30120032858460DD0016821F498
:101B90007C510160B5F8B420DAF80010C2F30B02F2
:101BA0001143CAF80010DDE7C84A036802EA1112BF
:101BB00023F47C511143ECE7E86F182816D005DCBC
:101BC000A0B1082808D0102804D10AE020280DD0A0
:101BD00028280BD001240AE00198012101F00CFC17
:101BE00003E00098012101F097FC044664B1264609
:101BF0002878C04380071ED4A86F062819D2DFE8D2
:101C000000F0160C11161616EA6FDAF8001021F023
:101C100038011143CAF80010EAE70198012101F0E8
:101C2000EBFB03E00098012101F076FC04467CB157
:101C300000E0012426462878C04340071FD4D5F889
:101C40009400062819D2DFE800F0160C11161616BB
:101C5000AA6FDAF8001021F007011143CAF800104A
:101C6000E9E70198012101F0C7FB03E00098012199
:101C700001F052FC0446A4B100E001242646287875
:101C8000C04380062BD4D5F89000B0F1405F24D03B
:101C900011DC10B3B0F1805F15D0B0F1005F10D14E
:101CA00016E0D5F89420D9F8001021F0070111436F
:101CB000C9F80010E3E7B0F1804F0ED0B0F1A04FAB
:101CC0000BD001240AE00198002101F095FB03E00C
:101CD0000098022101F020FC044694B126462878A1
:101CE000C04340062BD4D5F89C00B0F5406F24D0FB
:101CF00011DC10B3B0F5806F15D0B0F5006F10D1C6
:101D000016E0D5F89020DAF8001021F0E0411143F8
:101D1000CAF80010E3E7B0F5805F0ED0B0F5A05F21
:101D20000BD001240AE00198002101F065FB03E0DB
:101D30000098022101F0F0FB044694B12646287871
:101D4000C04300062BD4D5F8A000B0F5C04F24D076
:101D500011DC10B3B0F5005F15D0B0F5804F10D195
:101D600016E0D5F89C20D9F8001021F4E051114379
:101D7000C9F80010E3E7B0F5004F0ED0B0F5204FE2
:101D80000BD001240AE00198002101F035FB03E0AB
:101D90000098022101F0C0FB044654B12646287881
:101DA000C04300071ED4D5F88400B0F5805F0AD088
:101DB0000FE0D5F8A020D9F8001021F460411143BC
:101DC000C9F80010EBE70098022101F0A5FB00B173
:101DD0000126D5F88420DAF8001021F4405111438F
:101DE000CAF800102878C043C00613D4D5F898006C
:101DF000B0F5807F05D10098022101F08DFB00B184
:101E00000126D5F89820D9F8001021F4407111432B
:101E1000C9F800102868C043000316D4D5F8A40000
:101E200038B1B0F5803F09D0B0F5003F0BD00124A8
:101E30000AE00198002101F0DFFA03E00098022196
:101E400001F06AFB04468CB126462868C043400373
:101E500022D4D5F88800B0F5801F11D0B0F5001F4E
:101E600013D0B0F5401F15D0012414E0D5F8A420FC
:101E7000D9F8001021F440311143C9F80010E4E70B
:101E8000386840F40030386004E00098012101F027
:101E900043FB04465CB126462868C043C00323D4F4
:101EA000286DA8B1B0F5803F17D001241BE0D5F80C
:101EB0008820DAF8001021F440111143CAF800100C
:101EC000EAE700004C44025800480258CFFFFF00E8
:101ED000386840F40030386004E00198022101F0D5
:101EE0008BFA0446E4B126462868C043800005D436
:101EF0000098022101F010FB00B101262868C043C0
:101F000080031BD4D5F88000B0B1B0F5807F0FD02E
:101F1000B0F5007F10D0B0F5407F0DD001240CE06B
:101F20005A482A6D016821F4803111430160DBE7D2
:101F3000386840F400303860ECB326462868C04367
:101F4000C00207D46A6FD8F8001021F00041114395
:101F5000C8F800102868C043C00008D4D5F8B820DD
:101F6000DBF8001021F480411143CBF80010286801
:101F7000C043800207D4EA6ED8F8001021F08071C7
:101F80001143C8F800102868C04340000CD4DBF8A7
:101F9000001021F40041CBF80010DBF80010D5F858
:101FA000BC201143CBF800102868C04308D4374840
:101FB0006A6D016800E018E021F0405111430160B2
:101FC0002868C043000208D4D5F88C20DAF8001045
:101FD00021F440011143CAF8001028790024C043BD
:101FE00000F0010020430AD00FE0D5F88020DAF895
:101FF000001021F440711143CAF800109EE70198C7
:10200000002101F0F9F900B106462879C04300F03B
:102010000200204305D10198012101F0EDF900B142
:1020200006462879C04300F00400204305D10198FA
:10203000022101F0E1F900B106462879C04300F021
:102040000800204305D10098002101F065FA00B195
:1020500006462879C04300F01000204305D10098BF
:10206000012101F059FA00B106462879C04300F079
:102070002000044304D10098022101F04DFA00B978
:1020800016B10120BDE8FE8F0020FBE74C4402584A
:102090002DE9F05F04000F467ED0DFF83882D8F8D3
:1020A000000000F00F00B8420CD2D8F8001021F068
:1020B0000F013943C8F80010D8F8000000F00F00F5
:1020C000B84269D12078844D40070AD52069296833
:1020D00001F07001884204D9296821F070010143A0
:1020E000296020787C4E361D00070AD5606931686A
:1020F00001F07001884204D9316821F07001014378
:1021000031602078C0060AD5A069316801F4E06129
:10211000884204D9316821F4E061014331602078BC
:10212000DFF8B4B180060BF1080B0CD5E169584615
:10213000DBF8002002F07002914204D9026822F01C
:1021400070020A430260207880070AD5E068296897
:1021500001F00F01884204D9296821F00F010143E1
:1021600029602078C0073ED05B49A26828681839EA
:1021700020F47060104328606068022818D003289B
:1021800019D00968012819D0490700294ADADFF86F
:1021900048A1AAF1080A00E044E0DAF8002022F0A1
:1021A00007020243CAF80020FEF78EFD814612E0C6
:1021B00009688903E9E709688901E6E7C905E4E7F1
:1021C000FEF782FDA0EB090141F28830814202D97D
:1021D0000320BDE8F09F6168DAF8000000F03800E5
:1021E000B0EBC10FECD1207880070AD5E0682968F0
:1021F00001F00F01884204D2296821F00F01014348
:102200002960D8F80010404601F00F01B9420BD9FF
:10221000016821F00F0139430160006800F00F00F0
:10222000B84201D00120D4E7207840070AD52069C0
:10223000296801F07001884204D2296821F07001F8
:1022400001432960207800070AD56069316801F0F0
:102250007001884204D2316821F07001014331607D
:102260002078C0060AD5A069316801F4E06188428F
:1022700004D2316821F4E0610143316020788006A6
:102280000CD5E1695846DBF8002002F0700291425B
:1022900004D2026822F070020A43026000F09AF849
:1022A0000E492A682B68C2F3032203F00F038A5CED
:1022B000C95C02F01F0201F01F01D040084A20FA59
:1022C00001F111600749086007480068BDE8F05F48
:1022D000FEF732BE0020005218440258C43F0008E6
:1022E00018000024140000240C00002470B5144CC5
:1022F0003F220260124A24680832131D114D04F077
:102300000704446016681C1D06F470668660166833
:1023100006F00F06C660126802F0700202611A68C9
:1023200002F0700242611A6802F4E062826122687F
:1023300002F07002C261286800F00F00086070BDF2
:10234000104402580020005230B500F043F80B4A08
:102350000B490C4B15681468C5F3032204F00F04F5
:102360008A5C095D02F01F0201F01F01D040064A9D
:1023700020FA01F119601060084630BD1844025877
:10238000C43F0008180000241400002400B5FFF723
:10239000DBFF05490968054AC1F30211515C01F0F0
:1023A0001F01C84000BD00001C440258C43F000883
:1023B00000B5FFF7C9FF05490968054AC1F30221C5
:1023C000515C01F01F01C84000BD00001C440258D0
:1023D000C43F0008454970B545480968434B103B68
:1023E00011F0380208D00111082A03D0102A0BD0AE
:1023F000182A0BD0084670BD19688906FBD51968E4
:10240000C1F3C101C84070BD3A4870BD3749374D6E
:1024100018310C1D24350A68096826682D6802F0F9
:10242000030406F00102C1F30511C5F3CC0515FB49
:1024300002F200EE102AB8EE400AE9B32F4ADFEDAF
:102440002E0AB7EE001A6CB1DFED2D1A012C01D067
:10245000022C43D002EE101A1068F8EE422A81EEE8
:10246000A22A1EE01C68A40611D51B6801EE901A72
:102470001168C3F3C103F8EE612AD84001EE900A57
:10248000C1F30800F8EE611A81EEA22A0BE001EE1A
:10249000901ADFED1C2A00BFF8EE611A106882EE78
:1024A000A12AC0F3080001EE900AF8EE611A40EE8E
:1024B000201A31EE810A00E015E022EE000A1068D1
:1024C000C0F34620401C00EE900AF8EE600A80EE51
:1024D000201ABCEEC10A10EE100A70BD01EE901A6F
:1024E000DFED092AD8E7002070BD00001044025833
:1024F0000090D00340787D0100000039304402583C
:102500000024744A0024744C20BCBE4B2DE9F05FBB
:1025100004007DD0FF4F2078FE4D1837DFF8F4938C
:10252000103DC00748D0D9F80000396800F03800E5
:10253000102815D0182803D101F0030002280FD06D
:102540006068B0F5803F12D010B1B0F5A02F18D060
:10255000286820F480302860286820F4802009E072
:102560002868800328D560680028D2D024E0286835
:1025700040F480302860606888B1FEF7A5FB06460D
:1025800009E0286840F480202860F0E7FEF79CFB13
:10259000801B64286FD828688003F7D50CE0FEF70D
:1025A00093FB064605E000BFFEF78EFB801B642808
:1025B000F0D828688003F7D4207841F20308D54E7C
:1025C0000C3E800769D5D9F80000396810F0380052
:1025D0000ED0182801D188070AD0E06890B3296886
:1025E00021F0190101432960FEF76EFB824631E0BC
:1025F0002868400702D5E06800288AD0E16828688A
:1026000020F0190008432860FEF75EFB824607E0D1
:10261000DFE000BFFEF758FBA0EB0A000228B9D8A4
:1026200028684007F6D500BFFEF748FB40451BD899
:102630002069402812D0316821F47C3141EA003011
:1026400030602AE018E000BFFEF73EFBA0EB0A0076
:1026500002289FD828684007F6D5E5E7306820F4BF
:102660007C3040F40030EBE7207C316821F0FE4103
:1026700041EA0060E4E70DE1286820F001002860ED
:10268000FEF722FB824605E0FEF71EFBA0EB0A00E8
:1026900002288DD828684007F6D42078C0065DD57A
:1026A000D9F80000DFF86CB2396800F03800ABF1FF
:1026B000040B082810D0182803D101F003000128CA
:1026C0000AD0E0690028286838D040F080002860EF
:1026D000FEF7FAFA824623E02868C00523D5E069B0
:1026E000802876D11FE0206A202821D0316821F08F
:1026F000F84141EA8060306030E000BF94F820107B
:10270000DBF8002022F07C5242EA0161CBF8001095
:1027100024E000BFFEF7D8FAA0EB0A00022898D800
:102720002868C005F6D5FEF7C9FA4045E6D8DAE7CD
:10273000306820F0F84040F08040DCE720F0800076
:102740002860FEF7C1FA064605E000BFFEF7BCFAB6
:10275000801B02289DD82868C005F7D42078000780
:1027600029D56C486169643000298046016811D020
:1027700041F001010160FEF7A7FA064605E000BF3F
:10278000FEF7A2FA801B0228C9D8D8F800008007FB
:10279000F6D510E021F001010160FEF795FA06463A
:1027A00005E000BFFEF790FA801B022872D8D8F827
:1027B00000008007F6D42078800623D5A069002881
:1027C000286810D040F480502860FEF77DFA064655
:1027D00005E036E1FEF778FA801B02285AD828680F
:1027E0008004F7D50EE020F480502860FEF76CFAE4
:1027F000064604E0FEF768FA801B02284AD82868DB
:102800008004F7D4207840074FD5DFF80C81D8F842
:10281000001041F48071C8F80010FEF755FA064622
:1028200005E000BFFEF750FA801B642832D8D8F8C4
:102830000000C005F6D5374EA068603601280AD0E2
:1028400008B1052813D0306820F0010030603068EE
:1028500020F0040002E0306840F001003060A06821
:1028600041F2883A90B1FEF72FFA80460AE03068CC
:1028700040F004003060EEE7FEF726FAA0EB080116
:10288000514507D830688007F6D50EE0FEF71CFAF0
:10289000804607E084E000BFFEF716FAA0EB0801CF
:1028A00051457DD830688007F6D4606AB0B3DFF850
:1028B0006480D9F8001008F120084FF6F87B08F181
:1028C0000409C1F3C2010329A8F1040A69D002284E
:1028D000286820F08070286003D0FEF7F5F90446E0
:1028E00084E0FEF7F1F9064605E000BFFEF7ECF9DB
:1028F000801B022877D828688001F7D4E26A40F26A
:10290000F331386854F8283F884340EA02101843EE
:10291000386004E01044025800480258B5E0217BBA
:10292000434622894FF4FE0C208A4FF0FE474902AD
:10293000267D521E401EA1F50071C2F308088AB21E
:10294000761E0CEA004042EA08020243504607EABB
:1029500006610A431A60DAF8002022F00102CAF880
:102960000020D9F80020266A22EA0B0242EAC602B9
:10297000C9F80020DAF80010A26921F00C01114317
:10298000CAF800100168E26921F0020111430160F8
:10299000016841F480310160016841F4003101E0D7
:1029A00021E027E00160016841F4802101600168B5
:1029B00041F001010160286840F080702860FEF756
:1029C00083F9044605E000BFFEF77EF9001B0228EC
:1029D00009D828688001F7D557E000BFFEF774F9E1
:1029E000001B022802D90320BDE8F09F286880015F
:1029F000F4D44AE039680128D8F8000021D0A26A4E
:102A000001F0030393421CD1E26AC1F305118A422B
:102A100017D1216BC0F30802491E8A4211D1616BA4
:102A2000C0F34622491E91420BD1A16BC0F306426E
:102A3000491E914205D1E16BC0F30660491E8142F7
:102A400001D00120D0E7A16C4E46D9F80000C0F3B8
:102A5000CC00814219D0DAF80000554620F0010080
:102A6000CAF80000FEF730F94FEA0007FEF72CF92C
:102A7000B842FBD0A26C306820EA0B0040EAC200EA
:102A80003060286840F0010028600020ACE70000BA
:102A900070B504000D4603D094F82C0010B107E087
:102AA000012070BD002084F82D00204600F018F8A9
:102AB000022084F82C002068211DFDF787FDD4E951
:102AC00000022946FDF7B8FD04480121026842F0E2
:102AD0000042026084F82C10002070BD00400052BB
:102AE000FDF75ABF70477047704710B5040003D018
:102AF00094F83D0010B107E0012010BD002084F8DB
:102B00003C00204600F022F8022084F83D002068B6
:102B1000211D00F069FE012084F8480084F83E0081
:102B200084F83F0084F8400084F8410084F84200B3
:102B300084F8430084F8440084F8450084F8460093
:102B400084F8470084F83D00002010BD7047000065
:102B500090F83D10012901D001207047174A022149
:102B600080F83D100168CB6843F00103CB6000683A
:102B7000904214D0B0F1804F11D0114988420ED04C
:102B8000104988420BD01049884208D00F4988422A
:102B900005D00F49884202D00E49884207D181688A
:102BA0000D4A1140062906D0B1F5803F03D00168D7
:102BB00041F0010101600020704700000000014069
:102BC0000004004000080040000C004000040140E8
:102BD00000180040004001400700010070472DE947
:102BE000F041044600680027C6680569A90713D5A7
:102BF000B10711D5FA1E0261012121772068806991
:102C00008007204602D0FFF7E9FF04E000F08BF8D0
:102C1000204600F089F82777680716D5700714D585
:102C2000226802206FF0040111612077206880691A
:102C300010F4407F204602D0FFF7D0FF04E000F000
:102C400072F8204600F070F82777280715D530076E
:102C500013D5226804206FF00801116120772068E5
:102C6000C0698007204602D0FFF7B8FF04E000F0FB
:102C70005AF8204600F058F82777E80616D5F006EF
:102C800014D5226808206FF01001116120772068A8
:102C9000C06910F4407F204602D0FFF79FFF04E098
:102CA00000F041F8204600F03FF82777E80708D009
:102CB000F00706D021686FF001000861204600F09F
:102CC00035F8280601D4A80408D5300606D52168B1
:102CD0006FF4025008612046FFF705FFE80508D5AC
:102CE000300606D521686FF4807008612046FFF732
:102CF000F9FE680608D5700606D521686FF0400019
:102D00000861204600F01CF8A8060AD5B00608D5D0
:102D100021686FF0200008612046BDE8F041FFF710
:102D2000E3BEBDE8F08170477047000000680349CA
:102D3000884201D1FEF7CAB8704700000010004079
:102D4000704730B590F88410012918D0012280F81E
:102D500084202421C0F888100022202401680B68F8
:102D60000D6823F0005325F001050D6042660168EF
:102D70000B60C0F8884080F88420104630BD0220E7
:102D800030BD70B5044690F8840001281DD00122A2
:102D900084F884202420C4F888002068056802682C
:102DA00022F0010202602068826822F060620A4319
:102DB0008260204600F07EFD226820210020156000
:102DC000C4F8881084F8840070BD022070BD70B50E
:102DD000044690F8840001281DD0012284F8842044
:102DE0002420C4F8880020680568026822F00102E7
:102DF00002602068826822F060420A4382602046B6
:102E000000F058FD2268202100201560C4F88810C9
:102E100084F8840070BD022070BD10B5040003D09A
:102E2000D4F8880010B107E0012010BD002084F81C
:102E30008400204600F026F82420C4F8880020688A
:102E4000016821F001010160A06A10B1204600F084
:102E500053FD204600F034FE0128E6D0206841688A
:102E600021F4904141602068816821F02A0181604D
:102E70002068016841F0010101602046BDE8104072
:102E800000F09EBD10B5B6B00446142130A8FDF781
:102E900020FBC0216846FDF71CFB1A4920688842C8
:102EA0002DD100201F9001210446CDE90010684675
:102EB000FEF718FC08B1FDF778FB1348016841F0F4
:102EC00010010160006800F0100035900E481038C5
:102ED000016841F00101016000680DF1C00C0221A0
:102EE00000F0010035904FF4C06007238CE8130018
:102EF00003220648CDE9332330A9FDF7C3FD36B0E0
:102F000010BD000000100140F044025800000258BB
:102F1000FEE700000148FEF77FB800000C01002426
:102F20002DE9FC4F82468D88894693468820DAF841
:102F300000108C2300EBCB149422A646C868C0F383
:102F40000B4028440D59040403EBCB1005F47045E5
:102F5000CDE9000441F80E509C23D9F8004003EB62
:102F6000CB164FF0AC0C982340F2077702EBCB1155
:102F7000A02503EBCB1205EBCB13DAF800500CEBDA
:102F8000CB1CD5F80C80C8F30B4808F10108A0440D
:102F9000019C48EA040845F80E80DAF80040B9F8C8
:102FA0000C50D4F80C802058C8F30A08454400F4AB
:102FB0007048009844F80080DAF80040D9F808001A
:102FC000D4F80C80C8F30A0808F10108804400987E
:102FD00048EA054844F80080DAF80000445824F034
:102FE00007044450DAF80040D9F81000605099F80E
:102FF000310099F81810040299F83200000440EAF0
:10300000016099F8301021430143DAF80000815142
:10301000DAF80000815821F0FF018150DAF8000051
:10302000D9F814108150DAF80000C158B943C150E2
:10303000DAF80010D9E907021043C850DAF8001096
:10304000D9F8240041F80C00D9F81000C8B30128C1
:103050003AD004283AD0022838D0032836D007289E
:1030600034D00120DAF80030B02505EBCB11B422C2
:1030700084245D5802EBCB1205F0E0255D50D9E9C0
:10308000003504EBCB14EB1AB9F828504343454301
:10309000DAF80000DB1D43EA05434350DAF800008C
:1030A00081586FF30A018150DAF80000D9F82C102A
:1030B0008150DAF80000015941F001010151BDE8E9
:1030C000FC8FFFE70420CDE70320CBE70220C9E710
:1030D000104801220E4B002110B50360C0E9011217
:1030E000C160C0E91112C164016541658165C165B6
:1030F000FDF7EEFB08B1FDF758FA06480121FDF790
:10310000F5FA002803D0BDE81040FDF74EBA10BD17
:10311000001000521C000024F0B587B01C21684646
:10312000FDF7D7F916480022144D4FF0040E012682
:103130004FF0400C0221C0E90052C0E9026E00F1DC
:103140001C0E202707618E02CF024FF4C0758EE857
:10315000C400826207230524C0E905C58DE81A0072
:10316000CDE90441039306916946FFF791FC0028DD
:1031700001D0FDF71AFA07B0F0BD0000404100523F
:103180008400002470B586B014216846FDF7A1F9CB
:103190003A48016841F480710160016801F480716E
:1031A0000591016841F480610160016801F480616A
:1031B0000591016841F010010160016801F0100102
:1031C0000591016841F002010160016801F002010E
:1031D0000591016841F400710160016801F400711A
:1031E0000591016841F001010160016801F00101F0
:1031F0000591016841F080010160016801F08001E2
:103200000591016841F004010160016801F00401C9
:103210000591016841F040010160016801F0400141
:103220000591016841F008010160016801F00801A1
:103230000591016841F02001016000680122104EF3
:10324000150200F02000294605903046FDF730FDBC
:10325000012003210024CDE90050CDE90241694657
:103260003046FDF70FFC80206946CDE90004054893
:103270000294FDF707FC06B070BD0000E044025860
:1032800000000258001C02581348002110B5114CD0
:103290000123124A0460C0E90121C0E90331416100
:1032A0008161C1610162FDF76BFD08B1FDF77DF938
:1032B00009480021FDF70EFD08B1FDF776F9064833
:1032C0000021FDF733FD002803D0BDE81040FDF7D5
:1032D0006CB910BD00540040B8000024DB3FB000C2
:1032E000F0B58DB034216846FDF7F3F82548002489
:1032F000234D2F21022240F2A736872340F20227D6
:1033000005602225446040F2CF3C846040F20F2EDD
:10331000C4600461143080E8EE5080F8204080F8EA
:10332000214080F822401438FDF7DAFE08B1FDF79D
:103330003CF94FF448704FF4F07101270497CDE940
:103340000040CDE90A0107A8BA0205234D06CDE9E0
:10335000024180E82C00FF260A48CDE905648DF87B
:10336000304000228DF8314069468DF83240FDF73B
:1033700029FE002801D0FDF718F90DB0F0BD0000BE
:10338000001000500C0100241848002110B5164C04
:103390000C224FF4E1330460C0E90131C160C0E99F
:1033A00004128161C161016241628162FFF735FDF2
:1033B00008B1FDF7FAF80D480021FFF708FD08B144
:1033C000FDF7F3F809480021FFF7DBFC08B1FDF732
:1033D000ECF80648FFF7B5FC002803D0BDE8104024
:1033E000FDF7E3B810BD000000100140B401002457
:1033F000FEE7FEE7704700002DE9F047454D044623
:1034000089464FF0000A2868C04380070AD0414E21
:10341000283E306820F080603060FDF755FC07469C
:10342000B04608E00120BDE8F08700BFFDF74CFC86
:10343000C01B022867D8D8F800000001F6D4206825
:1034400029684FF4FE0721F47C313E0241EA003046
:103450002860207AA389B4F804C040022D4D2D497C
:103460005B1E227CACF1010C1035091DA0F500702B
:1034700080B2521ECCF3080C07EA034340EA0C006A
:10348000184306EA0262104328600868626920F067
:10349000C000104308600A68A06922F020020243BD
:1034A0000A60281D0A6822F010020A6002684FF6BE
:1034B000F873E4699A4342EAC40202600868B9F109
:1034C000000F40F010020A6011D00868B9F1010F36
:1034D00011D040F400100860D8F80000444640F0D5
:1034E0008060C8F80000FDF7EFFB05460DE00868B6
:1034F00040F40020EFE740F48010ECE7FDF7E4FB38
:10350000401B022801D903208DE720680001F5D572
:10351000504688E7284402582DE9F047454D0446B7
:1035200089464FF0000A2868C04380070AD0414E00
:10353000283E306820F080503060FDF7C5FB07461C
:10354000B04608E00120BDE8F08700BFFDF7BCFBF6
:10355000C01B022867D8D8F800008000F6D4208865
:1035600029684FF4FE0721F07C713E0241EA0050C9
:103570002860207AA389B4F804C040022D4D2D495B
:103580005B1E227CACF1010C1835091DA0F5007002
:1035900080B2521ECCF3080C07EA034340EA0C0049
:1035A000184306EA0262104328600868626920F442
:1035B0004060104308600A68A06922F40072024368
:1035C0000A60281D0A6822F480720A6002684FF6B9
:1035D000F873E4699A4342EAC40202600868B9F1E8
:1035E000000F40F480720A6011D00868B9F1010F31
:1035F00011D040F080700860D8F80000444640F0D8
:103600008050C8F80000FDF75FFB05460DE0086834
:1036100040F48000EFE740F40000ECE7FDF754FBD6
:10362000401B022801D903208DE720688000F5D5D2
:10363000504688E7284402587047704770B59CB0E0
:103640004C216846FCF745FF202113A8FCF741FFF9
:103650000220FDF7C7FE214800242149026842F4F8
:103660004042026002680A6842F001020A6009688A
:1036700001F001011B9101688904FCD50DF1280CB2
:10368000022009900521C0228CE80700C6030F9094
:1036900008250D9001230E90CDE91054CDE9003698
:1036A00068461294FEF732FF08B172B6FEE740207A
:1036B0001A903F210301CDE916500322CDE91803EA
:1036C00013AB13A883E816000421FEF7E1FC0028E1
:1036D00001D072B6FEE71CB070BD00001848025859
:1036E0002C0400583348F0B5334A016841F47001A6
:1036F0000160106800F00F00072804D2106820F065
:103700000F00C01D10602D4900202C4C10340B6898
:103710002B4D43F001030B6020600B682B400B60C6
:10372000136803F00F03072B04D9136823F00F036A
:10373000DB1D1360214C234A1834234B261D371DF3
:1037400020601E4C214D28343060261D3860371D06
:1037500023603B1D35601C1D3A60251D2E1D186021
:10376000331D22602860326018600A68134B184CC1
:1037700022F4802260330A60186020686FF30F0023
:10378000B0F1005F03D213490120C1F808010B48D2
:10379000D4300168C9040BD4026843F2D2010E4B45
:1037A00042F4805202601960016821F48051016086
:1037B000F0BD000088ED00E00020005200440258F7
:1037C0007FEDF6EA80020101000202020000FF0123
:1037D0000010005C00800051004000520148FFF7DB
:1037E000FEB90000480200242DE9F047294B4FF0B4
:1037F000804A294D02689842284E294F294C09D009
:10380000504507D0A84205D0B04203D0B84201D0FD
:10381000A04205D1D1F804C022F070024CEA0202A5
:10382000DFF884C0DFF884809842DFF884900FD0FE
:1038300050450DD0A8420BD0B04209D0B84207D0B5
:10384000A04205D0604503D0404501D0484503D192
:10385000CD6822F440722A438E684D6922F08002BE
:10386000C6620E682A439842866207D0A04205D0FD
:10387000604503D0404501D0484501D10969016345
:103880000368012143F00403036041610260BDE865
:10389000F0870000000001400004004000080040E4
:1038A000000C004000040140004001400044014081
:1038B0000048014030B5416EB9B101680D4B03F1CC
:1038C00008048A688968C2F34262490F5D5C615CE2
:1038D0002D01B5FBF1F1A0F86A10995CA25C090119
:1038E000B1FBF2F1A0F8681030BD0121A0F86A1018
:1038F000F8E70000B43F000890F82810090706D543
:103900000168836B4A6822F400421A434A6090F8C7
:103910002810C90706D00168C36A4A6822F4003239
:103920001A434A6090F82810890706D50168036B8E
:103930004A6822F480321A434A6090F828104907F6
:1039400006D50168436B4A6822F480221A434A6014
:1039500090F82810C90606D50168C36B8A6822F45E
:1039600080521A438A6090F82810890606D50168AB
:10397000036C8A6822F400521A438A6090F8281077
:10398000490611D50168436C4A6822F480121A4333
:103990004A60416CB1F5801F06D10168836C4A68AA
:1039A00022F4C0021A434A6090F82810090606D58E
:1039B0000168C26C486820F40020104348607047DA
:1039C0002DE9F84300250446C0F89050FDF77CF936
:1039D0008046206820266FF07E470068000713D5D8
:1039E0000022434631042046009700F03FFA58B1C8
:1039F000216851E8000F20F0800041E80002002A11
:103A0000F6D1C4F8886021E020680068400722D51C
:103A1000002243464FF480012046009700F026FA2A
:103A2000C8B1206850E8001F21F4907140E80012EE
:103A3000002AF6D12068083050E8001F21F001016B
:103A400040E80012002AF5D1C4F88C60032084F805
:103A50008450BDE8F883C4F88860C4F88C60E566DB
:103A60002567002084F88450F3E7000010B5026851
:103A700052E8001F21F4907142E80013002BF6D1A8
:103A80000E4B0268083252E8001F194042E8001449
:103A9000002CF6D1C16E012908D1026852E8001F3E
:103AA00021F0100142E80013002BF6D10021202262
:103AB000C0F88C20C166416710BD0000FEFFFFEF1B
:103AC0002DE9F04304468068D84E87B0D84B216872
:103AD000D4E90427D4F81CC010430A68002547EA3B
:103AE0000C073843324002430A602068E2684168AC
:103AF00021F44051114341602268A1699A4201D0EA
:103B0000206A01439768DFF82CC3CB4ECB4807EA05
:103B10000C070F4397602168676ACA6A22F00F0298
:103B20003A43CA622268B2420ED1006800F03800FF
:103B3000182873D047DCB8B3082879D010286FD183
:103B400078E028287ED17BE0BD498A4209D100680F
:103B500000F00700062875D2DFE800F0546A6C6EAA
:103B60007072B8498A4209D1006800F0070006283F
:103B700068D2DFE800F0475D5F616365B2498A4261
:103B800009D1006800F0070006285BD2DFE800F0EA
:103B90003A5052545658AD498A420BD1006800F051
:103BA000070006284ED200E010E0DFE800F02B41CD
:103BB00043454749A6498A420AD1006800F03800C7
:103BC000182839D0B7DD2028BBD13CE001203AE0ED
:103BD000A0498A4209D1006800F00700062831D2C6
:103BE000DFE800F01026282A2C2E9B498A420BD1B0
:103BF000006800F00700062824D2DFE800F003196F
:103C00001B1D1F2100201EE09A421BD18B48001D66
:103C1000006800F00700062814D202E00CE007E07C
:103C200010E0DFE800F0030507090B0D02200AE0B1
:103C3000042008E0082006E0102004E0202002E034
:103C4000402000E080208549DFF814829A42854AAE
:103C50004FF400434FEA21174FF000064ED11028D1
:103C60001AD006DC022809D004280BD008287CD101
:103C70000DE020283ED0402877D13DE0FDF7DCFB69
:103C8000014610E06846FDF7E9FB01990BE003A847
:103C9000FDF786FC049906E01068800605D51068DB
:103CA000C0F3C100C140002970D0606A676838F86D
:103CB000102007EB4703B1FBF2F0834255D8B0EB7D
:103CC000073F52D8002308461946FCF759FB024625
:103CD0007808130E120243EA012110183A46714186
:103CE0000023FCF74DFB604AA0F5407191423CD89F
:103CF00021688FE03946D8E71946D6E7D4F81CC0CA
:103D00004FF6EF799C4546D1082819D005DC58B10B
:103D100001280CD0042875D10DE0102815D02028DA
:103D200035D040286ED134E0FEF730FB01E0FEF7DD
:103D30003FFB014610E06846FDF790FB01990BE060
:103D400003A8FDF72DFC049906E01068800604D551
:103D50001068C0F3C100C140C1B1636A606838F83F
:103D60001330B1FBF3F1490000E04BE001EB5001EF
:103D7000B1FBF0F0A0F11001494543D84FF6F073C4
:103D80002168C0F342021840104343E043E0394643
:103D9000E3E71946E1E7082819D005DC58B1012806
:103DA0000CD004282ED10DE0102815D020282BD0BF
:103DB000402827D12AE0FEF7E9FA01E0FEF7F8FAF9
:103DC000014610E06846FDF749FB01990BE003A8A6
:103DD000FDF7E6FB049906E01068800604D510683C
:103DE000C0F3C100C140B1B1636A606838F81330F4
:103DF000B1FBF3F101EB5001B1FBF0F0A0F11001C8
:103E0000494505D9012506E03946EDE71946EBE7B6
:103E1000216880B2C8600120A4F86A00A4F8680094
:103E200028466667A66707B0BDE8F083F369FFCF51
:103E3000000C0058FFF4FF110010014054440258D8
:103E40000044004000480040004C0040005000404A
:103E50000014014000780040007C00400090D00336
:103E60009C3F000800440258FFFC0F002DE9F0477A
:103E7000994617460D460446089E4FF0000833E069
:103E8000701C31D0FCF720FFA0EB0900B04218D81D
:103E9000BEB120680168490726D5802D24D0402D69
:103EA00022D0C169C94309070DD4082505622046FF
:103EB000FFF7DCFDC4F89050012084F88480BDE851
:103EC000F0870320FBE7C069C04300050CD42168DC
:103ED0004FF4006008622046FFF7C8FD2021C4F8B7
:103EE000901084F88480ECE72068C06935EA00000F
:103EF00004D00020B842C3D00020E0E70120F9E759
:103F0000FEE7090700284FEA116104DB00F1E02019
:103F100080F80014704700F00F0000F1E02080F8F6
:103F2000141D70471FB5002400940194029403945B
:103F3000FDF7EAF901208DF80C001F218DF808101B
:103F400087228DF809208DF80D008DF80000684655
:103F50008DF80A408DF80E408DF8014001948DF8DF
:103F60000B408DF80F40FDF7A1F90420FDF7DAF9B9
:103F7000FCF7B4FFFFF762FBFFF704F9FFF7A8F8BF
:103F8000FFF782F9FFF7ACF9FFF7FEF9FFF7C4F886
:103F9000FEE74FF04070E1EE100A704701000200AA
:103FA0000400060008000A000C0010002000400079
:103FB0008000000101010103070100000804020460
:103FC00008010101000000000102030401020304D2
:103FD00006070809F43F0008000000241C00000048
:103FE000D4020008104000081C000024DC1400006B
:103FF000F0020008000000000000000001000000C6
:1040000010000000000000000090D0030090D003DA
:040000050800029954
:00000001FF
