:020000040800F2
:10000000F04D002079030008D7350008DD300008E6
:10001000D5350008230600086141000800000000F3
:1000200000000000000000000000000097380008F9
:100030004D06000800000000D93500089938000876
:100040009703000897030008970300089703000828
:100050009703000897030008970300089703000818
:100060009703000897030008970300089703000808
:1000700097030008970300089703000897030008F8
:1000800097030008970300089703000897030008E8
:1000900097030008970300089703000897030008D8
:1000A00097030008970300089703000897030008C8
:1000B00097030008970300089703000897030008B8
:1000C00097030008970300089703000897030008A8
:1000D0009703000897030008970300089703000898
:1000E000970300089703000800000000970300082A
:1000F0009703000897030008970300089703000878
:100100009703000897030008970300089703000867
:1001100097030008970300083D3A0008970300087A
:100120009703000897030008970300089703000847
:100130009703000897030008970300089703000837
:1001400000000000000000000000000000000000AF
:100150009703000897030008970300089703000817
:100160009703000897030008970300089703000807
:100170009703000897030008970300080000000099
:1001800097030008970300089703000897030008E7
:1001900097030008970300089703000897030008D7
:1001A000E1300008970300082506000897030008BF
:1001B00097030008970300089703000897030008B7
:1001C00097030008970300089703000897030008A7
:1001D0009703000897030008970300089703000897
:1001E0009703000897030008970300089703000887
:1001F0009703000897030008970300089703000877
:100200009703000897030008970300089703000866
:100210009703000897030008970300089703000856
:1002200097030008970300089703000800000000E8
:1002300097030008970300080000000097030008D8
:100240009703000897030008970300089703000826
:100250009703000897030008970300089703000816
:100260009703000897030008970300089703000806
:100270009703000897030008970300080000000098
:100280009703000897030008970300080000000088
:10029000000000009703000800F002F800F05CF88E
:1002A0000AA090E8000C82448344AAF10107DA45D1
:1002B00001D100F051F8AFF2090EBAE80F0013F0C7
:1002C000010F18BFFB1A43F00103184788F30C0015
:1002D000A8F30C000A444FF0000C10F8013B13F097
:1002E000070408BF10F8014B1D1108BF10F8015B8F
:1002F000641E05D010F8016B641E01F8016BF9D182
:1003000013F0080F1EBF10F8014BAD1C0C1B09D1D8
:100310006D1E58BF01F801CBFAD505E014F8016B4A
:1003200001F8016B6D1EF9D59142D6D370470000DC
:100330000023002400250026103A28BF78C1FBD8EE
:10034000520728BF30C148BF0B6070471FB539F056
:1003500022FF1FBD10B510BD00F029F91146FFF7AF
:10036000F5FF2DF0BDFC00F047F903B4FFF7F2FFF5
:1003700003BC00F04FF900000A4880470A48804754
:100380000A480047FEE7FEE7FEE7FEE7FEE7FEE776
:10039000FEE7FEE7FEE7FEE705480649064A074B8B
:1003A000704700005506000845390008990200080A
:1003B000F00B0020F04D0020F00D0020F00D00208B
:1003C00053EA020C00F069802DE9F04B4FF0000673
:1003D000002B1FBFB3FA83F503FA05F424FA05F6E0
:1003E0005E4012BF1643B2FA82F502FA05F4C5F177
:1003F00020051EBF22FA05FC44EA0C04203556EA0B
:10040000044C4FEA144418BF641C4FF000084FF02E
:100410000009904271EB030C39D3002919BFB1FADE
:1004200081F701FA07F6B0FA80F700FA07F6C7F18C
:1004300020071EBF20FA07FC46EA0C062037B6FB51
:10044000F4FCA7EB0507103F07F01F0BCBF12006CC
:100450000CFA0BFB2CFA06F644BFB3460026202FFD
:10046000A4BF5E464FF0000B5BEA060C08BF4FF0DE
:10047000010B19EB0B09ABFB027C48EB0608C01B18
:1004800006FB02CC0BFB03CC71EB0C01C1E70B4666
:10049000024641464846BDE8F08B13B54FF00000D8
:1004A0004FF00001AFF30080BDE81C40704710B56D
:1004B0004C1084EA530404D54042C1F1000138BF16
:1004C000491E1B4204D55242C3F1000338BF5B1ED4
:1004D000FFF776FF14F0804F04D04042C1F10001D5
:1004E00038BF491E14F0004F04D05242C3F100033C
:1004F00038BF5B1E10BD10B5203AC0F00B80B1E8CC
:100500001850203AA0E81850B1E81850A0E8185048
:10051000BFF4F5AF5FEA027C24BFB1E81850A0E851
:10052000185044BF18C918C0BDE810405FEA827C6B
:1005300024BF51F8043B40F8043B08BF7047D20782
:1005400028BF31F8023B48BF11F8012B28BF20F823
:10055000023B48BF00F8012B70474FF0000200B586
:10056000134694469646203922BFA0E80C50A0E8D6
:100570000C50B1F12001BFF4F7AF090728BFA0E884
:100580000C5048BF0CC05DF804EB890028BF40F850
:10059000042B08BF704748BF20F8022B11F0804F92
:1005A00018BF00F8012B70477047704770477546B9
:1005B00000F02CF8AE4605006946534620F00700CF
:1005C000854618B020B5FFF7E7FEBDE820404FF0A4
:1005D00000064FF000074FF000084FF0000B21F02D
:1005E0000701AC46ACE8C009ACE8C009ACE8C009FA
:1005F000ACE8C0098D46704710B50446AFF30080E3
:100600002046BDE81040FFF7B0BE0000004870472C
:100610008C0B002001491820ABBEFEE7260002002B
:100620007047FEE7064810B54068800703D50548C7
:10063000006819F044FEBDE81040034800F028B9F6
:10064000001000528405002030060020704772B66A
:10065000FEE70000054805490839026842F0020239
:10066000026008688004FCD5704700000C480258FE
:10067000F0B5D1E90843CD690A68C2B102682543E3
:1006800022F4F84213431D430560D1E90125D1E965
:1006900003364C692A434568334389691A43EB0B97
:1006A0002243DB030A431A4342600020F0BDD1E934
:1006B000012ED1E9036CD1E9057142EA0E0246EA46
:1006C0000C0632433A430A4301682A4322431A4341
:1006D0006FF30E010A430260E7E7426943F6FE73D7
:1006E0009A4342EA410141610020704770B591E8A8
:1006F0001C00C9686FF01F0506691A4305EB441416
:1007000044EA41210A4306EA45431A4302610020B4
:1007100070BD00002DE9F04F8B8A6FF00F05264C5D
:100720004FF07F4BD1F80C9004EB03536FF0FF04B4
:100730004FEA042A1AB386684FEA09321F4FA2F51E
:1007400080521A433E4032438260D1E900278E68CE
:10075000521E05EB07150F8A2A43C56804EB0624D1
:100760000E7E0AEB074322431A430BEB06610A4352
:1007700005F070431A43C2600020BDE8F08F91E895
:1007800004110F4E521E0F8A05EB08152A4304EB85
:100790000C2C06EB09350E7E42EA0C022A438568D2
:1007A0000AEB074422431A430BEB06610A4305F0A8
:1007B00070431A438260DFE70000F0FFFF0F0FFF76
:1007C00000F0FFFF70470000F0B590F86020012AAC
:1007D00022D0C1EBC102012780F86070022380F8AB
:1007E000613000EB8202284D138F168EB2F83CC0A8
:1007F000D46A1B05283244EA064643EA4C530A2CC5
:1008000046EA03060AD0092C08D0137B46EA0363A4
:1008100049B10B2C1AD01DE00220F0BDD36803F0C3
:100820007F433343F4E701684C6AAC431C434C629A
:10083000016813688B6151680A2901D009291BD10D
:10084000D168026821F07F41916215E0118B0F4D54
:1008500043EA81430168CC69AC431C43CC61016825
:1008600013680B6151680A2901D0092904D1D168A4
:10087000026821F07F411162002180F8617080F8E8
:1008800060100846F0BD00000F0033FF0F003FFF6F
:100890002DE9F0470446006800274FF004084FF0A8
:1008A000010946680568F10714D0E90512D5036807
:1008B00023F480730360606E40F00100606620687E
:1008C000C0F8089084F8618084F86070616A09B1AA
:1008D00020468847B00615D5A80413D520682022E5
:1008E000036823F40053036020688260606E40F068
:1008F0000200606684F8618084F86070616A09B102
:1009000020468847300715D5280513D520680822CA
:10091000036823F40063036020688260606E40F027
:100920000400606684F8618084F86070616A09B1CF
:100930002046884770070CD568050AD520680268EC
:1009400022F4806202602068C0F80880204600F02F
:1009500071F8B00713D5A80511D5206802220368E5
:1009600023F40073036020688260606E606684F820
:10097000619084F86070216A09B120468847F006CA
:1009800012D5E80410D52068016821F48051016077
:10099000226810219160616E616684F86190204642
:1009A00084F86070FFF70EFFBDE8F0872DE9F04195
:1009B000040004D094F86100002518B107E001207C
:1009C000BDE8F081204684F8605000F035F8184EFC
:1009D000022084F861000123D4E90010D4F81CC07F
:1009E00040F207120F6840EA0C00374038430860B5
:1009F0002068A769A168466B394396433143416338
:100A00002068E268016C6FF30F01114301642068F4
:100A1000218AA28A466B090541EA425126F4401216
:100A200011434163656684F861300020C8E7000027
:100A3000BFFFF8FF7047000008B500680B49884207
:100A400012D10B48016841F01001016000680022DA
:100A5000114600F0100000905A2000F03BFDBDE868
:100A600008405A2000F028BD08BD000000100052C8
:100A7000D444025870B5044600F0A6F90546601C3F
:100A800002D004480078044400F09EF9401BA042C4
:100A9000FAD370BD08000020F0B5B7B0142130A81B
:100AA000FFF75BFD2F480168002959D10121016042
:100AB000C0216846FFF751FD0DF1080C05206423A5
:100AC000022404268CE85900802712940022089200
:100AD0004FF080711546CDE90607CDE90012684652
:100AE00000F0AAFE08B1FFF7B2FD1F48016841F40B
:100AF00080510160006830A9032600F480503590D1
:100B00000C2740F2FF6081E8F100184800F03AF845
:100B100030A94FF6837081E8F100154800F032F8F3
:100B200030A94FF62C7081E8F100124800F02AF845
:100B300030A948F2331081E8F1000F4800F022F8A4
:100B400030A94CF2037081E8F1000C4800F01AF86B
:100B500030A94FF63F0081E8F100094800F012F893
:100B600037B0F0BD00000020D444025800200258E5
:100B700000100258001C025800180258000C0258BD
:100B8000001402582DE9F84F03247D4D00234FF047
:100B900001094FF0B04B4FF00F0AE9E009FA03F7F3
:100BA0003A4076D00E7906F00306012E01D0022ECF
:100BB00018D1D0F808C04FEA430ECE6804FA0EF8F8
:100BC0002CEA080C06FA0EF646EA0C068660D0F807
:100BD00004C00E792CEA070CC6F300169E4046EAC4
:100BE0000C0646600E79F643B6070BD0C6684FEA8E
:100BF00043088F6804FA08FC26EA0C0607FA08F78F
:100C00003743C7600E7906F00306022E12D1DE08C4
:100C10000F694FEA437C00EB8606B646366A4FEA18
:100C2000DC6C0AFA0CF807FA0CF726EA08063743D8
:100C3000CEF820700F7906684FEA430807F00307E3
:100C400004FA08FC07FA08F726EA0C06374307609F
:100C50004E6816F4403F1CD04A4E376847F00207F2
:100C6000376036689F0706F00206009623F00306F9
:100C700006F1B046B6463F0FD6F80864DFF80881A3
:100C80000AFA07FC404526EA0C0603D14FF0000C97
:100C900041E06CE0DFF8F4C0604502D14FF0010C98
:100CA00039E0DFF8ECC0604502D14FF0020C32E0D1
:100CB000DFF8E0C0604502D14FF0030C2BE0DFF815
:100CC000D8C0604502D14FF0040C24E0DFF8CCC05E
:100CD000604502D14FF0050C1DE0DFF8C4C060454F
:100CE00002D14FF0060C16E0DFF8B8C0604502D123
:100CF0004FF0070C0FE0DFF8B0C0604502D14FF0B5
:100D0000080C08E0DFF8A4C0604502D14FF0090CE0
:100D100001E04FF00A0C0CFA07FC4CEA060CCEF886
:100D200008C44F68DBF80060FF0226EA020600D51F
:100D300016435F46CBF80060D1F804C0DBF80460CE
:100D40005FEA8C2C26EA020600D516437E606E68A8
:100D50004F6826EA0206BF0300D516436E602E6870
:100D60004F6826EA0206FF0300D516432E605B1C7F
:100D70000A6832FA03F67FF411AFBDE8F88F00007D
:100D800080000058F4440258000002580004025841
:100D900000080258000C02580010025800140258B3
:100DA00000180258001C0258002002580024025863
:100DB0000AB1816170470904FBE70000014800683F
:100DC000000C70470010005C01488068704700000C
:100DD0000800002030B590F84120202A24D190F856
:100DE0004020012A20D0012380F84030242280F8BE
:100DF0004120202300240268156825F001051560B4
:100E00000268156825F480551560026815680D4361
:100E1000156001680A6842F001020A6080F84130FA
:100E200080F84040002030BD022030BD30B590F841
:100E30004120202A22D190F84020012A1ED00123EF
:100E400080F84030242280F84120202400250268C8
:100E5000136823F0010313600268136823F47063BE
:100E600043EA0121116001680A6842F001020A6048
:100E700080F8414080F84050002030BD022030BD55
:100E800070B5040004D094F84100002510B106E0CC
:100E9000012070BD204684F8405000F051F8242015
:100EA00084F841002068016821F001010160D4E963
:100EB000001020F0706008612068816821F4004112
:100EC0008160E06821680128A06830D040F40440C7
:100ED0008860E0680228206841682BD021F4006116
:100EE000416020682021154A43681343436020680D
:100EF000C26822F40042C26054F8106B0DCC10435B
:100F000040EA0320F06054F81C3CD4E9000210438E
:100F1000186054F81C0D026842F00102026065641A
:100F200084F84110256384F84250002070BD40F4DD
:100F30000040CDE741F40061D2E7000000800002EC
:100F400010B5B6B00446142130A8FFF706FBC02147
:100F50006846FFF702FB1A49206888422DD100201D
:100F6000219008210446CDE90010684600F064FC99
:100F700008B1FFF76CFB1348016841F00201016002
:100F800000680DF1C00C122100F0020035904FF402
:100F9000107004238CE8130003220B48CDE933239F
:100FA00030A9FFF7EFFD07480830016841F4001150
:100FB0000160006800F40010359036B010BD0000EC
:100FC00000540040E044025800040258024881687E
:100FD000027811448160704708000020032010B59A
:100FE00000F098FA01F0A0FA0F4A1049146813684B
:100FF000C4F3032203F00F038A5CC95C02F01F02F2
:1010000001F01F01D0400A4A20FA01F1116009499C
:1010100008600F2000F010F808B1012010BD00F0AA
:101020003DFA002010BD000018440258C8A1030872
:10103000180000201400002010B5102804468AB0C3
:101040002CD200220146362000F044FA362000F06F
:1010500033FA174804601748016841F01001016035
:10106000006809A900F010000890684601F0E8F94E
:101070000598B0B101F034FA40000F4900220F4C3E
:10108000B0FBF1F10E4840F2E7330460C0E90332EF
:10109000491EC0E9011201F008FE28B101200AB082
:1010A00010BD01F01DFAE8E7054801F031FEF6E752
:1010B0000C000020E844025840420F00001000409D
:1010C0005C0800202DE9F041044690F8A000164687
:1010D0000F4601281DD0012584F8A050022084F875
:1010E000A10006EB860000EBC600342204EB800072
:1010F0003830FFF700FA32463946204601F0F6FF55
:10110000216800204D6284F8A15084F8A000BDE859
:10111000F0810220FBE770472DE9F04104460068AA
:1011200000274FF00408856B466B690715D57107DA
:1011300013D5426B22F0040242632068C0F83C8061
:10114000D4F8A40040F00100C4F8A40084F8A18001
:10115000204684F8A070FFF7DEFFA80716D5B00779
:1011600014D520680222436B23F0020343632068F6
:10117000C263D4F8A40040F00200C4F8A40084F8CC
:10118000A180204684F8A070FFF7C5FF05EA06009D
:101190004FF00108C0070ED021684A6B22F001020F
:1011A0004A632168C1F83C8084F8A180204684F815
:1011B000A07000F075F8280710D530070ED520680C
:1011C0000822436B23F0080343632068C26384F85A
:1011D000A180204684F8A07000F010F9BDE8F081ED
:1011E0002DE9F041040004D094F8A100002518B1C5
:1011F00007E00120BDE8F081204684F8A05000F00F
:1012000059F8022084F8A10020680123816921F0A7
:1012100070418161D4E90010D4E902722669384333
:1012200032438E691043304388612268A08AA169E5
:1012300041EA004191602268A08B216A41EA0041A5
:10124000D1602268A08CA16A41EA00411161226844
:10125000A08D216B41EA00415161226894F835105C
:1012600094F83600D66A000406F07F46D6622268FB
:1012700040EA012094F83460D16A31430143D162DD
:101280002068416B41F0060141632068816941F0AB
:1012900001018161C4F8A45084F8A1300020A9E7BD
:1012A00001684A6A42F001024A6240F2032100F0FA
:1012B00083B80000F0B5B7B00446142130A8FFF79A
:1012C0004CF9C0216846FFF748F936492068884242
:1012D00066D10DF1280E002102250C4601220623BD
:1012E0008EE82C0040041191CDE900010DA968465B
:1012F00005265F024FF4007C81E8E01000F09CFAC4
:1013000008B1FFF7A4F92848016841F0080101601D
:10131000006800F0080035902348001F016841F480
:1013200080610160016801F480613591016841F4D8
:1013300000710160016801F400713591016841F4A8
:1013400080710160006832AA032600F48070359035
:10135000FF20CDE930050E27144882E8D00030A9DF
:10136000FFF710FC32AA4FF6FF70CDE930051048A8
:1013700030A982E8D000FFF705FC4FF4704032AA94
:10138000CDE930050B4830A982E8D000FFF7FAFB21
:1013900000225820114600F09DF8582000F08CF8EB
:1013A00037B0F0BD00100050E44402580028025845
:1013B000002402580020025870B590F8A020012A9D
:1013C00018D00D4D012380F8A030022280F8A12012
:1013D000002450F8A02B566B26F0010656632964B2
:1013E00050F8A01C4A6B42F001024A63437004703B
:1013F000204670BD022070BD0010005070470000F4
:10140000154BF0B5083B427813491A600B680A1F68
:1014100023F001030B6043681360057BC67A827A70
:10142000437B2D07847B45EA0665C77B90F809C09E
:10143000067A90F800E045EAC24040EA834040EA7C
:10144000444040EA074040EA0C2040EA460040EAB7
:101450000E000860F0BD0000A0ED00E0BFF35F8F5C
:10146000044800210368034A23F480330360703288
:101470001160704724ED00E0074A40F00100064982
:1014800070321060086840F480300860BFF34F8FFE
:10149000BFF36F8F7047000024ED00E0054808B5EA
:1014A000016841F002010160006800F00200009054
:1014B00008BD0000F4440258002809DB410900F08F
:1014C0001F028900012001F1E0219040C1F80001D4
:1014D000704700000E4BF0B41B680D46C3F30223A7
:1014E000C3F10706042E00D90426191D072901D2CD
:1014F000002300E0DB1E012404FA06F19C40491E93
:101500002940641E994014402143F0BC02F029BEDA
:101510000CED00E0064900F0070210B54FF6FF049D
:101520000868044B204040EA02201843086010BDC0
:101530000CED00E00000FA05134970B50A68D243CB
:10154000520705D5096801F00701814213D118E05F
:101550000A6822F0070202430A60FFF735FC0A4DD1
:101560004FF47A760446083D07E000BFFFF72CFCF5
:10157000001BB04201D9012070BD2868C04380041F
:10158000F4D4002070BD00000C48025810B500F0E3
:1015900085FF05490968054AC1F30211515C01F054
:1015A0001F01C84010BD000020440258C8A1030814
:1015B000494930B5484C0B1D0A68143409681D6848
:1015C000246802F00303C5F30012C1F30531C4F32C
:1015D000CC04002914FB02F200EE102AF8EE400AB7
:1015E00075D03F4A9FED3D1AB7EE000A6BB1DFEDB3
:1015F0003D1A012B01D0022B64D002EE101A1168A3
:10160000F8EE422A81EEA22A21E0334C283C2368DE
:101610009B0612D5344B246801EE901A1168C4F36E
:10162000C104F8EE612AE34001EE903AC1F30801EB
:10163000F8EE611A81EEA22A0BE001EE901ADFEDBE
:101640002B2A00BFF8EE611A116882EEA12AC1F3BD
:10165000080101EE901A1168F8EE611A40EE811A45
:1016600071EE800A62EE200AC1F3462101EE101AE3
:10167000B8EE411A31EE001AC0EE811ABCEEE11A42
:1016800080ED001A1168C1F3064101EE101AB8EEA0
:10169000411A31EE001AC0EE811ABCEEE11A80ED5B
:1016A000011A1168C1F3066101EE101AB8EE411A71
:1016B00031EE000A80EE801ABCEEC10A80ED020A0B
:1016C00030BD04E001EE901ADFED092ABAE70021EF
:1016D000016041608160F3E728440258000000394E
:1016E000384402580024744A0090D0030024744CFB
:1016F00020BCBE4B494930B5484C0B1D0A681C3410
:1017000009681D68246802F00303C5F30022C1F3D1
:101710000551C4F3CC04002914FB02F200EE102A98
:10172000F8EE400A75D03F4A9FED3D1AB7EE000A29
:101730006BB1DFED3D1A012B01D0022B64D002EE1C
:10174000101A1168F8EE422A81EEA22A21E0334CE9
:10175000283C23689B0612D5344B246801EE901A6E
:101760001168C4F3C104F8EE612AE34001EE903A37
:10177000C1F30801F8EE611A81EEA22A0BE001EE36
:10178000901ADFED2B2A00BFF8EE611A116882EE85
:10179000A12AC1F3080101EE901A1168F8EE611A4E
:1017A00040EE811A71EE800A62EE200AC1F34621F2
:1017B00001EE101AB8EE411A31EE001AC0EE811A8D
:1017C000BCEEE11A80ED001A1168C1F3064101EE8A
:1017D000101AB8EE411A31EE001AC0EE811ABCEEB2
:1017E000E11A80ED011A1168C1F3066101EE101AC9
:1017F000B8EE411A31EE000A80EE801ABCEEC10A42
:1018000080ED020A30BD04E001EE901ADFED092AF6
:10181000BAE70021016041608160F3E72844025883
:1018200000000039404402580024744A0090D0035C
:101830000024744C20BCBE4B2DE9FE4F0546DFF85A
:10184000E48350F8081B0024F64FC943019005F1CA
:101850002800264608F12408009008011DD4A86E2F
:1018600050B1B0F5801F0CD0B0F5001F0ED0B0F510
:10187000401F1ED001240FE0386840F4003038606B
:1018800017E00198022101F0A9FE03E0009802216F
:1018900001F034FF04000CD026462888C043C00560
:1018A00023D4A86D05281ED2DFE800F00C11161B0A
:1018B0001B00AA6ED8F8001021F440111143C8F89B
:1018C0000010EAE7386840F40030386009E0019819
:1018D000002101F083FE03E00098002101F00EFFDB
:1018E000044674B100E0012426462888C0438005E0
:1018F00028D4E86D80281ED00CDC90B140280ED191
:1019000014E0AA6DD8F8001021F007011143C8F8BF
:101910000010EAE7C02813D0B0F5807F10D0012472
:101920000FE0386840F40030386009E00198002189
:1019300001F054FE03E00098002101F0DFFE0446B0
:101940009CB126462888DFF8DC92C04309F12C09B7
:1019500040052CD4D5F8A800B0F5800F20D00DDCC0
:10196000A0B1B0F5001F0FD115E0EA6DD8F8001056
:1019700021F4E0711143C8F80010E3E7B0F5C00F9F
:1019800013D0B0F5000F10D001240FE0386840F4F8
:101990000030386009E00198002101F01FFE03E0EB
:1019A0000098002101F0AAFE04467CB12646288852
:1019B000C04300052DD4D5F8AC00B0F1007F21D094
:1019C0000EDCA8B1B0F1807F10D116E0D5F8A820C8
:1019D000D9F8001021F460011143C9F80010E6E7BE
:1019E000B0F1407F13D0B0F1806F10D001240FE030
:1019F000386840F40030386009E00198002101F0B7
:101A0000EDFD03E00098002101F078FE044674B17A
:101A100026462868C04380011FD4E86CD8B110283E
:101A20000FD0202812D0302815D0012414E0D5F88A
:101A3000AC20D9F8001021F0E0611143C9F8001082
:101A4000E7E7386840F40030386004E0019802218C
:101A500001F0C4FD044674B126462888C043C00482
:101A60002BD4286EB0F5005F20D00DDCA0B1B0F50E
:101A7000805F0FD115E06B48EA6C2030016821F0DF
:101A8000300111430160E8E7B0F5405F13D0B0F5D5
:101A9000804F10D001240FE0386840F400303860E7
:101AA00009E00198002101F099FD03E00098002170
:101AB00001F024FE04468CB126462888C0438004E9
:101AC00029D4686EB0F5403F23D010DC08B3B0F5E0
:101AD000803F14D0B0F5003F0FD115E02A6ED8F842
:101AE000001021F4E0411143C8F80010E5E7B0F51B
:101AF000802F0ED0B0F5A02F0BD001240AE0019862
:101B0000012101F06BFD03E00098012101F0F6FDD9
:101B1000044694B126462888C04340042AD4D5F808
:101B2000B000B0F1405F23D010DC08B3B0F1805FAB
:101B300014D0B0F1005F0FD115E06A6ED8F8001034
:101B400021F4E0211143C8F80010E4E7B0F1804F20
:101B50000ED0B0F1A04F0BD001240AE00198012172
:101B600001F03CFD03E00098012101F0C7FD0446AF
:101B700074B126462888C04300041FD4286FD8B10A
:101B8000B0F1805F0ED0B0F1005F10D0012414E0FE
:101B9000D5F8B020D9F8001021F0E0411143C9F880
:101BA0000010E7E7386840F40030386004E001983E
:101BB000012101F013FD044674B126462868C04394
:101BC000C0011ED4A86CD0B101280ED0022811D0BB
:101BD000032814D0012413E02A6FD8F8001021F054
:101BE00040511143C8F80010E8E7386840F400306D
:101BF000386004E00198022101F0F0FC0446ACB129
:101C000026462868DFF81CB0C043ABF11C0B40022D
:101C100052D40548016841F480710160FFF7D4F89F
:101C2000824611E02C44025800480258FA48AA6C37
:101C3000016821F0030111430160E2E7FFF7C4F8F6
:101C4000A0EB0A00642835D8F4480068C005F5D533
:101C50008CBBDFF8C4A3B5F8B4100AF1240ADAF893
:101C6000000001F4407100F44070884211D0DAF8AD
:101C70000010DAF8002021F4407142F48032CAF8F2
:101C80000020DAF8002022F48032CAF80020CAF8D6
:101C90000010D5F8B400B0F5807F1AD1FFF794F8A2
:101CA000029012E0FFF790F80299411A41F2883051
:101CB00081420AD9032426462878DFF85CA3C04372
:101CC0000AF1080AC00721D03CE0DAF800008007DA
:101CD000E8D5D5F8B410C1F30120032858460DD03B
:101CE000016821F47C510160B5F8B420DAF80010E5
:101CF000C2F30B021143CAF80010DDE7C84A0368BB
:101D000002EA111223F47C511143ECE7E86F182822
:101D100016D005DCA0B1082808D0102804D10AE0AC
:101D200020280DD028280BD001240AE00198012199
:101D300001F054FC03E00098012101F0DFFC0446AF
:101D400064B126462878C04380071ED4A86F0628B1
:101D500019D2DFE800F0160C11161616EA6FDAF841
:101D6000001021F038011143CAF80010EAE7019889
:101D7000012101F033FC03E00098012101F0BEFCD9
:101D800004467CB100E0012426462878C043400781
:101D90001FD4D5F89400062819D2DFE800F0160CFD
:101DA00011161616AA6FDAF8001021F00701114378
:101DB000CAF80010E9E70198012101F00FFC03E0E7
:101DC0000098012101F09AFC0446A4B100E001242E
:101DD00026462878C04380062BD4D5F89000B0F171
:101DE000405F24D011DC10B3B0F1805F15D0B0F1AA
:101DF000005F10D116E0D5F89420D9F8001021F03A
:101E000007011143C9F80010E3E7B0F1804F0ED08D
:101E1000B0F1A04F0BD001240AE00198002101F09D
:101E2000DDFB03E00098022101F068FC044694B158
:101E300026462878C04340062BD4D5F89C00B0F540
:101E4000406F24D011DC10B3B0F5806F15D0B0F521
:101E5000006F10D116E0D5F89020DAF8001021F0CC
:101E6000E0411143CAF80010E3E7B0F5805F0ED0FF
:101E7000B0F5A05F0BD001240AE00198002101F029
:101E8000ADFB03E00098022101F038FC044694B158
:101E900026462878C04300062BD4D5F8A000B0F51C
:101EA000C04F24D011DC10B3B0F5005F15D0B0F5F1
:101EB000804F10D116E0D5F89C20D9F8001021F4FD
:101EC000E0511143C9F80010E3E7B0F5004F0ED020
:101ED000B0F5204F0BD001240AE00198002101F059
:101EE0007DFB03E00098022101F008FC044654B198
:101EF00026462878C04300071ED4D5F88400B0F5E4
:101F0000805F0AD00FE0D5F8A020D9F8001021F4A6
:101F100060411143C9F80010EBE70098022101F07D
:101F2000EDFB00B10126D5F88420DAF8001021F489
:101F300040511143CAF800102878C043C00613D49A
:101F4000D5F89800B0F5807F05D10098022101F006
:101F5000D5FB00B10126D5F89820D9F8001021F45E
:101F600040711143C9F800102868C043000316D41B
:101F7000D5F8A40038B1B0F5803F09D0B0F5003FE6
:101F80000BD001240AE00198002101F027FB03E0B7
:101F90000098022101F0B2FB04468CB12646286865
:101FA000C043400322D4D5F88800B0F5801F11D07B
:101FB000B0F5001F13D0B0F5401F15D0012414E078
:101FC000D5F8A420D9F8001021F440311143C9F804
:101FD0000010E4E7386840F40030386004E000980E
:101FE000012101F08BFB04465CB126462868C04302
:101FF000C00323D4286DA8B1B0F5803F17D00124C9
:102000001BE0D5F88820DAF8001021F440111143C4
:10201000CAF80010EAE700004C4402580048025891
:10202000CFFFFF00386840F40030386004E00198CA
:10203000022101F0D3FA0446E4B126462868C043E1
:10204000800005D40098022101F058FB00B1012660
:102050002868C04380031BD4D5F88000B0B1B0F528
:10206000807F0FD0B0F5007F10D0B0F5407F0DD04D
:1020700001240CE05A482A6D016821F48031114393
:102080000160DBE7386840F400303860ECB3264686
:102090002868C043C00207D46A6FD8F8001021F046
:1020A00000411143C8F800102868C043C00008D49C
:1020B000D5F8B820DBF8001021F480411143CBF8AB
:1020C00000102868C043800207D4EA6ED8F80010D8
:1020D00021F080711143C8F800102868C043400007
:1020E0000CD4DBF8001021F40041CBF80010DBF831
:1020F0000010D5F8BC201143CBF800102868C0436D
:1021000008D437486A6D016800E018E021F04051BA
:10211000114301602868C043000208D4D5F88C2020
:10212000DAF8001021F440011143CAF800102879B0
:102130000024C04300F0010020430AD00FE0D5F88E
:102140008020DAF8001021F440711143CAF8001021
:102150009EE70198002101F041FA00B10646287976
:10216000C04300F00200204305D10198012101F095
:1021700035FA00B106462879C04300F00400204338
:1021800005D10198022101F029FA00B1064628790B
:10219000C04300F00800204305D10098002101F061
:1021A000ADFA00B106462879C04300F01000204384
:1021B00005D10098012101F0A1FA00B10646287965
:1021C000C04300F02000044304D10098022101F034
:1021D00095FA00B916B10120BDE8FE8F0020FBE79B
:1021E0004C4402582DE9F05F04000F467ED0DFF822
:1021F0003882D8F8000000F00F00B8420CD2D8F8AE
:10220000001021F00F013943C8F80010D8F8000081
:1022100000F00F00B84269D12078844D40070AD5FC
:102220002069296801F07001884204D9296821F0E9
:1022300070010143296020787C4E361D00070AD5C5
:102240006069316801F07001884204D9316821F079
:102250007001014331602078C0060AD5A069316859
:1022600001F4E061884204D9316821F4E06101435E
:1022700031602078DFF8B4B180060BF1080B0CD583
:10228000E1695846DBF8002002F07002914204D95F
:10229000026822F070020A430260207880070AD5A3
:1022A000E068296801F00F01884204D9296821F00B
:1022B0000F01014329602078C0073ED05B49A26826
:1022C0002868183920F4706010432860606802287C
:1022D00018D0032819D00968012819D04907002906
:1022E0004ADADFF848A1AAF1080A00E044E0DAF887
:1022F000002022F007020243CAF80020FEF764FD26
:10230000814612E009688903E9E709688901E6E77F
:10231000C905E4E7FEF758FDA0EB090141F288305A
:10232000814202D90320BDE8F09F6168DAF800001D
:1023300000F03800B0EBC10FECD1207880070AD54F
:10234000E068296801F00F01884204D2296821F071
:102350000F0101432960D8F80010404601F00F0139
:10236000B9420BD9016821F00F01394301600068BF
:1023700000F00F00B84201D00120D4E720784007D8
:102380000AD52069296801F07001884204D22968C1
:1023900021F0700101432960207800070AD56069A7
:1023A000316801F07001884204D2316821F0700177
:1023B000014331602078C0060AD5A069316801F474
:1023C000E061884204D2316821F4E0610143316068
:1023D000207880060CD5E1695846DBF8002002F031
:1023E0007002914204D2026822F070020A43026035
:1023F00000F09AF80E492A682B68C2F3032203F012
:102400000F038A5CC95C02F01F0201F01F01D0407B
:10241000084A20FA01F1116007490860074800687E
:10242000BDE8F05FFEF708BE0020005218440258D5
:10243000C8A1030818000020140000200C00002090
:1024400070B5144C3F220260124A24680832131DF2
:10245000114D04F00704446016681C1D06F47066F4
:102460008660166806F00F06C660126802F07002F9
:1024700002611A6802F0700242611A6802F4E062B6
:102480008261226802F07002C261286800F00F00C9
:10249000086070BD104402580020005230B500F0B2
:1024A00043F80B4A0B490C4B15681468C5F303221B
:1024B00004F00F048A5C095D02F01F0201F01F01A5
:1024C000D040064A20FA01F119601060084630BD7C
:1024D00018440258C8A10308180000201400002066
:1024E00000B5FFF7DBFF05490968054AC1F3021192
:1024F000515C01F01F01C84000BD00001C4402589F
:10250000C8A1030800B5FFF7C9FF05490968054AD6
:10251000C1F30221515C01F01F01C84000BD000061
:102520001C440258C8A10308454970B545480968CC
:10253000434B103B11F0380208D00111082A03D098
:10254000102A0BD0182A0BD0084670BD19688906CE
:10255000FBD51968C1F3C101C84070BD3A4870BDD0
:102560003749374D18310C1D24350A68096826682B
:102570002D6802F0030406F00102C1F30511C5F352
:10258000CC0515FB02F200EE102AB8EE400AE9B3C2
:102590002F4ADFED2E0AB7EE001A6CB1DFED2D1ACF
:1025A000012C01D0022C43D002EE101A1068F8EE74
:1025B000422A81EEA22A1EE01C68A40611D51B68DF
:1025C00001EE901A1168C3F3C103F8EE612AD840F6
:1025D00001EE900AC1F30800F8EE611A81EEA22A1A
:1025E0000BE001EE901ADFED1C2A00BFF8EE611A35
:1025F000106882EEA12AC0F3080001EE900AF8EEFE
:10260000611A40EE201A31EE810A00E015E022EE58
:10261000000A1068C0F34620401C00EE900AF8EE55
:10262000600A80EE201ABCEEC10A10EE100A70BDDE
:1026300001EE901ADFED092AD8E7002070BD0000F6
:10264000104402580090D00340787D01000000390A
:10265000304402580024744A0024744C20BCBE4B01
:102660002DE9F05F04007DD0FF4F2078FE4D183734
:10267000DFF8F493103DC00748D0D9F8000039685E
:1026800000F03800102815D0182803D101F00300FD
:1026900002280FD06068B0F5803F12D010B1B0F5BD
:1026A000A02F18D0286820F480302860286820F4F3
:1026B000802009E02868800328D560680028D2D0EF
:1026C00024E0286840F480302860606888B1FEF714
:1026D0007BFB064609E0286840F480202860F0E78C
:1026E000FEF772FB801B64286FD828688003F7D53B
:1026F0000CE0FEF769FB064605E000BFFEF764FB51
:10270000801B6428F0D828688003F7D4207841F231
:102710000308D54E0C3E800769D5D9F8000039680A
:1027200010F038000ED0182801D188070AD0E068D0
:1027300090B3296821F0190101432960FEF744FB99
:10274000824631E02868400702D5E06800288AD038
:10275000E168286820F0190008432860FEF734FB80
:10276000824607E0DFE000BFFEF72EFBA0EB0A0089
:102770000228B9D828684007F6D500BFFEF71EFB2F
:1027800040451BD82069402812D0316821F47C31A3
:1027900041EA003030602AE018E000BFFEF714FB89
:1027A000A0EB0A0002289FD828684007F6D5E5E785
:1027B000306820F47C3040F40030EBE7207C316856
:1027C00021F0FE4141EA0060E4E70DE1286820F0D5
:1027D00001002860FEF7F8FA824605E0FEF7F4FAF9
:1027E000A0EB0A0002288DD828684007F6D420788C
:1027F000C0065DD5D9F80000DFF86CB2396800F08A
:102800003800ABF1040B082810D0182803D101F0D0
:10281000030001280AD0E0690028286838D040F079
:1028200080002860FEF7D0FA824623E02868C005C1
:1028300023D5E069802876D11FE0206A202821D0A6
:10284000316821F0F84141EA8060306030E000BF3B
:1028500094F82010DBF8002022F07C5242EA01615B
:10286000CBF8001024E000BFFEF7AEFAA0EB0A00A0
:10287000022898D82868C005F6D5FEF79FFA40458B
:10288000E6D8DAE7306820F0F84040F08040DCE736
:1028900020F080002860FEF797FA064605E000BFAA
:1028A000FEF792FA801B02289DD82868C005F7D44D
:1028B0002078000729D56C4861696430002980467A
:1028C000016811D041F001010160FEF77DFA064672
:1028D00005E000BFFEF778FA801B0228C9D8D8F8B7
:1028E00000008007F6D510E021F001010160FEF73D
:1028F0006BFA064605E000BFFEF766FA801B022869
:1029000072D8D8F800008007F6D42078800623D546
:10291000A0690028286810D040F480502860FEF795
:1029200053FA064605E036E1FEF74EFA801B022810
:102930005AD828688004F7D50EE020F4805028602B
:10294000FEF742FA064604E0FEF73EFA801B022834
:102950004AD828688004F7D4207840074FD5DFF89C
:102960000C81D8F8001041F48071C8F80010FEF70F
:102970002BFA064605E000BFFEF726FA801B642806
:1029800032D8D8F80000C005F6D5374EA0686036BA
:1029900001280AD008B1052813D0306820F00100C2
:1029A0003060306820F0040002E0306840F0010040
:1029B0003060A06841F2883A90B1FEF705FA80468F
:1029C0000AE0306840F004003060EEE7FEF7FCF902
:1029D000A0EB0801514507D830688007F6D50EE016
:1029E000FEF7F2F9804607E084E000BFFEF7ECF95D
:1029F000A0EB080151457DD830688007F6D4606AA5
:102A0000B0B3DFF86480D9F8001008F120084FF661
:102A1000F87B08F10409C1F3C2010329A8F1040AF3
:102A200069D00228286820F08070286003D0FEF763
:102A3000CBF9044684E0FEF7C7F9064605E000BF7F
:102A4000FEF7C2F9801B022877D828688001F7D4E6
:102A5000E26A40F2F331386854F8283F884340EA8C
:102A600002101843386004E010440258004802582D
:102A7000B5E0217B434622894FF4FE0C208A4FF0BB
:102A8000FE474902267D521E401EA1F50071C2F389
:102A900008088AB2761E0CEA004042EA08020243A5
:102AA000504607EA06610A431A60DAF8002022F06D
:102AB0000102CAF80020D9F80020266A22EA0B0297
:102AC00042EAC602C9F80020DAF80010A26921F033
:102AD0000C011143CAF800100168E26921F00201FB
:102AE00011430160016841F480310160016841F4E3
:102AF000003101E021E027E00160016841F480211C
:102B00000160016841F001010160286840F08070B7
:102B10002860FEF759F9044605E000BFFEF754F9B6
:102B2000001B022809D828688001F7D557E000BFAC
:102B3000FEF74AF9001B022802D90320BDE8F09FE6
:102B400028688001F4D44AE039680128D8F80000E8
:102B500021D0A26A01F0030393421CD1E26AC1F3BF
:102B600005118A4217D1216BC0F30802491E8A421F
:102B700011D1616BC0F34622491E91420BD1A16B6A
:102B8000C0F30642491E914205D1E16BC0F30660D5
:102B9000491E814201D00120D0E7A16C4E46D9F8F0
:102BA0000000C0F3CC00814219D0DAF8000055468D
:102BB00020F00100CAF80000FEF706F94FEA00070E
:102BC000FEF702F9B842FBD0A26C306820EA0B0095
:102BD00040EAC2003060286840F001002860002010
:102BE000ACE7000070B504000D4603D094F82C004B
:102BF00010B107E0012070BD002084F82D002046B0
:102C000000F018F8022084F82C002068211DFDF740
:102C10002FFDD4E900022946FDF77CFD044801217F
:102C2000026842F00042026084F82C10002070BD5F
:102C300000400052FDF730BF10B5044690F82C005C
:102C4000022804D094F82C00012801D0012010BDE6
:102C5000022084F82C002068FDF73FFD012084F855
:102C60002C00002010BD000070B5044690F82C0028
:102C70000D46022804D0012803D0052801D00120E8
:102C800070BD022084F82C002068FDF72FFD286815
:102C9000022805D05FF0010084F82C00002070BDF0
:102CA0000520F9E770477047704710B5040003D05E
:102CB00094F83D0010B107E0012010BD002084F819
:102CC0003C00204600F022F8022084F83D002068F5
:102CD000211D00F0B9FE012084F8480084F83E0070
:102CE00084F83F0084F8400084F8410084F84200F2
:102CF00084F8430084F8440084F8450084F84600D2
:102D000084F8470084F83D00002010BD70470000A3
:102D100090F83D10012901D001207047174A022187
:102D200080F83D100168CB6843F00103CB60006878
:102D3000904214D0B0F1804F11D0114988420ED08A
:102D4000104988420BD01049884208D00F49884268
:102D500005D00F49884202D00E49884207D18168C8
:102D60000D4A1140062906D0B1F5803F03D0016815
:102D700041F00101016000207047000000000140A7
:102D80000004004000080040000C00400004014026
:102D900000180040004001400700010070472DE985
:102DA000F041044600680027C6680569A90713D5E5
:102DB000B10711D5FA1E02610121217720688069CF
:102DC0008007204602D0FFF7E9FF04E000F08BF80F
:102DD000204600F089F82777680716D5700714D5C4
:102DE000226802206FF00401116120772068806959
:102DF00010F4407F204602D0FFF7D0FF04E000F03F
:102E000072F8204600F070F82777280715D53007AC
:102E100013D5226804206FF0080111612077206823
:102E2000C0698007204602D0FFF7B8FF04E000F039
:102E30005AF8204600F058F82777E80616D5F0062D
:102E400014D5226808206FF01001116120772068E6
:102E5000C06910F4407F204602D0FFF79FFF04E0D6
:102E600000F041F8204600F03FF82777E80708D047
:102E7000F00706D021686FF001000861204600F0DD
:102E800035F8280601D4A80408D5300606D52168EF
:102E90006FF4025008612046FFF705FFE80508D5EA
:102EA000300606D521686FF4807008612046FFF770
:102EB000F9FE680608D5700606D521686FF0400057
:102EC0000861204600F022F8A8060AD5B00608D509
:102ED00021686FF0200008612046BDE8F041FFF74F
:102EE000E3BEBDE8F08170477047000010B5006890
:102EF0000549884206D1FEF769F8BDE81040012077
:102F00002AF050B910BD000000100040704730B5E5
:102F100090F88410012918D0012280F884202421FF
:102F2000C0F888100022202401680B680D6823F087
:102F3000005325F001050D60426601680B60C0F882
:102F4000884080F88420104630BD022030BD70B526
:102F5000044690F8840001281DD0012284F88420C2
:102F60002420C4F8880020680568026822F0010265
:102F700002602068826822F060620A438260204614
:102F800000F0C8FD2268202100201560C4F88810D8
:102F900084F8840070BD022070BD70B5044690F8BE
:102FA000840001281DD0012284F884202420C4F844
:102FB000880020680568026822F00102026020682B
:102FC000826822F060420A438260204600F0A2FD3F
:102FD0002268202100201560C4F8881084F884003D
:102FE00070BD022070BD10B5040003D0D4F8880075
:102FF00010B107E0012010BD002084F884002046B5
:1030000000F026F82420C4F888002068016821F028
:1030100001010160A06A10B1204600F09DFD20462C
:1030200000F07EFE0128E6D02068416821F490413E
:1030300041602068816821F02A0181602068016870
:1030400041F0010101602046BDE8104000F0E8BDFC
:1030500010B5B6B00446142130A8FDF77EFAC021A1
:103060006846FDF77AFA1A49206888422DD1002077
:103070001F9001210446CDE900106846FEF7DCFBF5
:1030800008B1FDF7E4FA1348016841F0100101604E
:10309000006800F0100035900E481038016841F0CB
:1030A0000101016000680DF1C00C022100F0010077
:1030B00035904FF4C06007238CE8130003220648C4
:1030C000CDE9332330A9FDF75DFD36B010BD00001A
:1030D00000100140F044025800000258FEE70000D2
:1030E0000148FEF719B80000200700202DE9FC4F29
:1030F00082468D88894693468820DAF800108C2312
:1031000000EBCB149422A646C868C0F30B402844B9
:103110000D59040403EBCB1005F47045CDE9000410
:1031200041F80E509C23D9F8004003EBCB164FF02A
:10313000AC0C982340F2077702EBCB11A02503EBF0
:10314000CB1205EBCB13DAF800500CEBCB1CD5F807
:103150000C80C8F30B4808F10108A044019C48EA20
:10316000040845F80E80DAF80040B9F80C50D4F89D
:103170000C802058C8F30A08454400F470480098B1
:1031800044F80080DAF80040D9F80800D4F80C8040
:10319000C8F30A0808F101088044009848EA054885
:1031A00044F80080DAF80000445824F00704445042
:1031B000DAF80040D9F81000605099F8310099F819
:1031C0001810040299F83200000440EA016099F8EE
:1031D000301021430143DAF800008151DAF8000091
:1031E000815821F0FF018150DAF80000D9F814105D
:1031F0008150DAF80000C158B943C150DAF8001024
:10320000D9E907021043C850DAF80010D9F82400B1
:1032100041F80C00D9F81000C8B301283AD00428AE
:103220003AD0022838D0032836D0072834D00120DD
:10323000DAF80030B02505EBCB11B42284245D58B8
:1032400002EBCB1205F0E0255D50D9E9003504EB27
:10325000CB14EB1AB9F8285043434543DAF8000081
:10326000DB1D43EA05434350DAF8000081586FF351
:103270000A018150DAF80000D9F82C108150DAF8F0
:103280000000015941F001010151BDE8FC8FFFE749
:103290000420CDE70320CBE70220C9E71048012234
:1032A0000E4B002110B50360C0E90112C160C0E9F6
:1032B0001112C164016541658165C165FDF776FB49
:1032C00008B1FDF7C4F906480121FDF77DFA002891
:1032D00003D0BDE81040FDF7BAB910BD0010005290
:1032E00030060020F0B58BB01C216846FDF735F99B
:1032F0001A480021184E4FF0040C07914FF0010EB0
:1033000008912025099102220A914FF4C0770660A6
:10331000402641600723C0E902EC05614FF4006CD0
:10332000C0F820C0D50246610524C0E90671C0E995
:1033300009518DE81C00CDE90442694603930692C9
:10334000FFF750FC08B1FDF782F9044807A900F027
:1033500065FA0BB0F0BD0000404100529806002015
:1033600070B586B014216846FDF7F7F83A48016851
:1033700041F480710160016801F480710591016878
:1033800041F480610160016801F480610591016888
:1033900041F010010160016801F010010591016820
:1033A00041F002010160016801F00201059101682C
:1033B00041F400710160016801F400710591016838
:1033C00041F001010160016801F00101059101680E
:1033D00041F080010160016801F080010591016800
:1033E00041F004010160016801F0040105910168E8
:1033F00041F040010160016801F040010591016860
:1034000041F008010160016801F0080105910168BF
:1034100041F02001016000680122104E150200F009
:103420002000294605903046FDF7C2FC012003210B
:103430000024CDE90050CDE9024169463046FDF750
:10344000A1FB80206946CDE9000405480294FDF700
:1034500099FB06B070BD0000E0440258000002581D
:10346000001C02581348002110B5114C0123124AC8
:103470000460C0E90121C0E9033141618161C1619A
:103480000162FDF7FDFC08B1FDF7E1F809480021F4
:10349000FDF7A0FC08B1FDF7DAF806480021FDF7BA
:1034A000C5FC002803D0BDE81040FDF7D0B810BD22
:1034B00000540040CC060020DB3FB000F0B58DB0DA
:1034C00034216846FDF749F827480024254D2F216F
:1034D000022240F2A736872340F202270560222508
:1034E000446040F2CF3C846040F20F2EC46004611F
:1034F000143080E8EE5080F8204080F8214080F8B9
:1035000022401438FDF76CFE08B1FDF7A0F84FF427
:1035100048704FF4F07101270497CDE90040CDE9E0
:103520000A0107A8BA0205234D06CDE9024180E849
:103530002C00FF260C48CDE905648DF830400022B0
:103540008DF8314069468DF83240FDF7BBFD08B17A
:10355000FDF77DF8044840F20321FDF72DFF0DB083
:10356000F0BD000000100050200700201848002186
:1035700010B5164C0C224FF4E1330460C0E9013160
:10358000C160C0E904128161C1610162416281626E
:10359000FFF729FD08B1FDF75AF80D480021FFF7A4
:1035A000FCFC08B1FDF753F809480021FFF7CFFCF8
:1035B00008B1FDF74CF80648FFF7A9FC002803D036
:1035C000BDE81040FDF743B810BD000000100140F9
:1035D000C8070020FEE7FEE7704700002DE9F0472E
:1035E000454D044689464FF0000A2868C0438007CD
:1035F0000AD0414E283E306820F080603060FDF7F0
:10360000E3FB0746B04608E00120BDE8F08700BFB5
:10361000FDF7DAFBC01B022867D8D8F800000001CC
:10362000F6D4206829684FF4FE0721F47C313E026D
:1036300041EA00302860207AA389B4F804C040022F
:103640002D4D2D495B1E227CACF1010C1035091D5E
:10365000A0F5007080B2521ECCF3080C07EA0343B9
:1036600040EA0C00184306EA02621043286008682A
:10367000626920F0C000104308600A68A06922F067
:10368000200202430A60281D0A6822F010020A6024
:1036900002684FF6F873E4699A4342EAC402026092
:1036A0000868B9F1000F40F010020A6011D00868F4
:1036B000B9F1010F11D040F400100860D8F80000F3
:1036C000444640F08060C8F80000FDF77DFB0546E9
:1036D0000DE0086840F40020EFE740F48010ECE7CC
:1036E000FDF772FB401B022801D903208DE72068FB
:1036F0000001F5D5504688E7284402582DE9F047E7
:10370000454D044689464FF0000A2868C0438007AB
:103710000AD0414E283E306820F080503060FDF7DE
:1037200053FB0746B04608E00120BDE8F08700BF24
:10373000FDF74AFBC01B022867D8D8F800008000BC
:10374000F6D4208829684FF4FE0721F07C713E02F0
:1037500041EA00502860207AA389B4F804C04002EE
:103760002D4D2D495B1E227CACF1010C1835091D35
:10377000A0F5007080B2521ECCF3080C07EA034398
:1037800040EA0C00184306EA026210432860086809
:10379000626920F44060104308600A68A06922F45E
:1037A000007202430A60281D0A6822F480720A60CF
:1037B00002684FF6F873E4699A4342EAC402026071
:1037C0000868B9F1000F40F480720A6011D00868EF
:1037D000B9F1010F11D040F080700860D8F80000F6
:1037E000444640F08050C8F80000FDF7EDFA054669
:1037F0000DE0086840F48000EFE740F40000ECE7DB
:10380000FDF7E2FA401B022801D903208DE720686A
:103810008000F5D5504688E7284402582DE9F84342
:1038200010270C4600254FF6FF7801260095C4E9C5
:103830000067C4E9026581464246FFF715FA012098
:10384000FDF718F902204246C4E90007C4E9026501
:1038500021464846FFF708FA032142460820C4E9FA
:103860000017C4E9020521464846FFF7FDF94FF469
:103870000C70009004214246C4E90017C4E90260BC
:1038800021464846FFF7F0F9484640F20361BDE89B
:10389000F843FFF7D1B970477047000070B59CB08E
:1038A0004C216846FCF759FE202113A8FCF755FE71
:1038B0000220FDF741FE214800242149026842F41C
:1038C0004042026002680A6842F001020A60096828
:1038D00001F001011B9101688904FCD50DF1280C50
:1038E000022009900521C0228CE80700C6030F9032
:1038F00008250D9001230E90CDE91054CDE9003636
:1039000068461294FEF7ACFE08B172B6FEE740209E
:103910001A903F210301CDE916500322CDE9180387
:1039200013AB13A883E816000421FEF75BFC002804
:1039300001D072B6FEE71CB070BD000018480258F6
:103940002C0400583348F0B5334A016841F4700143
:103950000160106800F00F00072804D2106820F002
:103960000F00C01D10602D4900202C4C10340B6836
:103970002B4D43F001030B6020600B682B400B6064
:10398000136803F00F03072B04D9136823F00F0308
:10399000DB1D1360214C234A1834234B261D371D91
:1039A00020601E4C214D28343060261D3860371DA4
:1039B00023603B1D35601C1D3A60251D2E1D1860BF
:1039C000331D22602860326018600A68134B184C5F
:1039D00022F4802260330A60186020686FF30F00C1
:1039E000B0F1005F03D213490120C1F808010B4870
:1039F000D4300168C9040BD4026843F2D2010E4BE3
:103A000042F4805202601960016821F48051016023
:103A1000F0BD000088ED00E0002000520044025894
:103A20007FEDF6EA80020101000202020000FF01C0
:103A30000010005C00800051004000520148FFF778
:103A4000AEB900005C0800202DE9F047294B4FF08B
:103A5000804A294D02689842284E294F294C09D0A6
:103A6000504507D0A84205D0B04203D0B84201D09B
:103A7000A04205D1D1F804C022F070024CEA020243
:103A8000DFF884C0DFF884809842DFF884900FD09C
:103A900050450DD0A8420BD0B04209D0B84207D053
:103AA000A04205D0604503D0404501D0484503D130
:103AB000CD6822F440722A438E684D6922F080025C
:103AC000C6620E682A439842866207D0A04205D09B
:103AD000604503D0404501D0484501D109690163E3
:103AE0000368012143F00403036041610260BDE803
:103AF000F087000000000140000400400008004082
:103B0000000C00400004014000400140004401401E
:103B10000048014030B5416EB9B101680D4B03F169
:103B200008048A688968C2F34262490F5D5C615C7F
:103B30002D01B5FBF1F1A0F86A10995CA25C0901B6
:103B4000B1FBF2F1A0F8681030BD0121A0F86A10B5
:103B5000F8E70000B8A1030890F82810090706D577
:103B60000168836B4A6822F400421A434A6090F865
:103B70002810C90706D00168C36A4A6822F40032D7
:103B80001A434A6090F82810890706D50168036B2C
:103B90004A6822F480321A434A6090F82810490794
:103BA00006D50168436B4A6822F480221A434A60B2
:103BB00090F82810C90606D50168C36B8A6822F4FC
:103BC00080521A438A6090F82810890606D5016849
:103BD000036C8A6822F400521A438A6090F8281015
:103BE000490611D50168436C4A6822F480121A43D1
:103BF0004A60416CB1F5801F06D10168836C4A6848
:103C000022F4C0021A434A6090F82810090606D52B
:103C10000168C26C486820F4002010434860704777
:103C20002DE9F84300250446C0F89050FDF7CCF884
:103C30008046206820266FF07E470068000713D575
:103C40000022434631042046009700F03FFA58B165
:103C5000216851E8000F20F0800041E80002002AAE
:103C6000F6D1C4F8886021E020680068400722D5BA
:103C7000002243464FF480012046009700F026FAC8
:103C8000C8B1206850E8001F21F4907140E800128C
:103C9000002AF6D12068083050E8001F21F0010109
:103CA00040E80012002AF5D1C4F88C60032084F8A3
:103CB0008450BDE8F883C4F88860C4F88C60E56679
:103CC0002567002084F88450F3E7000010B50268EF
:103CD00052E8001F21F4907142E80013002BF6D146
:103CE0000E4B0268083252E8001F194042E80014E7
:103CF000002CF6D1C16E012908D1026852E8001FDC
:103D000021F0100142E80013002BF6D100212022FF
:103D1000C0F88C20C166416710BD0000FEFFFFEFB8
:103D20002DE9F04304468068D84E87B0D84B21680F
:103D3000D4E90427D4F81CC010430A68002547EAD8
:103D40000C073843324002430A602068E268416849
:103D500021F44051114341602268A1699A4201D087
:103D6000206A01439768DFF82CC3CB4ECB4807EAA3
:103D70000C070F4397602168676ACA6A22F00F0236
:103D80003A43CA622268B2420ED1006800F038009D
:103D9000182873D047DCB8B3082879D010286FD121
:103DA00078E028287ED17BE0BD498A4209D10068AD
:103DB00000F00700062875D2DFE800F0546A6C6E48
:103DC0007072B8498A4209D1006800F007000628DD
:103DD00068D2DFE800F0475D5F616365B2498A42FF
:103DE00009D1006800F0070006285BD2DFE800F088
:103DF0003A5052545658AD498A420BD1006800F0EF
:103E0000070006284ED200E010E0DFE800F02B416A
:103E100043454749A6498A420AD1006800F0380064
:103E2000182839D0B7DD2028BBD13CE001203AE08A
:103E3000A0498A4209D1006800F00700062831D263
:103E4000DFE800F01026282A2C2E9B498A420BD14D
:103E5000006800F00700062824D2DFE800F003190C
:103E60001B1D1F2100201EE09A421BD18B48001D04
:103E7000006800F00700062814D202E00CE007E01A
:103E800010E0DFE800F0030507090B0D02200AE04F
:103E9000042008E0082006E0102004E0202002E0D2
:103EA000402000E080208549DFF814829A42854A4C
:103EB0004FF400434FEA21174FF000064ED110286F
:103EC0001AD006DC022809D004280BD008287CD19F
:103ED0000DE020283ED0402877D13DE0FDF756FB8D
:103EE000014610E06846FDF763FB01990BE003A86B
:103EF000FDF700FC049906E01068800605D51068FF
:103F0000C0F3C100C140002970D0606A676838F80A
:103F1000102007EB4703B1FBF2F0834255D8B0EB1A
:103F2000073F52D8002308461946FCF749FA0246D3
:103F30007808130E120243EA012110183A46714123
:103F40000023FCF73DFA604AA0F5407191423CD84D
:103F500021688FE03946D8E71946D6E7D4F81CC067
:103F60004FF6EF799C4546D1082819D005DC58B1A9
:103F700001280CD0042875D10DE0102815D0202878
:103F800035D040286ED134E0FEF7AAFA01E0FEF702
:103F9000B9FA014610E06846FDF70AFB01990BE00B
:103FA00003A8FDF7A7FB049906E01068800604D576
:103FB0001068C0F3C100C140C1B1636A606838F8DD
:103FC0001330B1FBF3F1490000E04BE001EB50018D
:103FD000B1FBF0F0A0F11001494543D84FF6F07362
:103FE0002168C0F342021840104343E043E03946E1
:103FF000E3E71946E1E7082819D005DC58B10128A4
:104000000CD004282ED10DE0102815D020282BD05C
:10401000402827D12AE0FEF763FA01E0FEF772FAA2
:10402000014610E06846FDF7C3FA01990BE003A8CA
:10403000FDF760FB049906E01068800604D510685F
:10404000C0F3C100C140B1B1636A606838F8133091
:10405000B1FBF3F101EB5001B1FBF0F0A0F1100165
:10406000494505D9012506E03946EDE71946EBE754
:10407000216880B2C8600120A4F86A00A4F8680032
:1040800028466667A66707B0BDE8F083F369FFCFEF
:10409000000C0058FFF4FF11001001405444025876
:1040A0000044004000480040004C004000500040E8
:1040B0000014014000780040007C00400090D003D4
:1040C000A0A1030800440258FFFC0F002DE9F047AF
:1040D000994617460D460446089E4FF0000833E007
:1040E000701C31D0FCF770FEA0EB0900B04218D86C
:1040F000BEB120680168490726D5802D24D0402D07
:1041000022D0C169C94309070DD40825056220469C
:10411000FFF7DCFDC4F89050012084F88480BDE8EE
:10412000F0870320FBE7C069C04300050CD4216879
:104130004FF4006008622046FFF7C8FD2021C4F854
:10414000901084F88480ECE72068C06935EA0000AC
:1041500004D00020B842C3D00020E0E70120F9E7F6
:10416000FEE7090700284FEA116104DB00F1E020B7
:1041700080F80014704700F00F0000F1E02080F894
:10418000141D704770B5002504466FF02F0608E037
:10419000206805EB8502411C216006EB4202007895
:1041A00085182068007800F02CF80028F0D1284607
:1041B00070BD70B514460D461BB9114617F068F86E
:1041C0000346142C03FB05F00ED0E11F03290AD887
:1041D000072C0DD0082C0DD0092C0DD00A2C0DD099
:1041E000002100EB810070BD590801FB050070BD86
:1041F0000221F6E70421F4E71021F2E74FF4807181
:10420000EFE73038092801D80120704700207047B7
:104210002DE9FC5F9B4681460CAB8A46DDE91160C7
:10422000DDE90F5793E812105FEA80784FF0300312
:104230001AD45EB15FEAC07808D000F00C0858EAE2
:104240000C0803D0761E01E00B55641CBC4204D25E
:10425000202CF9D301E00B55641C5FEAC07803D031
:10426000B44201D2202CF6D35FEAC06825D55FEABC
:1042700040580AD44CB1BC4201D0B44205D1641EAE
:1042800003D0102D03D1641E04E0102D02D0022DA6
:104290000AD00EE0850603D4202C1ED2782506E035
:1042A000202C1AD2582502E0202C16D262250D555A
:1042B000641C202C11D20B55641C202C0DD2BCF197
:1042C000000F01D02D2306E0430701D52B2302E088
:1042D000030702D520230B55641CC846CDE900BA5C
:1042E00015468B468146AA46800714D1274607E02B
:1042F0002A46C4466D1C2020DDE90031E0477F1CC2
:10430000B742F5D307E02A466D1C641EDDE9003193
:104310001BF80400C047002CF5D15FEA897006D471
:1043200009E02A466D1C2020DDE90031C047A5EBDD
:104330000A00B042F5D32846BDE8FC9F2DE9F04FB6
:104340008FB099468B46924686464FF00002DDE9D3
:104350001818DDE91C63DDE91A4709B923F01003D9
:1043600007AD580500D5C9B1B1FBF4F004FB10103E
:10437000C0B20A2801D2303009E05FEA836C02D56E
:104380004FF0410C01E04FF0610C60440A38B1FB82
:10439000F4F1A854521C09B1202AE5D3CDF80880C5
:1043A0005946CDE90563CDE90052CDE903474B46B7
:1043B00052467046FFF72CFF0FB0BDE8F08F2DE995
:1043C000FF4F8FB01CACDDE9239594E8030820ACC7
:1043D00094E8C004002450EA010201D125F0100540
:1043E0000DF11C086A0502D550EA010217D03246C9
:1043F0003B46FBF7E5FFD2B20A2A01D2303206E093
:10440000AB0601D5412300E061231A440A3A08F8BB
:104410000420641C50EA010201D0202CE7D3CDE92E
:1044200000840FAFCDF808B0CDE90595CDE9036A5A
:1044300097E80F00FFF7ECFE13B0BDE8F08F9A424B
:1044400000D288547047704770B504000D4611D0F3
:104450008DB101F094F800280BD06168006912F06A
:1044600060F9E16B064628468847E1680844E06049
:10447000304670BDFEE7FEE72DE9FF4114461E46BB
:104480000D460746DDF828800A462146684610F0AA
:10449000F2FE00281BD0D4E9003C01990098A1EB62
:1044A0000C042A68C31A08FB04713044841A684655
:1044B0005D1810F0CDFE002107E0625C6B5C1A44D1
:1044C000FF2A00D9FF226254491C8142F5D3BDE87E
:1044D000FF814FF0000210B568B14B1E194200D0A9
:1044E000FEE70844401E9843B0F5003F03D20C2875
:1044F00000D80C200246104610BD00002DE9F04FF8
:10450000064691B0D6E9017096F821B0356880462C
:10451000F0680F90D6E906400E90D6E904A0099005
:104520000AA813F072FC96F8220008B10020C5E03A
:10453000BAF1000F06D04FF00000BBF1FD0F81462D
:1045400065D28AE0BBF1FD0F4FF0000016D21BE0F0
:1045500000260BE004EB460005EB46010AAA0088A2
:10456000ADF80400019813F099F8761CBE42F1DB17
:104570000F9805440E98044409F101004045814616
:10458000E6DB11B0BDE8F08F40458146F9DA002640
:1045900013E000BF04EB46000AAA0088ADF804004F
:1045A0009DF8051011FB0BF005EB4601000A8DF894
:1045B0000500019813F072F8761CBE42EADB0F98F2
:1045C00005440E98044409F10100DDE7002614E0DB
:1045D00004EB46000AAA0088ADF808009DF809100F
:1045E0001AF8060011FB00F005EB4601000A8DF8F1
:1045F0000900029813F052F8761CBE42E8DB0F98CF
:1046000009F10109099905440E988A440444C145F9
:10461000DCDBB6E7002616E004EB46000AAA0088B9
:10462000ADF808009DF809101AF8060011FB00F11A
:1046300001FB0BF1080C8DF80900029805EB46010F
:1046400013F02CF8761CBE42E6DB0F9809F1010945
:10465000099905440E988A440444C145DADB90E781
:1046600000201DE004EB4901BAF1000F0888ADF805
:10467000080027D09DF809201AF8090012FB00F065
:1046800000FB0BF05FEA10408DF8090096F822203D
:1046900005EB490002990AAB03F034FD09F1010072
:1046A000B8428146DEDBBAF1000F01D009998A4495
:1046B0000F9805440E9804440398401C039040450D
:1046C000CEDB5EE79DF8091011FB0BF0000ADBE77B
:1046D0002DE9F04F064690F8220095B00028D6E963
:1046E000017096F821B035688046F0680E90D6E9E2
:1046F00006400C90D6E904900A9004D010A813F05C
:1047000098FB0020D1E0B9F1000F06D0BBF1FD0FFE
:104710004FF0000068D3834663E0BBF1FD0F4FF01C
:10472000000019D21EE000BF4FF000094E460BE01A
:1047300004EB460005EB8901427814F8160013F0EB
:10474000C2F9761C09F10109BE42F1DB0E9805445D
:104750000C9804440AF1010040458246E4DB15B0A0
:10476000BDE8F08F40458246F9DA4FF000094E4629
:104770000FE000BF04EB460005EB8901437814F815
:10478000160013FB0BF2120A13F09DF9761C09F1C7
:104790000109BE42EEDB0E9805440C9804440AF170
:1047A0000100DFE74FF0000A564610E004EB460137
:1047B00019F8063014F816004A7805EB8A0112FB46
:1047C00003F2120A13F07FF9761C0AF1010ABE42C5
:1047D000ECDB0E980BF1010B0A9905440C98894407
:1047E0000444C345DEDBBAE7059021E04FF0000A40
:1047F000564612E004EB460119F8063014F816008C
:104800004A7805EB8A0112FB03F303FB0BF31A0C46
:1048100013F059F9761C0AF1010ABE42EADB0E9840
:1048200005440C9804440598401C05900A99894455
:104830004045DBDB93E70020039028E014F81A10D2
:10484000B9F1000F029861F3174061F30F2061F393
:1048500007002ED0039A04EB4A0319F802105A7885
:1048600012FB01F101FB0BF15FEA114110AB61F3A7
:104870001F600290039896F82220029905EB8000B1
:1048800003F070FC0398401C03900AF10100B84249
:104890008246D3DBB9F1000F01D00A9989440E9802
:1048A00005440C9804440598401C05904045C2DB23
:1048B00055E704EB4A014A7812FB0BF1090AD5E7E8
:1048C0002DE9F04F054687B0D5E9016790F821B092
:1048D00000680090E8680190D5E906400390D5E9AA
:1048E00004900490686AC11700EB517121F0070130
:1048F000A0EB010A95F8220008B100202AE1B9F1E5
:10490000000F06D0BBF1FD0F4FF0000072D38346BD
:10491000A7E0BBF1FD0F4FF000002FD234E000BF45
:104920004FF0000845461FE008EB0A0100988B464F
:104930000BF015FA04EB4501C0EB00208DF80800E0
:1049400014F815004A7802A913F0DCF89DF8080065
:1049500059467F28009802D930F041FC01E005F06B
:10496000E7FB6D1C08F10108B542DDDBDDE9001055
:10497000084400900398044409F10100B8428146BC
:10498000CEDB07B0BDE8F08FB8428146F9DA4FF0D0
:104990000008454623E000BF009808EB0A01029199
:1049A0000BF0DDF9C0EB00208DF8100004EB4500A2
:1049B000427814F8150012FB0BF10A0A04A913F04F
:1049C000A1F89DF8100002997F28009802D930F0D4
:1049D00006FC01E005F0ACFB6D1C08F10108B542D6
:1049E000DADBDDE90010084400900398044409F183
:1049F0000100C9E738E000BF4FF00008454624E059
:104A0000009808EB0A0102910BF0A9F904EB4501AB
:104A1000C0EB00208DF8140019F80520497814F82F
:104A2000150011FB02F10A0A05A913F06BF89DF8B5
:104A3000140002997F28009802D930F0D0FB01E0E1
:104A400005F076FB6D1C08F10108B542D8DBDDE905
:104A500000010BF1010B08440090039804990444F1
:104A60008944BB45C8DB8CE7059037E04FF0000870
:104A7000454626E0009808EB0A0102910BF06FF919
:104A800004EB4501C0EB00208DF8180019F8052053
:104A9000497814F8150011FB02F101FB0BF10A0C27
:104AA00006A913F02FF89DF8180002997F280098A6
:104AB00002D930F094FB01E005F03AFB6D1C08F1DF
:104AC0000108B542D6DBDDE90010084400900398E8
:104AD0000499044405988944401C0590B842C5DBFC
:104AE0004FE70020059025E014F81810B9F1000FE9
:104AF000029861F3174061F30F2061F307002DD096
:104B000004EB480319F808105A7812FB01F202FB73
:104B10000BF2110C61F31F6005990290024695F8A3
:104B200022305144009803F090FB0598401C0590FA
:104B300008F10100B0428046D6DBB9F1000F01D088
:104B400004998944DDE90001084400900398044475
:104B50000698401C0690B842C3DB12E704EB4801FC
:104B60004A7812FB0BF1090AD4E700002DE9F04F57
:104B7000064690F8220091B00028D6E9017096F818
:104B800021B035688046F0680F90D6E906400D9058
:104B9000D6E904900B9001D00020C8E0B9F1000FD5
:104BA00006D0BBF1FD0F4FF0000067D3834662E0F3
:104BB000BBF1FD0F4FF0000018D21DE04FF00009CF
:104BC0004E460BE004EB460005EB0901427814F871
:104BD000160012F0A6FF761C09F10109BE42F1DBB6
:104BE0000F9805440D9804440AF10100404582469F
:104BF000E4DB11B0BDE8F08F40458246F9DA4FF0B2
:104C000000094E460FE000BF04EB460005EB09012A
:104C1000437814F8160013FB0BF2120A12F081FF0E
:104C2000761C09F10109BE42EEDB0F9805440D9890
:104C300004440AF10100DFE74FF0000A564610E095
:104C400004EB460119F8063014F816004A7805EB13
:104C50000A0112FB03F2120A12F063FF761C0AF13A
:104C6000010ABE42ECDB0F980BF1010B0B990544D6
:104C70000D9889440444C345DEDBBAE7049021E083
:104C80004FF0000A564612E004EB460119F80630D0
:104C900014F816004A7805EB0A0112FB03F202FB36
:104CA0000BF2120C12F03DFF761C0AF1010ABE4213
:104CB000EADB0F980B9905440D9889440444049845
:104CC000401C04904045DBDB93E70020039020E08C
:104CD00014F81A10B9F1000F009861F3174061F34E
:104CE0000F2061F3070026D0039A19F8022012FB67
:104CF0000BF1090A61F31F600090039896F82220D7
:104D00000099284403F0E2FA0398401C03900AF14A
:104D10000100B8428246DBDBB9F1000F01D00B99EC
:104D200089440F9805440D9804440498401C04904D
:104D30004045CADB5DE76BF31F60DDE72DE9F04F0F
:104D4000814690F8220093B00028D9E9017082468C
:104D500099F821001090D9F80040D9F80C000F9074
:104D6000D9E906500E90D9E904B00D9001D0002089
:104D700050E11098BBF1000F05D0FD284FF0000066
:104D8000814666D28BE0FD284FF000001AD21FE06A
:104D90000026B0460EE000BF05EB480034F81610C0
:104DA000427815F8180012F011FE24F81600761C4F
:104DB00008F10108BE42EFDB0F9804440E98054449
:104DC00009F1010050458146E2DB13B0BDE8F08FE8
:104DD00050458146F9DA0026B04611E005EB48005F
:104DE0004178109811FB00F215F8180034F81610ED
:104DF000120A12F0EBFD24F81600761C08F10108E7
:104E0000BE42EBDB0F9804440E98054409F1010003
:104E1000DEE70026B04612E005EB48001BF806105E
:104E2000407810FB01F215F8180034F81610120A39
:104E300012F0CCFD24F81600761C08F10108BE42E1
:104E4000EADB0F9809F101090D9904440E988B448F
:104E50000544D145DDDBB8E70026B04615E000BFCC
:104E600005EB48011BF80600109A497811FB00F386
:104E700015F8180034F8161053431A0C12F0A6FD5A
:104E800024F81600761C08F10108BE42E8DB0F98F2
:104E900009F1010904440E9805440D988344D14555
:104EA000DADB92E7002606960894A5E0069899F8C2
:104EB0002220012A15F810104FEAD1004FEA910183
:104EC00025D0022A4BD0032A66D0042AC3D1089ADF
:104ED00032F816E0C0EBDE23002B01DCA0EBDE2372
:104EE0004FF6FF78CEF3451CACEB0102002A08EA2E
:104EF000C32801DCA1EB0C020EF01F03191A08EB0A
:104F0000421292B2002900DCC11A88181BE0089AEC
:104F100032F8168000EBD8221F2A00D31F224FF64A
:104F2000FF73C8F3451C61443F2903EAC22200D342
:104F30003F2108F01F0302EB4111184489B21F28DA
:104F400000D31F200844109980B2BBF1000F3FD05E
:104F5000FD2964D31BF8062034F8161044E0089AA3
:104F600032F81680C0EBD822002A00DC00224FF66F
:104F7000FF73C8F3451CACEB0101002903EAC22210
:104F800000DC002108F01F03181A02EB411189B25E
:104F90000028D7DC0020D5E7089A4FF6FF7332F8D7
:104FA00016204FEAD22CC2F345181CFB00FC02F07D
:104FB0001F0218FB01F812FB00F14FEA5C104FEAE8
:104FC000981203EAC02000EB421000EB5110BAE740
:104FD000FD29069905EB41014A78BDD2109912FBD3
:104FE00001F234F81610120A12F03AFB24F81600F7
:104FF0000698001D0690761CBE42FFF657AF0F982C
:10500000BBF1000F04440E98054401D00D998B4468
:105010000598401C05905045FFF644AFD5E606992B
:10502000109B05EB41021BF80610527811FB02F2AF
:1050300034F816105A43120CD6E700002DE9F04F51
:10504000814690F8220087B00028D9E90170824695
:1050500099F821000090D9F80040D9F80C0003908D
:10506000D9E906500290D9E904B0059001D000209A
:105070006AE10098BBF1000F05D0FD284FF0000059
:10508000814677D2A0E0FD284FF000001FD224E037
:105090000026B04613E000BF34F8160012F038FFC7
:1050A000014605EB4800427815F8180012F0BEFCE6
:1050B00012F02EFF24F81600761C08F10108BE42FB
:1050C000EADB039804440298054409F101005045C5
:1050D0008146DDDB07B0BDE8F08F50458146F9DA47
:1050E0000026B04618E000BF34F8160012F010FF9A
:1050F00005EB480115F818304A78009912FB01F1C8
:105100000A0A0146184612F091FC12F001FF24F839
:105110001600761C08F10108BE42E5DB0398044442
:105120000298054409F10100D7E70026B04617E0D0
:1051300034F8160012F0ECFE05EB48021BF80630BE
:10514000014615F81800527812FB03F2120A12F009
:105150006DFC12F0DDFE24F81600761C08F1010843
:10516000BE42E5DB039809F1010905990444029860
:105170008B440544D145D8DBACE70026B04619E0A6
:1051800034F8160012F0C4FE01461BF8062005EBA9
:105190004800437815F8180013FB02F3009A5343B4
:1051A0001A0C12F043FC12F0B3FE24F81600761C21
:1051B00008F10108BE42E3DB039809F10109044448
:1051C0000298054405988344D145D6DB82E73946E9
:1051D000204604941AF0C6FC00260196A6E000BF03
:1051E000019899F82220012A15F810104FEAD100F1
:1051F0004FEA910124D0022A4BD0032A65D0042A19
:10520000BAD1049A32F816E0C0EBDE28B8F1000FEC
:1052100001DCA0EBDE284FF6FF7CCEF345135A1AD3
:10522000002A0CEAC82C00DCCA1A0EF01F03191A57
:105230000CEB421292B2002900DCC11A88181BE064
:10524000049A32F8168000EBD8221F2A00D31F22BE
:105250004FF6FF7CC8F3451319443F290CEAC222DC
:1052600000D33F2108F01F0302EB4111184489B21B
:105270001F2800D31F200844009980B2BBF1000F03
:105280003ED0FD2965D31BF8062000BF34F8161068
:1052900042E0049A32F81680C0EBD822002A00DCE3
:1052A00000224FF6FF7CC8F345135B1A002B0CEA73
:1052B000C22100DC002308F01F02101A01EB431189
:1052C00089B20028D7DC0020D5E7049A4FF6FF7397
:1052D00032F816204FEAD22CC2F345181CFB00FC12
:1052E00002F01F0218FB01F112FB00F24FEA5C1002
:1052F000890903EAC02000EB411000EB5210BBE724
:10530000FD29019905EB41014A78BFD2009912FBB2
:1053100001F234F81610120A12F0A2F912F0F8FD98
:1053200024F816000198001D0190761CBE42FFF67D
:1053300057AF0398BBF1000F04440298054401D015
:1053400005998B440698401C06905045FFF63FAFE8
:10535000C0E601991BF8063005EB4102517813FBBA
:1053600001F2009B34F816105A43120CD4E70000E7
:105370002DE9F34F064690F8220085B00028D6E9C3
:10538000017096F821B035688046F0680190D6E942
:1053900006400090D6E90490039001D00020CBE0B5
:1053A000B9F1000F05D0BBF1FD0F4FF0000064D242
:1053B00089E0BBF1FD0F4FF0000019D21EE000BFE5
:1053C0004FF000094E460BE004EB460005EB0901E7
:1053D000427814F8160012F059FB0699761C89449D
:1053E000BE42F1DB01980544009804440AF1010033
:1053F00040458246E4DB07B0BDE8F08F4045824679
:10540000F9DA4FF000094E460FE000BF04EB46000A
:1054100005EB0901437814F8160013FB0BF2120A8E
:1054200012F034FB0699761C8944BE42EEDB0198EB
:105430000544009804440AF10100DFE74FF0000A38
:10544000564610E004EB460119F8063014F8160031
:105450004A7805EB0A0112FB03F2120A12F016FB5E
:105460000699761C8A44BE42ECDB019805440098FC
:105470000444039881440BF1010040458346DDDB81
:10548000B9E700BF4FF0000A564612E004EB4601B0
:1054900019F8063014F816004A7805EB0A0112FBD9
:1054A00003F202FB0BF2120C12F0F0FA0699761CD2
:1054B0008A44BE42EADB0198039905440098894476
:1054C00004440298401C02904045DBDB93E7002037
:1054D000029023E014F81A00B9F1000F60F30701FD
:1054E00060F30F2160F317412BD0029A04EB4A03BB
:1054F00019F802005A7812FB00F000FB0BF0000CC8
:1055000096F8222060F31F610298284402F00DFFF4
:1055100006990298084402900AF10100B8428246B6
:10552000D8DBB9F1000F01D00399894401980544F3
:10553000009804440498401C414688420490C6DB0D
:1055400059E704EB4A00427812FB0BF0000AD7E758
:105550004A1E0844A0F10100114220EA020000D0D6
:10556000FEE77047402010B51EF038FD040005D05E
:10557000402200211EF0B8FE204610BDFEE72DE9B6
:10558000FC4104000D462AD055B304F124008046A6
:1055900024F025F9009008B307696168384611F0D6
:1055A000C0F862680646294638461EF0EBFD04F155
:1055B00030001EF038FC019098B1042269461EF0BC
:1055C000E1FD009920460BF09EF8042201A91EF08F
:1055D000D9FD62682146304611F0B3F807E0FEE7D6
:1055E000FEE70099404624F0C4F80020009000989F
:1055F000BDE8FC812DE9F0410F4604460121C1635D
:1056000000252E4609E01A4925F02EFA08B16D1C36
:1056100002E0E06B401CE063761C57F8260010B1F6
:1056200001780029EFD1A06BA8421FD0206B002683
:1056300010B11BF021FF2663606B10B11BF01CFF43
:10564000666328011EF0CAFC206338B168001EF0B2
:10565000C5FC606318B1216B11B102E0FEE7FEE703
:10566000002500216A001EF03FFEA563BDE8F08121
:10567000F863010870B590F85C300446C26B980777
:10568000606C04D420B1411C18D0401E6064A8B9DD
:105690000AB1980712D51A4821461EF069FC00F09D
:1056A00031F8216909B120468847616909B120466E
:1056B00088472046BDE870401BF0DEBED4E90C15DB
:1056C00023F0080084F85C0000238D4200DD6B1A93
:1056D000256C002AA3EB0503636310D0830702D473
:1056E000A36B5B426363E66A4310656A5B1C666298
:1056F000E16363F34100C4E90B5284F85C0070BDC0
:10570000100A002070B5174C012504F1B00084F890
:10571000A8501EF063FB0028D4F8AC0004D0A8B158
:10572000BDE8704027F09EBE18B1BDE8704027F07C
:1057300089BE94F8AA00002807D000220A49104622
:1057400014F0EEFF002084F8AA0070BD94F8AA00BF
:105750000028FAD100220449104614F00DFF84F805
:10576000AA5070BD60090020C95800082DE9F04713
:10577000544D95F8A90038B15FF0000085F8A900F4
:105780005048B030814690E00120F7E7206D27F0C7
:10579000F3FC94F85C10C9071ED0606D27F0ECFC98
:1057A0000146A06D0346401C19D08B4217D894F8CF
:1057B0005C0020F0010284F85C20C81A616B084488
:1057C000606395F8A90020B122F0040084F85C0021
:1057D00005E042F00400F9E7616B0844606327F0DC
:1057E000D1FC2065002185F8A81094F85C00C10761
:1057F00062D195F8A910C0F380028A425CD061F3AF
:10580000820084F85C0001071ED4616B002948DB2C
:10581000C00609D4A16939B120468847616AE26AA5
:10582000014461621044E06220462AF0E1FDE16833
:1058300009B12046884794F85C0040F0080084F8DD
:105840005C0020462AF0BCFC606B002829DB216B41
:105850008046884200DD61632046216A676B884785
:10586000A16A0646B1420DD06268A66212B12068F4
:105870003146904795F8A800B0B9A2682AB13146E0
:105880002046904795F8A80070B9606BB84202D1E5
:105890004046C4F83480216B884202DB2046FFF783
:1058A000E9FE95F8A80038B148461EF097FA0400C2
:1058B0007FF46CAFBDE8F087214648461EF0A0FAA1
:1058C000F5E70000600900200020FFF74FBF2DE939
:1058D000F043C469ADB0C16E0022054613A8266826
:1058E0001CF084FA01280AD11E9800287DD0008877
:1058F000C0F307200E2806D0062876D103E0012049
:105900002DB0BDE8F0835C351E980DF11408ACCDC8
:10591000018988E8AC0040681FFA81F983B2020C63
:10592000521E009200225B1E114626A80FF0F7FDC2
:105930000025009509222B4626A905A80FF0C2FADA
:1059400004F114000FC888E80F0005AA26A90BA8C7
:105950000FF091FC002859D00F95109511951295D4
:1059600020680699808880B2401E11900C98401AD9
:10597000401E129020680FA915F0FDF9069A691EC5
:105980000E98801A401C10902068406801EB10406F
:10599000129020680FA915F0EEF910950F95059952
:1059A0000B98401A401E119020680FA915F0E3F9DA
:1059B00005990D98401A401C0F9020680FA9808807
:1059C00080B2401E1190206815F0D5F9DDE90B0278
:1059D000DDE90513411A3046D21A15F06FFBDDE9F7
:1059E0000B12DDE92635064600E02DE01E98521B1D
:1059F000C91A15F063FB05460BA80FF019FC074602
:105A00000BA80FF025FC002102461BE013A81CF098
:105A10008DF9002074E700200CE006EB800315F8F8
:105A200000C0401C93F803801CFB08FC4FEA1C2CB0
:105A300083F803C09042F0DB2368491C4D4498680A
:105A400016FA80F6B942E6DB13A81CF06FF956E7A8
:105A500070B5044640680D4608B1FFF7F9FF2268AB
:105A6000002A04D029462046BDE87040104770BD8A
:105A700070B50D6806460C46286838B1296AC90217
:105A800004D5214620603046FFF7F2FF214630461C
:105A90002560BDE87040FFF7DBBF0FF000BA0FF0E4
:105AA00080B90FF0C5B900002DE9F04F064691B05E
:105AB000D6E90170814696F821000B903568F068B0
:105AC0000F90D6E906400E90D6E904B00A900CA8D3
:105AD00012F09BF996F8220008B10020DBE00B9849
