:020000040800F2
:10000000284E002081030008CF4000082D3800084A
:10001000CD400008B7080008654C0008000000004B
:100020000000000000000000000000009D430008E8
:10003000E108000800000000D14000089F430008CC
:100040009F0300089F0300089F0300089F03000808
:100050009F0300089F0300089F0300089F030008F8
:100060009F0300089F0300089F0300089F030008E8
:100070009F0300089F0300089F0300089F030008D8
:100080009F0300089F0300089F0300089F030008C8
:100090009F0300089F0300089F0300089F030008B8
:1000A0009F0300089F0300089F0300089F030008A8
:1000B0009F0300089F0300089F0300089F03000898
:1000C0009F0300089F0300089F0300089F03000888
:1000D0009F0300089F0300089F0300089F03000878
:1000E0009F0300089F030008000000009F03000812
:1000F0009F0300089F0300089F0300089F03000858
:100100009F0300089F0300089F0300089F03000847
:100110009F0300089F030008414500089F03000853
:100120009F0300089F0300089F0300089F03000827
:100130009F0300089F0300089F0300089F03000817
:1001400000000000000000000000000000000000AF
:100150009F0300089F0300089F0300089F030008F7
:100160009F0300089F0300089F0300089F030008E7
:100170009F0300089F0300089F0300080000000081
:100180009F0300089F0300089F0300089F030008C7
:100190009F0300089F0300089F0300089F030008B7
:1001A000D93B00089F030008B90800089F03000816
:1001B0009F0300089F0300089F0300089F03000897
:1001C0009F0300089F0300089F0300089F03000887
:1001D0009F0300089F0300089F0300089F03000877
:1001E0009F0300089F0300089F0300089F03000867
:1001F0009F0300089F0300089F0300089F03000857
:100200009F0300089F0300089F0300089F03000846
:100210009F0300089F0300089F0300089F03000836
:100220009F0300089F0300089F03000800000000D0
:100230009F0300089F030008000000009F030008C0
:100240009F0300089F0300089F0300089F03000806
:100250009F0300089F0300089F0300089F030008F6
:100260009F0300089F0300089F0300089F030008E6
:100270009F0300089F0300089F0300080000000080
:100280009F0300089F0300089F0300080000000070
:10029000000000009F03000800F002F800F061F881
:1002A0000AA090E8000C82448344AAF10107DA45D1
:1002B00001D100F056F8AFF2090EBAE80F0013F0C2
:1002C000010F18BFFB1A43F001031847C0200D00AF
:1002D000E0200D000A444FF0000C10F8013B13F031
:1002E000070408BF10F8014B1D1108BF10F8015B8F
:1002F000641E05D010F8016B641E01F8016BF9D182
:1003000013F0080F1EBF10F8014BAD1C0C1B09D1D8
:100310006D1E58BF01F801CBFAD505E014F8016B4A
:1003200001F8016B6D1EF9D59142D6D370470000DC
:100330000023002400250026103A28BF78C1FBD8EE
:10034000520728BF30C148BF0B607047642900F0D6
:10035000E380002070471FB53CF0ADFD1FBD10B518
:1003600010BD00F055FA1146FFF7F5FF30F08EFA98
:1003700000F073FA03B4FFF7F2FF03BC04F0EDFDE5
:100380000A4880470A4880470A480047FEE7FEE7D8
:10039000FEE7FEE7FEE7FEE7FEE7FEE7FEE7FEE735
:1003A00005480649064A074B70470000E90800085F
:1003B0004944000899020008280C0020284E00201B
:1003C000280E0020280E0020704753EA020C00F08F
:1003D00069802DE9F04B4FF00006002B1FBFB3FAE8
:1003E00083F503FA05F424FA05F65E4012BF1643BE
:1003F000B2FA82F502FA05F4C5F120051EBF22FA11
:1004000005FC44EA0C04203556EA044C4FEA144437
:1004100018BF641C4FF000084FF00009904271EBC8
:10042000030C39D3002919BFB1FA81F701FA07F695
:10043000B0FA80F700FA07F6C7F120071EBF20FACE
:1004400007FC46EA0C062037B6FBF4FCA7EB0507D1
:10045000103F07F01F0BCBF120060CFA0BFB2CFA18
:1004600006F644BFB3460026202FA4BF5E464FF0D9
:10047000000B5BEA060C08BF4FF0010B19EB0B09F0
:10048000ABFB027C48EB0608C01B06FB02CC0BFB57
:1004900003CC71EB0C01C1E70B46024641464846CE
:1004A000BDE8F08B13B54FF000004FF00001AFF343
:1004B0000080BDE81C40704710B54C1084EA53041E
:1004C00004D54042C1F1000138BF491E1B4204D58A
:1004D0005242C3F1000338BF5B1EFFF776FF14F0F2
:1004E000804F04D04042C1F1000138BF491E14F0D2
:1004F000004F04D05242C3F1000338BF5B1E10BD51
:100500000FB4044910B503AA029800F053F910BCC7
:100510005DF814FB000000202DE9F04106460024A0
:1005200010687529314616A510D0AFF30080002859
:1005300002DA404213A507E031688A0701D512A507
:1005400002E0490704D511A5012401E0AFF30080C2
:1005500000210A2206F1240709E0B0FBF2FCB0FBFF
:10056000F2F302FB1C00303078541846491C002876
:10057000F3D123462A463046BDE8F04100F0C1B829
:10058000000000002D0000002B00000020000000F3
:100590002DE9F0410F460546002028622846E9680B
:1005A000884770B3252805D0D5E901219047286AEE
:1005B000401CF2E7E9682846002688476C28044674
:1005C0000AD0682C08D04C2C35D06A2C31D0742C31
:1005D00031D07A2C2FD016E0E968064628468847A5
:1005E000B042044608D16C2E23D04FF480662846D2
:1005F000E9688847044606E06C2E03D04FF4807605
:1006000001E01EE04026E4B1A4F14100192802D81F
:10061000203446F400663A46214628462E60FFF70D
:1006200095FE60B1012808D0FF1D27F007070837A5
:10063000B4E78026DBE70026D9E73F1DAEE720467A
:10064000B2E7286ABDE8F08110B5203AC0F00B800F
:10065000B1E81850203AA0E81850B1E81850A0E8C6
:100660001850BFF4F5AF5FEA027C24BFB1E8185020
:10067000A0E8185044BF18C918C0BDE810405FEA90
:10068000827C24BF51F8043B40F8043B08BF70470C
:10069000D20728BF31F8023B48BF11F8012B28BF11
:1006A00020F8023B48BF00F8012B70474FF00002D2
:1006B00000B5134694469646203922BFA0E80C5058
:1006C000A0E80C50B1F12001BFF4F7AF090728BF33
:1006D000A0E80C5048BF0CC05DF804EB890028BFAF
:1006E00040F8042B08BF704748BF20F8022B11F0D8
:1006F000804F18BF00F8012B704770477047704754
:1007000070472DE9F0470D4699469246044600F1A0
:1007100024080168880604D5E06921F010012160F1
:1007200000E00120A84201DD471B00E00027A1698D
:100730007A1902EB0900081AA0612078C00602D4D9
:100740002046AFF30080002608E0D4E901211AF822
:1007500006009047206A401C761C20624E45F4DB60
:100760002078C0060AD52046AFF3008006E0D4E921
:10077000012130209047206A401C2062381EA7F1DA
:100780000107F4DC07E0D4E9012118F805009047DF
:10079000206A401C2062281EA5F10105F3DC2046DA
:1007A000AFF300802078000602D50220BDE8F08774
:1007B0000120FBE7074B70B50D467B4400F011F8B4
:1007C0000446284600F020F810B14FF0FF3070BD0D
:1007D000204670BD0F02010001694A1C02610878C1
:1007E000704700B58FB0CDE9013100210591054971
:1007F0007944CDE9031011466846FFF7C9FE0FB0F2
:1008000000BD0000E5FFFFFF007B00F080007047A7
:10081000754600F02BF8AE4605006946534620F0B9
:100820000700854618B020B5FFF7BAFDBDE82040A7
:100830004FF000064FF000074FF000084FF0000B9C
:1008400021F00701AC46ACE8C009ACE8C009ACE84F
:10085000C009ACE8C0098D46704710B50446AFF337
:1008600000802046BDE81040FFF784BD0048704777
:10087000C40B002000B587B00A4918226846FFF76C
:10088000E3FE0948694600F06FF9002808D10648E0
:1008900000F02FF9002803D1034806A900F060F901
:1008A00007B000BD2C0B0D089C0B002010B5FFF706
:1008B000E1FF002010BDFEE7064810B54068800744
:1008C00003D5054800681BF096FDBDE810400348BD
:1008D00000F0D0B90010005288050020400600202A
:1008E000704772B6FEE700000548054908390268FE
:1008F00042F00202026008688004FCD570470000E4
:100900000C480258F0B5D1E90843CD690A68C2B174
:100910000268254322F4F84213431D430560D1E9E0
:100920000125D1E903364C692A4345683343896977
:100930001A43EB0B2243DB030A431A4342600020B5
:10094000F0BDD1E9012ED1E9036CD1E9057142EA8C
:100950000E0246EA0C0632433A430A4301682A4330
:1009600022431A436FF30E010A430260E7E742692C
:1009700043F6FE739A4342EA410141610020704709
:1009800070B591E81C00C9686FF01F0506691A432D
:1009900005EB441444EA41210A4306EA45431A435D
:1009A0000261002070BD00002DE9F04F8B8A6FF0CE
:1009B0000F05264C4FF07F4BD1F80C9004EB0353FE
:1009C0006FF0FF044FEA042A1AB386684FEA09322F
:1009D0001F4FA2F580521A433E4032438260D1E954
:1009E00000278E68521E05EB07150F8A2A43C5683B
:1009F00004EB06240E7E0AEB074322431A430BEB5B
:100A000006610A4305F070431A43C2600020BDE846
:100A1000F08F91E804110F4E521E0F8A05EB081556
:100A20002A4304EB0C2C06EB09350E7E42EA0C023D
:100A30002A4385680AEB074422431A430BEB0661FD
:100A40000A4305F070431A438260DFE70000F0FFBD
:100A5000FF0F0FFF00F0FFFF08B51830694611F0D7
:100A60007AF910B14FF0FF3008BD9DF8000005285D
:100A7000FAD9002008BDFEB507460D4600200090BB
:100A800001908DF808003846FFF7E6FF04002FD4E8
:100A90003846FFF7E1FF05284FF0FF3628600AD8F7
:100AA00028B307F118006A46062348F2501104469D
:100AB00011F04AF908B1344619E09DF801100123FC
:100AC0009DF8000002AA01F00F0140EA01206860D1
:100AD0009DF803109DF8020001F00F0140EA01208B
:100AE00048F24E11A860204611F056F904462046FF
:100AF000FEBD2DE9F843044690F82400002620B9F5
:100B000020688047012084F82400002748F2FF096C
:100B10004FF0FF3848F24705D4F810C00123208970
:100B20006A462946E04708B1464616E09DF800109F
:100B30006D1CADB239444D45CFB2EDD3F8436A4692
:100B4000401C4946C5B2208924690123A0470028DA
:100B5000EAD19DF800008542E6D13046BDE8F88331
:100B6000183011F0E6B800004FF0FF3210B598B120
:100B70000B6803604C6844600C890481CC68C460D5
:100B80000C690461496941610449C1610449816199
:100B900000620BB198470246104610BD154300088D
:100BA000674C000800F002BB70470000F0B590F8F9
:100BB0006020012A22D0C1EBC102012780F86070B9
:100BC000022380F8613000EB8202284D138F168ECD
:100BD000B2F83CC0D46A1B05283244EA064643EA10
:100BE0004C530A2C46EA03060AD0092C08D0137B82
:100BF00046EA036349B10B2C1AD01DE00220F0BD78
:100C0000D36803F07F433343F4E701684C6AAC4395
:100C10001C434C62016813688B6151680A2901D03A
:100C200009291BD1D168026821F07F41916215E04A
:100C3000118B0F4D43EA81430168CC69AC431C43DF
:100C4000CC61016813680B6151680A2901D0092938
:100C500004D1D168026821F07F411162002180F83F
:100C6000617080F860100846F0BD00000F0033FF8F
:100C70000F003FFF2DE9F0470446006800274FF0C2
:100C800004084FF0010946680568F10714D0E9052A
:100C900012D5036823F480730360606E40F0010096
:100CA00060662068C0F8089084F8618084F86070FD
:100CB000616A09B120468847B00615D5A80413D546
:100CC00020682022036823F40053036020688260B8
:100CD000606E40F00200606684F8618084F86070A5
:100CE000616A09B120468847300715D5280513D514
:100CF00020680822036823F4006303602068826090
:100D0000606E40F00400606684F8618084F8607072
:100D1000616A09B12046884770070CD568050AD575
:100D20002068026822F4806202602068C0F80880AF
:100D3000204600F071F8B00713D5A80511D520683A
:100D40000222036823F40073036020688260606EEF
:100D5000606684F8619084F86070216A09B1204669
:100D60008847F00612D5E80410D52068016821F400
:100D700080510160226810219160616E616684F883
:100D80006190204684F86070FFF70EFFBDE8F087A1
:100D90002DE9F041040004D094F86100002518B159
:100DA00007E00120BDE8F081204684F8605000F0A3
:100DB00035F8184E022084F861000123D4E90010B0
:100DC000D4F81CC040F207120F6840EA0C0037400C
:100DD000384308602068A769A168466B3943964389
:100DE000314341632068E268016C6FF30F011143E6
:100DF00001642068218AA28A466B090541EA4251B2
:100E000026F4401211434163656684F86130002086
:100E1000C8E70000BFFFF8FF7047000008B5006892
:100E20000B49884212D10B48016841F01001016062
:100E300000680022114600F0100000905A2000F0D7
:100E400099FEBDE808405A2000F086BE08BD0000AB
:100E500000100052D444025870B5044600F0A6F9C0
:100E60000546601C02D004480078044400F09EF956
:100E7000401BA042FAD370BD0C000020F0B5B7B003
:100E8000142130A8FFF712FC2F480168002959D11E
:100E900001210160C0216846FFF708FC0DF1080C34
:100EA00005206423022404268CE85900802712942C
:100EB000002208924FF080711546CDE90607CDE972
:100EC0000012684601F008F808B1FFF70AFD1F4854
:100ED000016841F480510160006830A9032600F4E4
:100EE000805035900C2740F2FF6081E8F1001848EF
:100EF00000F03AF830A94FF6837081E8F100154808
:100F000000F032F830A94FF62C7081E8F100124859
:100F100000F02AF830A948F2331081E8F1000F48B8
:100F200000F022F830A94CF2037081E8F1000C487F
:100F300000F01AF830A94FF63F0081E8F1000948A7
:100F400000F012F837B0F0BD04000020D44402587D
:100F50000020025800100258001C025800180258C5
:100F6000000C0258001402582DE9F84F03247D4D5F
:100F700000234FF001094FF0B04B4FF00F0AE9E0AA
:100F800009FA03F73A4076D00E7906F00306012EEF
:100F900001D0022E18D1D0F808C04FEA430ECE6817
:100FA00004FA0EF82CEA080C06FA0EF646EA0C06CD
:100FB0008660D0F804C00E792CEA070CC6F3001640
:100FC0009E4046EA0C0646600E79F643B6070BD003
:100FD000C6684FEA43088F6804FA08FC26EA0C0644
:100FE00007FA08F73743C7600E7906F00306022EAA
:100FF00012D1DE080F694FEA437C00EB8606B64645
:10100000366A4FEADC6C0AFA0CF807FA0CF726EAA3
:1010100008063743CEF820700F7906684FEA430878
:1010200007F0030704FA08FC07FA08F726EA0C069B
:10103000374307604E6816F4403F1CD04A4E37686D
:1010400047F00207376036689F0706F002060096F1
:1010500023F0030606F1B046B6463F0FD6F8086403
:10106000DFF808810AFA07FC404526EA0C0603D19E
:101070004FF0000C41E06CE0DFF8F4C0604502D1B5
:101080004FF0010C39E0DFF8ECC0604502D14FF0C1
:10109000020C32E0DFF8E0C0604502D14FF0030CF3
:1010A0002BE0DFF8D8C0604502D14FF0040C24E0FB
:1010B000DFF8CCC0604502D14FF0050C1DE0DFF831
:1010C000C4C0604502D14FF0060C16E0DFF8B8C08E
:1010D000604502D14FF0070C0FE0DFF8B0C060456B
:1010E00002D14FF0080C08E0DFF8A4C0604502D13F
:1010F0004FF0090C01E04FF00A0C0CFA07FC4CEA27
:10110000060CCEF808C44F68DBF80060FF0226EA40
:10111000020600D516435F46CBF80060D1F804C044
:10112000DBF804605FEA8C2C26EA020600D5164341
:101130007E606E684F6826EA0206BF0300D516433C
:101140006E602E684F6826EA0206FF0300D516433C
:101150002E605B1C0A6832FA03F67FF411AFBDE81B
:10116000F88F000080000058F44402580000025834
:101170000004025800080258000C025800100258DF
:101180000014025800180258001C0258002002588F
:10119000002402580AB1816170470904FBE700008E
:1011A00001480068000C70470010005C014880682E
:1011B000704700000C00002030B590F84120202A34
:1011C00024D190F84020012A20D0012380F840301B
:1011D000242280F84120202300240268156825F08D
:1011E000010515600268156825F4805515600268D0
:1011F00015680D43156001680A6842F001020A6033
:1012000080F8413080F84040002030BD022030BDE1
:1012100030B590F84120202A22D190F84020012AB0
:101220001ED0012380F84030242280F84120202461
:1012300000250268136823F0010313600268136835
:1012400023F4706343EA0121116001680A6842F0E7
:1012500001020A6080F8414080F84050002030BD13
:10126000022030BD70B5040004D094F84100002580
:1012700010B106E0012070BD204684F8405000F017
:10128000AFF9242084F841002068016821F00101B1
:101290000160D4E9001020F0706008612068816866
:1012A00021F400418160E06821680128A06830D005
:1012B00040F404408860E0680228206841682BD030
:1012C00021F40061416020682021154A43681343DE
:1012D00043602068C26822F40042C26054F8106B78
:1012E0000DCC104340EA0320F06054F81C3CD4E9D4
:1012F00000021043186054F81C0D026842F001020D
:101300000260656484F84110256384F8425000202F
:1013100070BD40F40040CDE741F40061D2E7000029
:10132000008000022DE9FF4F83B0044690F8410091
:101330009A469346DDE91087DDF84890202874D15D
:101340005FEA080014D09FB194F8400001286CD0E7
:10135000012084F84000FFF729FF012206461923E7
:101360000090D103204602F08DFB002871D103E0EC
:101370004FF4007060646CE00025C4F824802221E2
:1013800084F84110402084F8420065646785534624
:1013900065635A4604992046CDE9009602F0F6FAB4
:1013A00010B184F8405054E0618DFF2734484FF06D
:1013B0008078FF294FF0007A04D927853A464346C2
:1013C000009005E0618D53462185009094F8282017
:1013D0002046049902F03EFB00224B4604212046A1
:1013E000009602F04FFBA0BB2068616A406A08705B
:1013F000606A401C6062208D401E81B22185608D34
:10140000401E6085608DD8B1D1B900224B46802145
:101410002046009602F036FBD8B9608DFF2805D92A
:1014200027853A464346009506E026E0608D534600
:101430002085009594F828202046049902F00AFBA4
:10144000608D0028C8D132464946204602F058FB3C
:1014500018B1012007B0BDE8F08F21682020094AAB
:10146000C86121684B6813404B6084F8410084F8E0
:101470004250002084F84050ECE70220EAE70000E8
:101480000024008000E800FE2DE9FF4F83B00446F1
:1014900090F841009A469346DDE91087DDF84890C0
:1014A000202871D15FEA080014D09FB194F8400061
:1014B000012869D0012084F84000FFF777FE01225F
:1014C000064619230090D103204602F0DBFA0028DB
:1014D0006ED103E04FF40070606469E00025C4F849
:1014E0002480212184F84110402084F84200656462
:1014F0006785534665635A4604992046CDE90096B0
:1015000002F076FA10B184F8405051E0608DFF2768
:101510004FF08078FF284FF0007A04D927853A46AB
:101520004346009505E0608D53462085009594F86C
:1015300028202046049902F08DFA3246494620467A
:1015400002F00AFBA0BB606A216800788862606ACA
:10155000401C6062608D401E6085208D401E80B200
:101560002085618DD9B1D0B900224B46802120461B
:10157000009602F087FAD8B9608DFF2805D9278533
:101580003A464346009506E026E0608D53462085A6
:10159000009594F828202046049902F05BFA608DAB
:1015A0000028CAD132464946204602F0A9FA18B1AD
:1015B000012007B0BDE8F08F20682021074AC161F3
:1015C000206843681340436084F8411084F8425017
:1015D000002084F84050ECE70220EAE700E800FE33
:1015E00010B5B6B00446142130A8FFF75FF8C0214B
:1015F0006846FFF75BF81A49206888422DD1002021
:10160000219008210446CDE90010684600F064FCF2
:1016100008B1FFF766F91348016841F00201016063
:1016200000680DF1C00C122100F0020035904FF45B
:10163000107004238CE8130003220B48CDE93323F8
:1016400030A9FFF791FC07480830016841F4001108
:101650000160006800F40010359036B010BD000045
:1016600000540040E04402580004025802488168D7
:1016700002781144816070470C000020032010B5EF
:1016800000F098FA01F0A0FA0F4A104914681368A4
:10169000C4F3032203F00F038A5CC95C02F01F024B
:1016A00001F01F01D0400A4A20FA01F111600949F6
:1016B00008600F2000F010F808B1012010BD00F004
:1016C0003DFA002010BD000018440258E8CE03087F
:1016D0001C0000201800002010B5102804468AB015
:1016E0002CD200220146362000F044FA362000F0C9
:1016F00033FA174804601748016841F0100101608F
:10170000006809A900F010000890684601F0E8F9A7
:101710000598B0B101F034FA40000F4900220F4C97
:10172000B0FBF1F10E4840F2E7330460C0E9033248
:10173000491EC0E9011201F008FE28B101200AB0DB
:1017400010BD01F01DFAE8E7054801F031FEF6E7AB
:1017500010000020E844025840420F0000100040F2
:101760006C0800202DE9F041044690F8A0001646D0
:101770000F4601281DD0012584F8A050022084F8CE
:10178000A10006EB860000EBC600342204EB8000CB
:101790003830FEF759FF32463946204602F022FA29
:1017A000216800204D6284F8A15084F8A000BDE8B3
:1017B000F0810220FBE770472DE9F0410446006804
:1017C00000274FF00408856B466B690715D5710734
:1017D00013D5426B22F0040242632068C0F83C80BB
:1017E000D4F8A40040F00100C4F8A40084F8A1805B
:1017F000204684F8A070FFF7DEFFA80716D5B007D3
:1018000014D520680222436B23F00203436320684F
:10181000C263D4F8A40040F00200C4F8A40084F825
:10182000A180204684F8A070FFF7C5FF05EA0600F6
:101830004FF00108C0070ED021684A6B22F0010268
:101840004A632168C1F83C8084F8A180204684F86E
:10185000A07000F075F8280710D530070ED5206865
:101860000822436B23F0080343632068C26384F8B3
:10187000A180204684F8A07000F010F9BDE8F08146
:101880002DE9F041040004D094F8A100002518B11E
:1018900007E00120BDE8F081204684F8A05000F068
:1018A00059F8022084F8A10020680123816921F001
:1018B00070418161D4E90010D4E90272266938438D
:1018C00032438E691043304388612268A08AA1693F
:1018D00041EA004191602268A08B216A41EA0041FF
:1018E000D1602268A08CA16A41EA0041116122689E
:1018F000A08D216B41EA00415161226894F83510B6
:1019000094F83600D66A000406F07F46D662226854
:1019100040EA012094F83460D16A31430143D16236
:101920002068416B41F0060141632068816941F004
:1019300001018161C4F8A45084F8A1300020A9E716
:1019400001684A6A42F001024A6240F2032100F053
:1019500083B80000F0B5B7B00446142130A8FEF7F4
:10196000A5FEC0216846FEF7A1FE364920688842E0
:1019700066D10DF1280E002102250C460122062316
:101980008EE82C0040041191CDE900010DA96846B4
:1019900005265F024FF4007C81E8E01000F09CFA1D
:1019A00008B1FEF79EFF2848016841F00801016078
:1019B000006800F0080035902348001F016841F4DA
:1019C00080610160016801F480613591016841F432
:1019D00000710160016801F400713591016841F402
:1019E00080710160006832AA032600F4807035908F
:1019F000FF20CDE930050E27144882E8D00030A939
:101A0000FFF7B2FA32AA4FF6FF70CDE93005104861
:101A100030A982E8D000FFF7A7FA4FF4704032AA4D
:101A2000CDE930050B4830A982E8D000FFF79CFAD9
:101A300000225820114600F09DF8582000F08CF844
:101A400037B0F0BD00100050E4440258002802589E
:101A5000002402580020025870B590F8A020012AF6
:101A600018D00D4D012380F8A030022280F8A1206B
:101A7000002450F8A02B566B26F00106566329640B
:101A800050F8A01C4A6B42F001024A634370047094
:101A9000204670BD022070BD00100050704700004D
:101AA000154BF0B5083B427813491A600B680A1FC2
:101AB00023F001030B6043681360057BC67A827ACA
:101AC000437B2D07847B45EA0665C77B90F809C0F8
:101AD000067A90F800E045EAC24040EA834040EAD6
:101AE000444040EA074040EA0C2040EA460040EA11
:101AF0000E000860F0BD0000A0ED00E0BFF35F8FB6
:101B0000044800210368034A23F4803303607032E1
:101B10001160704724ED00E0074A40F001000649DB
:101B200070321060086840F480300860BFF34F8F57
:101B3000BFF36F8F7047000024ED00E0054808B543
:101B4000016841F002010160006800F002000090AD
:101B500008BD0000F4440258002809DB410900F0E8
:101B60001F028900012001F1E0219040C1F800012D
:101B7000704700000E4BF0B41B680D46C3F3022300
:101B8000C3F10706042E00D90426191D072901D226
:101B9000002300E0DB1E012404FA06F19C40491EEC
:101BA0002940641E994014402143F0BC03F062B800
:101BB0000CED00E0064900F0070210B54FF6FF04F7
:101BC0000868044B204040EA02201843086010BD1A
:101BD0000CED00E00000FA05134970B50A68D24325
:101BE000520705D5096801F00701814213D118E0B9
:101BF0000A6822F0070202430A60FFF7D7FA0A4D8B
:101C00004FF47A760446083D07E000BFFFF7CEFAAE
:101C1000001BB04201D9012070BD2868C043800478
:101C2000F4D4002070BD00000C48025810B500F03C
:101C300085FF05490968054AC1F30211515C01F0AD
:101C40001F01C84010BD000020440258E8CE030820
:101C5000494930B5484C0B1D0A68143409681D68A1
:101C6000246802F00303C5F30012C1F30531C4F385
:101C7000CC04002914FB02F200EE102AF8EE400A10
:101C800075D03F4A9FED3D1AB7EE000A6BB1DFED0C
:101C90003D1A012B01D0022B64D002EE101A1168FC
:101CA000F8EE422A81EEA22A21E0334C283C236838
:101CB0009B0612D5344B246801EE901A1168C4F3C8
:101CC000C104F8EE612AE34001EE903AC1F3080145
:101CD000F8EE611A81EEA22A0BE001EE901ADFED18
:101CE0002B2A00BFF8EE611A116882EEA12AC1F317
:101CF000080101EE901A1168F8EE611A40EE811A9F
:101D000071EE800A62EE200AC1F3462101EE101A3C
:101D1000B8EE411A31EE001AC0EE811ABCEEE11A9B
:101D200080ED001A1168C1F3064101EE101AB8EEF9
:101D3000411A31EE001AC0EE811ABCEEE11A80EDB4
:101D4000011A1168C1F3066101EE101AB8EE411ACA
:101D500031EE000A80EE801ABCEEC10A80ED020A64
:101D600030BD04E001EE901ADFED092ABAE7002148
:101D7000016041608160F3E72844025800000039A7
:101D8000384402580024744A0090D0030024744C54
:101D900020BCBE4B494930B5484C0B1D0A681C3469
:101DA00009681D68246802F00303C5F30022C1F32B
:101DB0000551C4F3CC04002914FB02F200EE102AF2
:101DC000F8EE400A75D03F4A9FED3D1AB7EE000A83
:101DD0006BB1DFED3D1A012B01D0022B64D002EE76
:101DE000101A1168F8EE422A81EEA22A21E0334C43
:101DF000283C23689B0612D5344B246801EE901AC8
:101E00001168C4F3C104F8EE612AE34001EE903A90
:101E1000C1F30801F8EE611A81EEA22A0BE001EE8F
:101E2000901ADFED2B2A00BFF8EE611A116882EEDE
:101E3000A12AC1F3080101EE901A1168F8EE611AA7
:101E400040EE811A71EE800A62EE200AC1F346214B
:101E500001EE101AB8EE411A31EE001AC0EE811AE6
:101E6000BCEEE11A80ED001A1168C1F3064101EEE3
:101E7000101AB8EE411A31EE001AC0EE811ABCEE0B
:101E8000E11A80ED011A1168C1F3066101EE101A22
:101E9000B8EE411A31EE000A80EE801ABCEEC10A9B
:101EA00080ED020A30BD04E001EE901ADFED092A50
:101EB000BAE70021016041608160F3E728440258DD
:101EC00000000039404402580024744A0090D003B6
:101ED0000024744C20BCBE4B2DE9FE4F0546DFF8B4
:101EE000E48350F8081B0024F64FC943019005F124
:101EF0002800264608F12408009008011DD4A86E89
:101F000050B1B0F5801F0CD0B0F5001F0ED0B0F569
:101F1000401F1ED001240FE0386840F400303860C4
:101F200017E00198022102F0D5F803E000980221A1
:101F300002F060F904000CD026462888C043C00592
:101F400023D4A86D05281ED2DFE800F00C11161B63
:101F50001B00AA6ED8F8001021F440111143C8F8F4
:101F60000010EAE7386840F40030386009E0019872
:101F7000002102F0AFF803E00098002102F03AF9E6
:101F8000044674B100E0012426462888C043800539
:101F900028D4E86D80281ED00CDC90B140280ED1EA
:101FA00014E0AA6DD8F8001021F007011143C8F819
:101FB0000010EAE7C02813D0B0F5807F10D00124CC
:101FC0000FE0386840F40030386009E001980021E3
:101FD00002F080F803E00098002102F00BF90446BB
:101FE0009CB126462888DFF8DC92C04309F12C0911
:101FF00040052CD4D5F8A800B0F5800F20D00DDC1A
:10200000A0B1B0F5001F0FD115E0EA6DD8F80010AF
:1020100021F4E0711143C8F80010E3E7B0F5C00FF8
:1020200013D0B0F5000F10D001240FE0386840F451
:102030000030386009E00198002102F04BF803E01D
:102040000098002102F0D6F804467CB12646288884
:10205000C04300052DD4D5F8AC00B0F1007F21D0ED
:102060000EDCA8B1B0F1807F10D116E0D5F8A82021
:10207000D9F8001021F460011143C9F80010E6E717
:10208000B0F1407F13D0B0F1806F10D001240FE089
:10209000386840F40030386009E00198002102F00F
:1020A00019F803E00098002102F0A4F8044674B186
:1020B00026462868C04380011FD4E86CD8B1102898
:1020C0000FD0202812D0302815D0012414E0D5F8E4
:1020D000AC20D9F8001021F0E0611143C9F80010DC
:1020E000E7E7386840F40030386004E001980221E6
:1020F00001F0F0FF044674B126462888C043C004AE
:102100002BD4286EB0F5005F20D00DDCA0B1B0F567
:10211000805F0FD115E06B48EA6C2030016821F038
:10212000300111430160E8E7B0F5405F13D0B0F52E
:10213000804F10D001240FE0386840F40030386040
:1021400009E00198002101F0C5FF03E0009800219B
:1021500002F050F804468CB126462888C04380041B
:1021600029D4686EB0F5403F23D010DC08B3B0F539
:10217000803F14D0B0F5003F0FD115E02A6ED8F89B
:10218000001021F4E0411143C8F80010E5E7B0F574
:10219000802F0ED0B0F5A02F0BD001240AE00198BB
:1021A000012101F097FF03E00098012102F022F8DD
:1021B000044694B126462888C04340042AD4D5F862
:1021C000B000B0F1405F23D010DC08B3B0F1805F05
:1021D00014D0B0F1005F0FD115E06A6ED8F800108E
:1021E00021F4E0211143C8F80010E4E7B0F1804F7A
:1021F0000ED0B0F1A04F0BD001240AE001980121CC
:1022000001F068FF03E00098012101F0F3FF0446AC
:1022100074B126462888C04300041FD4286FD8B163
:10222000B0F1805F0ED0B0F1005F10D0012414E057
:10223000D5F8B020D9F8001021F0E0411143C9F8D9
:102240000010E7E7386840F40030386004E0019897
:10225000012101F03FFF044674B126462868C043BF
:10226000C0011ED4A86CD0B101280ED0022811D014
:10227000032814D0012413E02A6FD8F8001021F0AD
:1022800040511143C8F80010E8E7386840F40030C6
:10229000386004E00198022101F01CFF0446ACB153
:1022A00026462868DFF81CB0C043ABF11C0B400287
:1022B00052D40548016841F480710160FEF776FF51
:1022C000824611E02C44025800480258FA48AA6C91
:1022D000016821F0030111430160E2E7FEF766FFA8
:1022E000A0EB0A00642835D8F4480068C005F5D58D
:1022F0008CBBDFF8C4A3B5F8B4100AF1240ADAF8ED
:10230000000001F4407100F44070884211D0DAF806
:102310000010DAF8002021F4407142F48032CAF84B
:102320000020DAF8002022F48032CAF80020CAF82F
:102330000010D5F8B400B0F5807F1AD1FEF736FF53
:10234000029012E0FEF732FF0299411A41F2883002
:1023500081420AD9032426462878DFF85CA3C043CB
:102360000AF1080AC00721D03CE0DAF80000800733
:10237000E8D5D5F8B410C1F30120032858460DD094
:10238000016821F47C510160B5F8B420DAF800103E
:10239000C2F30B021143CAF80010DDE7C84A036814
:1023A00002EA111223F47C511143ECE7E86F18287C
:1023B00016D005DCA0B1082808D0102804D10AE006
:1023C00020280DD028280BD001240AE001980121F3
:1023D00001F080FE03E00098012101F00BFF0446AC
:1023E00064B126462878C04380071ED4A86F06280B
:1023F00019D2DFE800F0160C11161616EA6FDAF89B
:10240000001021F038011143CAF80010EAE70198E2
:10241000012101F05FFE03E00098012101F0EAFED6
:1024200004467CB100E0012426462878C0434007DA
:102430001FD4D5F89400062819D2DFE800F0160C56
:1024400011161616AA6FDAF8001021F007011143D1
:10245000CAF80010E9E70198012101F03BFE03E012
:102460000098012101F0C6FE0446A4B100E0012459
:1024700026462878C04380062BD4D5F89000B0F1CA
:10248000405F24D011DC10B3B0F1805F15D0B0F103
:10249000005F10D116E0D5F89420D9F8001021F093
:1024A00007011143C9F80010E3E7B0F1804F0ED0E7
:1024B000B0F1A04F0BD001240AE00198002101F0F7
:1024C00009FE03E00098022101F094FE044694B155
:1024D00026462878C04340062BD4D5F89C00B0F59A
:1024E000406F24D011DC10B3B0F5806F15D0B0F57B
:1024F000006F10D116E0D5F89020DAF8001021F026
:10250000E0411143CAF80010E3E7B0F5805F0ED058
:10251000B0F5A05F0BD001240AE00198002101F082
:10252000D9FD03E00098022101F064FE044694B155
:1025300026462878C04300062BD4D5F8A000B0F575
:10254000C04F24D011DC10B3B0F5005F15D0B0F54A
:10255000804F10D116E0D5F89C20D9F8001021F456
:10256000E0511143C9F80010E3E7B0F5004F0ED079
:10257000B0F5204F0BD001240AE00198002101F0B2
:10258000A9FD03E00098022101F034FE044654B195
:1025900026462878C04300071ED4D5F88400B0F53D
:1025A000805F0AD00FE0D5F8A020D9F8001021F400
:1025B00060411143C9F80010EBE70098022101F0D7
:1025C00019FE00B10126D5F88420DAF8001021F4B4
:1025D00040511143CAF800102878C043C00613D4F4
:1025E000D5F89800B0F5807F05D10098022101F060
:1025F00001FE00B10126D5F89820D9F8001021F489
:1026000040711143C9F800102868C043000316D474
:10261000D5F8A40038B1B0F5803F09D0B0F5003F3F
:102620000BD001240AE00198002101F053FD03E0E2
:102630000098022101F0DEFD04468CB12646286890
:10264000C043400322D4D5F88800B0F5801F11D0D4
:10265000B0F5001F13D0B0F5401F15D0012414E0D1
:10266000D5F8A420D9F8001021F440311143C9F85D
:102670000010E4E7386840F40030386004E0009867
:10268000012101F0B7FD04465CB126462868C0432D
:10269000C00323D4286DA8B1B0F5803F17D0012422
:1026A0001BE0D5F88820DAF8001021F4401111431E
:1026B000CAF80010EAE700004C44025800480258EB
:1026C000CFFFFF00386840F40030386004E0019824
:1026D000022101F0FFFC0446E4B126462868C0430D
:1026E000800005D40098022101F084FD00B101268C
:1026F0002868C04380031BD4D5F88000B0B1B0F582
:10270000807F0FD0B0F5007F10D0B0F5407F0DD0A6
:1027100001240CE05A482A6D016821F480311143EC
:102720000160DBE7386840F400303860ECB32646DF
:102730002868C043C00207D46A6FD8F8001021F09F
:1027400000411143C8F800102868C043C00008D4F5
:10275000D5F8B820DBF8001021F480411143CBF804
:1027600000102868C043800207D4EA6ED8F8001031
:1027700021F080711143C8F800102868C043400060
:102780000CD4DBF8001021F40041CBF80010DBF88A
:102790000010D5F8BC201143CBF800102868C043C6
:1027A00008D437486A6D016800E018E021F0405114
:1027B000114301602868C043000208D4D5F88C207A
:1027C000DAF8001021F440011143CAF8001028790A
:1027D0000024C04300F0010020430AD00FE0D5F8E8
:1027E0008020DAF8001021F440711143CAF800107B
:1027F0009EE70198002101F06DFC00B106462879A2
:10280000C04300F00200204305D10198012101F0EE
:1028100061FC00B106462879C04300F00400204363
:1028200005D10198022101F055FC00B10646287936
:10283000C04300F00800204305D10098002101F0BA
:10284000D9FC00B106462879C04300F010002043AF
:1028500005D10098012101F0CDFC00B10646287990
:10286000C04300F02000044304D10098022101F08D
:10287000C1FC00B916B10120BDE8FE8F0020FBE7C6
:102880004C4402582DE9F05F04000F467ED0DFF87B
:102890003882D8F8000000F00F00B8420CD2D8F807
:1028A000001021F00F013943C8F80010D8F80000DB
:1028B00000F00F00B84269D12078844D40070AD556
:1028C0002069296801F07001884204D9296821F043
:1028D00070010143296020787C4E361D00070AD51F
:1028E0006069316801F07001884204D9316821F0D3
:1028F0007001014331602078C0060AD5A0693168B3
:1029000001F4E061884204D9316821F4E0610143B7
:1029100031602078DFF8B4B180060BF1080B0CD5DC
:10292000E1695846DBF8002002F07002914204D9B8
:10293000026822F070020A430260207880070AD5FC
:10294000E068296801F00F01884204D9296821F064
:102950000F01014329602078C0073ED05B49A2687F
:102960002868183920F470601043286060680228D5
:1029700018D0032819D00968012819D0490700295F
:102980004ADADFF848A1AAF1080A00E044E0DAF8E0
:10299000002022F007020243CAF80020FEF706FCDE
:1029A000814612E009688903E9E709688901E6E7D9
:1029B000C905E4E7FEF7FAFBA0EB090141F2883014
:1029C000814202D90320BDE8F09F6168DAF8000077
:1029D00000F03800B0EBC10FECD1207880070AD5A9
:1029E000E068296801F00F01884204D2296821F0CB
:1029F0000F0101432960D8F80010404601F00F0193
:102A0000B9420BD9016821F00F0139430160006818
:102A100000F00F00B84201D00120D4E72078400731
:102A20000AD52069296801F07001884204D229681A
:102A300021F0700101432960207800070AD5606900
:102A4000316801F07001884204D2316821F07001D0
:102A5000014331602078C0060AD5A069316801F4CD
:102A6000E061884204D2316821F4E06101433160C1
:102A7000207880060CD5E1695846DBF8002002F08A
:102A80007002914204D2026822F070020A4302608E
:102A900000F09AF80E492A682B68C2F3032203F06B
:102AA0000F038A5CC95C02F01F0201F01F01D040D5
:102AB000084A20FA01F111600749086007480068D8
:102AC000BDE8F05FFEF708BE00200052184402582F
:102AD000E8CE03081C000020180000201000002091
:102AE00070B5144C3F220260124A24680832131D4C
:102AF000114D04F00704446016681C1D06F470664E
:102B00008660166806F00F06C660126802F0700252
:102B100002611A6802F0700242611A6802F4E0620F
:102B20008261226802F07002C261286800F00F0022
:102B3000086070BD104402580020005230B500F00B
:102B400043F80B4A0B490C4B15681468C5F3032274
:102B500004F00F048A5C095D02F01F0201F01F01FE
:102B6000D040064A20FA01F119601060084630BDD5
:102B700018440258E8CE03081C000020180000206A
:102B800000B5FFF7DBFF05490968054AC1F30211EB
:102B9000515C01F01F01C84000BD00001C440258F8
:102BA000E8CE030800B5FFF7C9FF05490968054AE3
:102BB000C1F30221515C01F01F01C84000BD0000BB
:102BC0001C440258E8CE0308454970B545480968D9
:102BD000434B103B11F0380208D00111082A03D0F2
:102BE000102A0BD0182A0BD0084670BD1968890628
:102BF000FBD51968C1F3C101C84070BD3A4870BD2A
:102C00003749374D18310C1D24350A680968266884
:102C10002D6802F0030406F00102C1F30511C5F3AB
:102C2000CC0515FB02F200EE102AB8EE400AE9B31B
:102C30002F4ADFED2E0AB7EE001A6CB1DFED2D1A28
:102C4000012C01D0022C43D002EE101A1068F8EECD
:102C5000422A81EEA22A1EE01C68A40611D51B6838
:102C600001EE901A1168C3F3C103F8EE612AD8404F
:102C700001EE900AC1F30800F8EE611A81EEA22A73
:102C80000BE001EE901ADFED1C2A00BFF8EE611A8E
:102C9000106882EEA12AC0F3080001EE900AF8EE57
:102CA000611A40EE201A31EE810A00E015E022EEB2
:102CB000000A1068C0F34620401C00EE900AF8EEAF
:102CC000600A80EE201ABCEEC10A10EE100A70BD38
:102CD00001EE901ADFED092AD8E7002070BD000050
:102CE000104402580090D00340787D010000003964
:102CF000304402580024744A0024744C20BCBE4B5B
:102D00002DE9F05F04007DD0FF4F2078FE4D18378D
:102D1000DFF8F493103DC00748D0D9F800003968B7
:102D200000F03800102815D0182803D101F0030056
:102D300002280FD06068B0F5803F12D010B1B0F516
:102D4000A02F18D0286820F480302860286820F44C
:102D5000802009E02868800328D560680028D2D048
:102D600024E0286840F480302860606888B1FEF76D
:102D70001DFA064609E0286840F480202860F0E744
:102D8000FEF714FA801B64286FD828688003F7D5F3
:102D90000CE0FEF70BFA064605E000BFFEF706FA68
:102DA000801B6428F0D828688003F7D4207841F28B
:102DB0000308D54E0C3E800769D5D9F80000396864
:102DC00010F038000ED0182801D188070AD0E0682A
:102DD00090B3296821F0190101432960FEF7E6F953
:102DE000824631E02868400702D5E06800288AD092
:102DF000E168286820F0190008432860FEF7D6F93A
:102E0000824607E0DFE000BFFEF7D0F9A0EB0A0042
:102E10000228B9D828684007F6D500BFFEF7C0F9E8
:102E200040451BD82069402812D0316821F47C31FC
:102E300041EA003030602AE018E000BFFEF7B6F942
:102E4000A0EB0A0002289FD828684007F6D5E5E7DE
:102E5000306820F47C3040F40030EBE7207C3168AF
:102E600021F0FE4141EA0060E4E70DE1286820F02E
:102E700001002860FEF79AF9824605E0FEF796F910
:102E8000A0EB0A0002288DD828684007F6D42078E5
:102E9000C0065DD5D9F80000DFF86CB2396800F0E3
:102EA0003800ABF1040B082810D0182803D101F02A
:102EB000030001280AD0E0690028286838D040F0D3
:102EC00080002860FEF772F9824623E02868C0057A
:102ED00023D5E069802876D11FE0206A202821D000
:102EE000316821F0F84141EA8060306030E000BF95
:102EF00094F82010DBF8002022F07C5242EA0161B5
:102F0000CBF8001024E000BFFEF750F9A0EB0A0058
:102F1000022898D82868C005F6D5FEF741F9404543
:102F2000E6D8DAE7306820F0F84040F08040DCE78F
:102F300020F080002860FEF739F9064605E000BF62
:102F4000FEF734F9801B02289DD82868C005F7D405
:102F50002078000729D56C486169643000298046D3
:102F6000016811D041F001010160FEF71FF906462A
:102F700005E000BFFEF71AF9801B0228C9D8D8F86F
:102F800000008007F6D510E021F001010160FEF796
:102F90000DF9064605E000BFFEF708F9801B022880
:102FA00072D8D8F800008007F6D42078800623D5A0
:102FB000A0690028286810D040F480502860FEF7EF
:102FC000F5F8064605E036E1FEF7F0F8801B02282A
:102FD0005AD828688004F7D50EE020F48050286085
:102FE000FEF7E4F8064604E0FEF7E0F8801B02284E
:102FF0004AD828688004F7D4207840074FD5DFF8F6
:103000000C81D8F8001041F48071C8F80010FEF768
:10301000CDF8064605E000BFFEF7C8F8801B64281F
:1030200032D8D8F80000C005F6D5374EA068603613
:1030300001280AD008B1052813D0306820F001001B
:103040003060306820F0040002E0306840F0010099
:103050003060A06841F2883A90B1FEF7A7F8804648
:103060000AE0306840F004003060EEE7FEF79EF8BA
:10307000A0EB0801514507D830688007F6D50EE06F
:10308000FEF794F8804607E084E000BFFEF78EF874
:10309000A0EB080151457DD830688007F6D4606AFE
:1030A000B0B3DFF86480D9F8001008F120084FF6BB
:1030B000F87B08F10409C1F3C2010329A8F1040A4D
:1030C00069D00228286820F08070286003D0FEF7BD
:1030D0006DF8044684E0FEF769F8064605E000BF97
:1030E000FEF764F8801B022877D828688001F7D49F
:1030F000E26A40F2F331386854F8283F884340EAE6
:1031000002101843386004E0104402580048025886
:10311000B5E0217B434622894FF4FE0C208A4FF014
:10312000FE474902267D521E401EA1F50071C2F3E2
:1031300008088AB2761E0CEA004042EA08020243FE
:10314000504607EA06610A431A60DAF8002022F0C6
:103150000102CAF80020D9F80020266A22EA0B02F0
:1031600042EAC602C9F80020DAF80010A26921F08C
:103170000C011143CAF800100168E26921F0020154
:1031800011430160016841F480310160016841F43C
:10319000003101E021E027E00160016841F4802175
:1031A0000160016841F001010160286840F0807011
:1031B0002860FDF7FBFF044605E000BFFDF7F6FFC2
:1031C000001B022809D828688001F7D557E000BF06
:1031D000FDF7ECFF001B022802D90320BDE8F09F99
:1031E00028688001F4D44AE039680128D8F8000042
:1031F00021D0A26A01F0030393421CD1E26AC1F319
:1032000005118A4217D1216BC0F30802491E8A4278
:1032100011D1616BC0F34622491E91420BD1A16BC3
:10322000C0F30642491E914205D1E16BC0F306602E
:10323000491E814201D00120D0E7A16C4E46D9F849
:103240000000C0F3CC00814219D0DAF800005546E6
:1032500020F00100CAF80000FDF7A8FF4FEA0007C0
:10326000FDF7A4FFB842FBD0A26C306820EA0B0047
:1032700040EAC2003060286840F001002860002069
:10328000ACE7000070B504000D4603D094F82C00A4
:1032900010B107E0012070BD002084F82D00204609
:1032A00000F018F8022084F82C002068211DFDF79A
:1032B00029FBD4E900022946FDF776FB04480121E9
:1032C000026842F00042026084F82C10002070BDB9
:1032D00000400052FDF7D2BD10B5044690F82C0016
:1032E000022804D094F82C00012801D0012010BD40
:1032F000022084F82C002068FDF739FB012084F8B7
:103300002C00002010BD000070B5044690F82C0081
:103310000D46022804D0012803D0052801D0012041
:1033200070BD022084F82C002068FDF729FB286876
:10333000022805D05FF0010084F82C00002070BD49
:103340000520F9E770477047704710B5040003D0B7
:1033500094F83D0010B107E0012010BD002084F872
:103360003C00204600F022F8022084F83D0020684E
:10337000211D01F0EBF8012084F8480084F83E009C
:1033800084F83F0084F8400084F8410084F842004B
:1033900084F8430084F8440084F8450084F846002B
:1033A00084F8470084F83D00002010BD70470000FD
:1033B00090F83D10012901D001207047174A0221E1
:1033C00080F83D100168CB6843F00103CB600068D2
:1033D000904214D0B0F1804F11D0114988420ED0E4
:1033E000104988420BD01049884208D00F498842C2
:1033F00005D00F49884202D00E49884207D1816822
:103400000D4A1140062906D0B1F5803F03D001686E
:1034100041F0010101600020704700000000014000
:103420000004004000080040000C0040000401407F
:1034300000180040004001400700010070472DE9DE
:10344000F041044600680027C6680569A90713D53E
:10345000B10711D5FA1E0261012121772068806928
:103460008007204602D0FFF7E9FF04E000F08BF868
:10347000204600F089F82777680716D5700714D51D
:10348000226802206FF004011161207720688069B2
:1034900010F4407F204602D0FFF7D0FF04E000F098
:1034A00072F8204600F070F82777280715D5300706
:1034B00013D5226804206FF008011161207720687D
:1034C000C0698007204602D0FFF7B8FF04E000F093
:1034D0005AF8204600F058F82777E80616D5F00687
:1034E00014D5226808206FF0100111612077206840
:1034F000C06910F4407F204602D0FFF79FFF04E030
:1035000000F041F8204600F03FF82777E80708D0A0
:10351000F00706D021686FF001000861204600F036
:1035200035F8280601D4A80408D5300606D5216848
:103530006FF4025008612046FFF705FFE80508D543
:10354000300606D521686FF4807008612046FFF7C9
:10355000F9FE680608D5700606D521686FF04000B0
:103560000861204600F022F8A8060AD5B00608D562
:1035700021686FF0200008612046BDE8F041FFF7A8
:10358000E3BEBDE8F08170477047000010B50068E9
:103590000549884206D1FEF769F8BDE810400120D0
:1035A0002CF0D0BB10BD000000100040704730B5BB
:1035B00090F88410012918D0012280F88420242159
:1035C000C0F888100022202401680B680D6823F0E1
:1035D000005325F001050D60426601680B60C0F8DC
:1035E000884080F88420104630BD022030BD70B580
:1035F000044690F8840001281DD0012284F884201C
:103600002420C4F8880020680568026822F00102BE
:1036100002602068826822F060620A43826020466D
:1036200000F0FAFF2268202100201560C4F88810FD
:1036300084F8840070BD022070BD70B5044690F817
:10364000840001281DD0012284F884202420C4F89D
:10365000880020680568026822F001020260206884
:10366000826822F060420A438260204600F0D4FF64
:103670002268202100201560C4F8881084F8840096
:1036800070BD022070BD10B5040003D0D4F88800CE
:1036900010B107E0012010BD002084F8840020460E
:1036A00000F026F82420C4F888002068016821F082
:1036B00001010160A06A10B1204600F0CFFF204652
:1036C00001F0B0F80128E6D02068416821F490416B
:1036D00041602068816821F02A01816020680168CA
:1036E00041F0010101602046BDE8104001F01AB828
:1036F00010B5B6B00446142130A8FCF7D7FFC0219E
:103700006846FCF7D3FF1A49206888422DD1002073
:103710001F9001210446CDE900106846FEF7DCFB4E
:1037200008B1FDF7DEF81348016841F010010160AF
:10373000006800F0100035900E481038016841F024
:103740000101016000680DF1C00C022100F00100D0
:1037500035904FF4C06007238CE81300032206481D
:10376000CDE9332330A9FDF7FFFB36B010BD0000D3
:1037700000100140F0440258000002582DE9F843BF
:103780000446D0F88800984616460D46202802D0F8
:103790000220BDE8F883A5B19EB10021C4F89010C5
:1037A0002120C4F888001834FDF700FD814654F844
:1037B000100CA687E6872027183CB0F5805F02D062
:1037C00003E00120E5E7206910B12E46002510E056
:1037D00000260EE08021204601F0FAF9C0B9DEB1E2
:1037E00016F8010B21688862B4F85600401EA4F850
:1037F0005600B4F856004B464FF00002CDF800805A
:103800000028E7D14FF04001204601F0E1F948B12E
:10381000C4F888700320BCE735F8020B2168C0F3B8
:103820000800E0E7C4F888700020B2E7FEE7002057
:10383000704701688A69D243920701D400228A62E4
:1038400000688169C943C90703D0816941F001015A
:1038500081617047002070472DE9F04704460068F9
:103860000026894617464FF0200835468169C9066B
:1038700041D51021C1612FE0B9F1FF3F2CD0FDF7F8
:1038800095FCC11B494502D8B9F1000F24D120682D
:10389000426894F84210836902F48042DB431B04BF
:1038A00015D4B2F5804F12D0202910D0416841F4D0
:1038B00080414160FDF77AFC074608E0FDF776FCA1
:1038C000C01B192803D9012645F0200504E0206813
:1038D0008069C0438006F1D420688069C0438006B7
:1038E00002D5002EC8D003E016B92168C1F81C80AB
:1038F000012645F0040521688869C20505D54FF405
:103900008072CA6145F00105012641050AD521688A
:1039100080054FF4806245F00805CA614FF001064A
:1039200002D40AE0800507D5206801264FF4007113
:1039300045F00205C16100E08EB12046FFF779FF36
:1039400020680021074F43683B404360606C284378
:10395000606484F8418084F8421084F84010304656
:10396000BDE8F08700E800FE3EB54FF47A748DE8BC
:103970001C000A46014604480223FDF7D3FC002838
:1039800001D04FF0FF303EBDDC0600202DE9F843AA
:10399000174604461548DAB2DDE908981E4600903D
:1039A0000023204600F056F842464946204600F0E3
:1039B000D3F8B8B9012EFDB208D02068390A816267
:1039C00042464946204600F0C7F858B9206885624B
:1039D000002240214B462046CDF8008000F052F8EE
:1039E000002800D00120BDE8F883000000200080FE
:1039F0002DE9F8430446164817461E46DAB20090F1
:103A0000C3022046DDE9089800F024F84246494602
:103A1000204600F0A1F8B8B9012EFDB208D0206808
:103A2000390A816242464946204600F095F858B965
:103A300020688562002280214B462046CDF8008018
:103A400000F020F8002800D00120BDE8F883000035
:103A50000020008070B50068C1F3090141EA02410D
:103A6000074D049C19434FF480664268214306EADF
:103A700054532B439A4321F000410A43426070BDE6
:103A8000FF63FF032DE9F0411D4617460E4604462D
:103A9000DDF8188028E0424629462046FFF7DCFE84
:103AA00010B10120BDE8F081681C1DD0FDF77EFB40
:103AB000A0EB0800A84200D8B5B92068806936EAB2
:103AC00000000FD00020B8420ED1626C002084F8B4
:103AD0004000202142F02002626484F8411084F802
:103AE0004200DEE70120EEE72068806936EA000048
:103AF00004D00020B842CED00020D3E70120F9E75F
:103B000070B516460D4604461FE03246294620464B
:103B1000FFF7A2FE08B1012070BDFDF747FB801B37
:103B2000A84200D88DB920688069C04380060CD5B2
:103B3000626C002084F84000202142F02002626480
:103B400084F8411084F84200E5E720688069C043AA
:103B50008006DAD4002070BD70B516460D460446C6
:103B600021E0324629462046FFF776FE08B10120C3
:103B700070BD681C17D0FDF719FB801BA84200D848
:103B80008DB920688069C04380070CD5626C002025
:103B900084F84000202142F02002626484F8411041
:103BA00084F84200E3E720688069C0438007D8D4E6
:103BB000002070BD3EB54FF47A748DE81C000A46B3
:103BC000014604480223FDF75FFC002801D04FF0B6
:103BD000FF303EBDDC0600200148FDF7EDBD0000D2
:103BE000300700202DE9FC4F82468D888946934698
:103BF0008820DAF800108C2300EBCB149422A64620
:103C0000C868C0F30B4028440D59040403EBCB10E3
:103C100005F47045CDE9000441F80E509C23D9F815
:103C2000004003EBCB164FF0AC0C982340F2077723
:103C300002EBCB11A02503EBCB1205EBCB13DAF88B
:103C400000500CEBCB1CD5F80C80C8F30B4808F1E6
:103C50000108A044019C48EA040845F80E80DAF8FF
:103C60000040B9F80C50D4F80C802058C8F30A086A
:103C7000454400F47048009844F80080DAF80040A9
:103C8000D9F80800D4F80C80C8F30A0808F1010834
:103C90008044009848EA054844F80080DAF80000BB
:103CA000445824F007044450DAF80040D9F81000D2
:103CB000605099F8310099F81810040299F8320010
:103CC000000440EA016099F8301021430143DAF81A
:103CD00000008151DAF80000815821F0FF01815085
:103CE000DAF80000D9F814108150DAF80000C15851
:103CF000B943C150DAF80010D9E907021043C8509F
:103D0000DAF80010D9F8240041F80C00D9F81000B6
:103D1000C8B301283AD004283AD0022838D0032862
:103D200036D0072834D00120DAF80030B02505EB72
:103D3000CB11B42284245D5802EBCB1205F0E025B0
:103D40005D50D9E9003504EBCB14EB1AB9F82850D3
:103D500043434543DAF80000DB1D43EA0543435083
:103D6000DAF8000081586FF30A018150DAF8000098
:103D7000D9F82C108150DAF80000015941F0010106
:103D80000151BDE8FC8FFFE70420CDE70320CBE71E
:103D90000220C9E7104801220E4B002110B5036034
:103DA000C0E90112C160C0E91112C1640165416539
:103DB0008165C165FCF7ECFF08B1FCF792FD064890
:103DC0000121FCF7F3FE002803D0BDE81040FCF70A
:103DD00088BD10BD0010005240060020F0B58BB029
:103DE0001C216846FCF762FC1A480021184E4FF06F
:103DF000040C07914FF0010E089120250991022231
:103E00000A914FF4C0770660402641600723C0E95D
:103E100002EC05614FF4006CC0F820C0D502466189
:103E20000524C0E90671C0E909518DE81C00CDE9FF
:103E30000442694603930692FFF724FA08B1FCF79F
:103E400050FD044807A900F06CFA0BB0F0BD00006B
:103E500040410052A806002070B586B01421684683
:103E6000FCF724FC3A48016841F480710160016864
:103E700001F480710591016841F48061016001687D
:103E800001F480610591016841F010010160016851
:103E900001F010010591016841F002010160016823
:103EA00001F002010591016841F4007101600168AF
:103EB00001F400710591016841F0010101600168A0
:103EC00001F001010591016841F080010160016884
:103ED00001F080010591016841F004010160016871
:103EE00001F004010591016841F0400101600168A1
:103EF00001F040010591016841F00801016001688D
:103F000001F008010591016841F02001016000689D
:103F10000122104E150200F020002946059030467F
:103F2000FDF738F9012003210024CDE90050CDE947
:103F3000024169463046FDF717F880206946CDE911
:103F4000000405480294FDF70FF806B070BD0000AC
:103F5000E044025800000258001C02581348002197
:103F600010B5114C0123124A0460C0E90121C0E9D7
:103F7000033141618161C1610162FDF773F908B1EB
:103F8000FCF7AFFC09480021FDF716F908B1FCF772
:103F9000A8FC06480021FDF73BF9002803D0BDE846
:103FA0001040FCF79EBC10BD00540040DC06002011
:103FB000DB3FB000F0B58DB034216846FCF776FBEE
:103FC00027480024254D2F21022240F2A7368723BF
:103FD00040F2022705602225446040F2CF3C846015
:103FE00040F20F2EC4600461143080E8EE5080F877
:103FF000204080F8214080F822401438FDF740FC32
:1040000008B1FCF76EFC4FF448704FF4F0710127D3
:104010000497CDE90040CDE90A0107A8BA020523BB
:104020004D06CDE9024180E82C00FF260C48CDE981
:1040300005648DF8304000228DF8314069468DF8D6
:104040003240FDF78FFB08B1FCF74BFC044840F20F
:104050000321FDF701FD0DB0F0BD00000010005080
:10406000300700201848002110B5164C0C224FF4E0
:10407000E1330460C0E90131C160C0E9041281612B
:10408000C161016241628162FFF7FDFA08B1FCF78C
:1040900028FC0D480021FFF7D0FA08B1FCF721FCFD
:1040A00009480021FFF7A3FA08B1FCF71AFC0648FB
:1040B000FFF77DFA002803D0BDE81040FCF711BCE3
:1040C00010BD000000100140D8070020FEE7FEE709
:1040D000704700002DE9F047454D044689464FF0F2
:1040E000000A2868C04380070AD0414E283E306845
:1040F00020F080603060FDF759F80746B04608E0D0
:104100000120BDE8F08700BFFDF750F8C01B022872
:1041100067D8D8F800000001F6D4206829684FF469
:10412000FE0721F47C313E0241EA00302860207A0B
:10413000A389B4F804C040022D4D2D495B1E227C9A
:10414000ACF1010C1035091DA0F5007080B2521EB3
:10415000CCF3080C07EA034340EA0C00184306EAD4
:104160000262104328600868626920F0C0001043B2
:1041700008600A68A06922F0200202430A60281D34
:104180000A6822F010020A6002684FF6F873E469C8
:104190009A4342EAC40202600868B9F1000F40F095
:1041A00010020A6011D00868B9F1010F11D040F473
:1041B00000100860D8F80000444640F08060C8F85D
:1041C0000000FCF7F3FF05460DE0086840F400200E
:1041D000EFE740F48010ECE7FCF7E8FF401B022813
:1041E00001D903208DE720680001F5D5504688E706
:1041F000284402582DE9F047454D044689464FF0C2
:10420000000A2868C04380070AD0414E283E306823
:1042100020F080503060FCF7C9FF0746B04608E048
:104220000120BDE8F08700BFFCF7C0FFC01B0228DB
:1042300067D8D8F800008000F6D4208829684FF4A9
:10424000FE0721F07C713E0241EA00502860207A8E
:10425000A389B4F804C040022D4D2D495B1E227C79
:10426000ACF1010C1835091DA0F5007080B2521E8A
:10427000CCF3080C07EA034340EA0C00184306EAB3
:104280000262104328600868626920F440601043AD
:1042900008600A68A06922F4007202430A60281DBF
:1042A0000A6822F480720A6002684FF6F873E469C3
:1042B0009A4342EAC40202600868B9F1000F40F470
:1042C00080720A6011D00868B9F1010F11D040F076
:1042D00080700860D8F80000444640F08050C8F86C
:1042E0000000FCF763FF05460DE0086840F480001D
:1042F000EFE740F40000ECE7FCF758FF401B022812
:1043000001D903208DE720688000F5D5504688E765
:104310002844025830B4044600892469A44630BCBD
:1043200060472DE9F84310270C4600254FF6FF782B
:1043300001260095C4E90067C4E90265814642464A
:10434000FEF7E2FF0120FCF787FD02204246C4E9A8
:104350000007C4E9026521464846FEF7D5FF032160
:1043600042460820C4E90017C4E902052146484630
:10437000FEF7CAFF4FF40C70009004214246C4E9D6
:104380000017C4E9026021464846FEF7BDFF4846D3
:1043900040F20361BDE8F843FEF79EBF70477047E7
:1043A00070B59CB04C216846FCF780F9202113A819
:1043B000FCF77CF90220FDF70FFC2148002421497D
:1043C000026842F44042026002680A6842F0010258
:1043D0000A60096801F001011B9101688904FCD59C
:1043E0000DF1280C022009900521C0228CE807005D
:1043F000C6030F9008250D9001230E90CDE91054AF
:10440000CDE9003668461294FEF77AFC08B172B620
:10441000FEE740201A903F210301CDE91650032208
:10442000CDE9180313AB13A883E816000421FEF7A7
:1044300029FA002801D072B6FEE71CB070BD00005A
:10444000184802582C0400583348F0B5334A016824
:1044500041F470010160106800F00F00072804D2D9
:10446000106820F00F00C01D10602D4900202C4C5A
:1044700010340B682B4D43F001030B6020600B6878
:104480002B400B60136803F00F03072B04D913684C
:1044900023F00F03DB1D1360214C234A1834234BF8
:1044A000261D371D20601E4C214D28343060261DEE
:1044B0003860371D23603B1D35601C1D3A60251D8B
:1044C0002E1D1860331D22602860326018600A6853
:1044D000134B184C22F4802260330A601860206865
:1044E0006FF30F00B0F1005F03D213490120C1F850
:1044F00008010B48D4300168C9040BD4026843F2A8
:10450000D2010E4B42F4805202601960016821F41E
:1045100080510160F0BD000088ED00E000200052F5
:10452000004402587FEDF6EA800201010002020217
:104530000000FF010010005C0080005100400052AC
:104540000148FEF77CBF00006C0800202DE9F04711
:10455000294B4FF0804A294D02689842284E294F36
:10456000294C09D0504507D0A84205D0B04203D00D
:10457000B84201D0A04205D1D1F804C022F07002A7
:104580004CEA0202DFF884C0DFF884809842DFF84A
:1045900084900FD050450DD0A8420BD0B04209D026
:1045A000B84207D0A04205D0604503D0404501D0B5
:1045B000484503D1CD6822F440722A438E684D6984
:1045C00022F08002C6620E682A439842866207D0B3
:1045D000A04205D0604503D0404501D0484501D1F7
:1045E000096901630368012143F004030360416129
:1045F0000260BDE8F08700000000014000040040B8
:1046000000080040000C0040000401400040014050
:10461000004401400048014030B5416EB9B1016825
:104620000D4B03F108048A688968C2F34262490F9E
:104630005D5C615C2D01B5FBF1F1A0F86A10995C3D
:10464000A25C0901B1FBF2F1A0F8681030BD0121B4
:10465000A0F86A10F8E70000D8CE030890F82810F8
:10466000090706D50168836B4A6822F400421A43A1
:104670004A6090F82810C90706D00168C36A4A68E2
:1046800022F400321A434A6090F82810890706D5B0
:104690000168036B4A6822F480321A434A6090F83A
:1046A0002810490706D50168436B4A6822F4802226
:1046B0001A434A6090F82810C90606D50168C36BF2
:1046C0008A6822F480521A438A6090F8281089067A
:1046D00006D50168036C8A6822F400521A438A6086
:1046E00090F82810490611D50168436C4A6822F4F5
:1046F00080121A434A60416CB1F5801F06D10168EF
:10470000836C4A6822F4C0021A434A6090F8281069
:10471000090606D50168C26C486820F400201043E1
:10472000486070472DE9F84300250446C0F89050D2
:10473000FCF73CFD8046206820266FF07E4700682D
:10474000000713D50022434631042046009700F0AD
:104750003FFA58B1216851E8000F20F0800041E88D
:104760000002002AF6D1C4F8886021E020680068C1
:10477000400722D5002243464FF48001204600978F
:1047800000F026FAC8B1206850E8001F21F49071AB
:1047900040E80012002AF6D12068083050E8001FD7
:1047A00021F0010140E80012002AF5D1C4F88C6024
:1047B000032084F88450BDE8F883C4F88860C4F806
:1047C0008C60E5662567002084F88450F3E70000DC
:1047D00010B5026852E8001F21F4907142E80013FE
:1047E000002BF6D10E4B0268083252E8001F194028
:1047F00042E80014002CF6D1C16E012908D10268EC
:1048000052E8001F21F0100142E80013002BF6D1FE
:1048100000212022C0F88C20C166416710BD000035
:10482000FEFFFFEF2DE9F04304468068D84E87B0C5
:10483000D84B2168D4E90427D4F81CC010430A6877
:10484000002547EA0C073843324002430A602068DB
:10485000E268416821F44051114341602268A16936
:104860009A4201D0206A01439768DFF82CC3CB4EEF
:10487000CB4807EA0C070F4397602168676ACA6A4A
:1048800022F00F023A43CA622268B2420ED1006897
:1048900000F03800182873D047DCB8B3082879D066
:1048A00010286FD178E028287ED17BE0BD498A426C
:1048B00009D1006800F00700062875D2DFE800F093
:1048C000546A6C6E7072B8498A4209D1006800F06F
:1048D0000700062868D2DFE800F0475D5F61636586
:1048E000B2498A4209D1006800F0070006285BD26D
:1048F000DFE800F03A5052545658AD498A420BD185
:10490000006800F0070006284ED200E010E0DFE863
:1049100000F02B4143454749A6498A420AD1006825
:1049200000F03800182839D0B7DD2028BBD13CE092
:1049300001203AE0A0498A4209D1006800F007004E
:10494000062831D2DFE800F01026282A2C2E9B49B9
:104950008A420BD1006800F00700062824D2DFE865
:1049600000F003191B1D1F2100201EE09A421BD1DD
:104970008B48001D006800F00700062814D202E0F2
:104980000CE007E010E0DFE800F0030507090B0D7D
:1049900002200AE0042008E0082006E0102004E0DD
:1049A000202002E0402000E080208549DFF81482CA
:1049B0009A42854A4FF400434FEA21174FF0000610
:1049C0004ED110281AD006DC022809D004280BD0BA
:1049D00008287CD10DE020283ED0402877D13DE04A
:1049E000FDF724F9014610E06846FDF731F9019919
:1049F0000BE003A8FDF7CEF9049906E010688006E5
:104A000005D51068C0F3C100C140002970D0606AAC
:104A1000676838F8102007EB4703B1FBF2F08342D8
:104A200055D8B0EB073F52D8002308461946FBF78C
:104A3000CCFC02467808130E120243EA012110183A
:104A40003A4671410023FBF7C0FC604AA0F5407173
:104A500091423CD821688FE03946D8E71946D6E71D
:104A6000D4F81CC04FF6EF799C4546D1082819D0E0
:104A700005DC58B101280CD0042875D10DE01028B0
:104A800015D0202835D040286ED134E0FEF778F8D4
:104A900001E0FEF787F8014610E06846FDF7D8F818
:104AA00001990BE003A8FDF775F9049906E0106879
:104AB000800604D51068C0F3C100C140C1B1636A6B
:104AC000606838F81330B1FBF3F1490000E04BE0C7
:104AD00001EB5001B1FBF0F0A0F11001494543D8C2
:104AE0004FF6F0732168C0F342021840104343E0D0
:104AF00043E03946E3E71946E1E7082819D005DC29
:104B000058B101280CD004282ED10DE0102815D062
:104B100020282BD0402827D12AE0FEF731F801E0E9
:104B2000FEF740F8014610E06846FDF791F801995C
:104B30000BE003A8FDF72EF9049906E01068800643
:104B400004D51068C0F3C100C140B1B1636A6068A8
:104B500038F81330B1FBF3F101EB5001B1FBF0F089
:104B6000A0F11001494505D9012506E03946EDE7D8
:104B70001946EBE7216880B2C8600120A4F86A00FA
:104B8000A4F8680028466667A66707B0BDE8F0830A
:104B9000F369FFCF000C0058FFF4FF110010014033
:104BA000544402580044004000480040004C00407B
:104BB000005000400014014000780040007C00409C
:104BC0000090D003C0CE030800440258FFFC0F0041
:104BD0002DE9F047994617460D460446089E4FF0CA
:104BE000000833E0701C31D0FCF7E0FAA0EB0900BC
:104BF000B04218D8BEB120680168490726D5802D7B
:104C000024D0402D22D0C169C94309070DD40825FD
:104C100005622046FFF7DCFDC4F89050012084F8BF
:104C20008480BDE8F0870320FBE7C069C04300052E
:104C30000CD421684FF4006008622046FFF7C8FDDD
:104C40002021C4F8901084F88480ECE72068C069C3
:104C500035EA000004D00020B842C3D00020E0E7CD
:104C60000120F9E7FEE730B404460089E468A44671
:104C700030BC6047090700284FEA116104DB00F1EE
:104C8000E02080F80014704700F00F0000F1E020F1
:104C900080F8141D704770B5002504466FF02F068C
:104CA00008E0206805EB8502411C216006EB42020A
:104CB000007885182068007800F02CF80028F0D1E2
:104CC000284670BD70B514460D461BB9114618F044
:104CD0007BFB0346142C03FB05F00ED0E11F0329D8
:104CE0000AD8072C0DD0082C0DD0092C0DD00A2C79
:104CF0000DD0002100EB810070BD590801FB0500BB
:104D000070BD0221F6E70421F4E71021F2E74FF429
:104D10008071EFE73038092801D801207047002062
:104D200070472DE9FC5F9B4681460CAB8A46DDE966
:104D30001160DDE90F5793E812105FEA80784FF0B9
:104D400030031AD45EB15FEAC07808D000F00C08D6
:104D500058EA0C0803D0761E01E00B55641CBC42D7
:104D600004D2202CF9D301E00B55641C5FEAC07813
:104D700003D0B44201D2202CF6D35FEAC06825D517
:104D80005FEA40580AD44CB1BC4201D0B44205D1CC
:104D9000641E03D0102D03D1641E04E0102D02D038
:104DA000022D0AD00EE0850603D4202C1ED27825D1
:104DB00006E0202C1AD2582502E0202C16D26225BB
:104DC0000D55641C202C11D20B55641C202C0DD2C7
:104DD000BCF1000F01D02D2306E0430701D52B23A2
:104DE00002E0030702D520230B55641CC846CDE919
:104DF00000BA15468B468146AA46800714D127463D
:104E000007E02A46C4466D1C2020DDE90031E0475A
:104E10007F1CB742F5D307E02A466D1C641EDDE90E
:104E200000311BF80400C047002CF5D15FEA8970FF
:104E300006D409E02A466D1C2020DDE90031C04778
:104E4000A5EB0A00B042F5D32846BDE8FC9F2DE94A
:104E5000F04F8FB099468B46924686464FF000023F
:104E6000DDE91818DDE91C63DDE91A4709B923F00B
:104E7000100307AD580500D5C9B1B1FBF4F004FB30
:104E80001010C0B20A2801D2303009E05FEA836C0A
:104E900002D54FF0410C01E04FF0610C60440A383C
:104EA000B1FBF4F1A854521C09B1202AE5D3CDF886
:104EB00008805946CDE90563CDE90052CDE90347A5
:104EC0004B4652467046FFF72CFF0FB0BDE8F08FFF
:104ED0002DE9FF4F8FB01CACDDE9239594E8030862
:104EE00020AC94E8C004002450EA010201D125F06E
:104EF00010050DF11C086A0502D550EA010217D011
:104F000032463B46FBF761FAD2B20A2A01D230326E
:104F100006E0AB0601D5412300E061231A440A3ABA
:104F200008F80420641C50EA010201D0202CE7D3C9
:104F3000CDE900840FAFCDF808B0CDE90595CDE9F6
:104F4000036A97E80F00FFF7ECFE13B0BDE8F08F9F
:104F50009A4200D2885470477047704770B5040079
:104F60000D4611D08DB101F094F800280BD0616886
:104F7000006913F072FCE16B064628468847E16839
:104F80000844E060304670BDFEE7FEE72DE9FF41D2
:104F900014461E460D460746DDF828800A4621467F
:104FA000684612F004FA00281BD0D4E9003C0199AD
:104FB0000098A1EB0C042A68C31A08FB0471304462
:104FC000841A68465D1812F0DFF9002107E0625C80
:104FD0006B5C1A44FF2A00D9FF226254491C8142AB
:104FE000F5D3BDE8FF814FF0000210B568B14B1E4C
:104FF000194200D0FEE70844401E9843B0F5003F38
:1050000003D20C2800D80C200246104610BD000028
:105010002DE9F04F064691B0D6E9017096F821B01F
:1050200035688046F0680F90D6E906400E90D6E9C4
:1050300004A009900AA814F084FF96F8220008B191
:105040000020C5E0BAF1000F06D04FF00000BBF120
:10505000FD0F814665D28AE0BBF1FD0F4FF00000E5
:1050600016D21BE000260BE004EB460005EB4601E0
:105070000AAA0088ADF80400019814F0ABFB761C76
:10508000BE42F1DB0F9805440E98044409F101007B
:1050900040458146E6DB11B0BDE8F08F40458146D2
:1050A000F9DA002613E000BF04EB46000AAA0088E4
:1050B000ADF804009DF8051011FB0BF005EB46015F
:1050C000000A8DF80500019814F084FB761CBE429E
:1050D000EADB0F9805440E98044409F10100DDE76E
:1050E000002614E004EB46000AAA0088ADF8080088
:1050F0009DF809101AF8060011FB00F005EB4601B7
:10510000000A8DF80900029814F064FB761CBE4278
:10511000E8DB0F9809F10109099905440E988A44C2
:105120000444C145DCDBB6E7002616E004EB46008C
:105130000AAA0088ADF808009DF809101AF80600C0
:1051400011FB00F101FB0BF1080C8DF8090002982E
:1051500005EB460114F03EFB761CBE42E6DB0F98E1
:1051600009F10109099905440E988A440444C1458E
:10517000DADB90E700201DE004EB4901BAF1000FF3
:105180000888ADF8080027D09DF809201AF8090012
:1051900012FB00F000FB0BF05FEA10408DF80900F5
:1051A00096F8222005EB490002990AAB03F034FD82
:1051B00009F10100B8428146DEDBBAF1000F01D0EF
:1051C00009998A440F9805440E9804440398401C9A
:1051D00003904045CEDB5EE79DF8091011FB0BF014
:1051E000000ADBE72DE9F04F064690F8220095B063
:1051F0000028D6E9017096F821B035688046F0683D
:105200000E90D6E906400C90D6E904900A9004D09E
:1052100010A814F0AAFE0020D1E0B9F1000F06D0CA
:10522000BBF1FD0F4FF0000068D3834663E0BBF194
:10523000FD0F4FF0000019D21EE000BF4FF0000933
:105240004E460BE004EB460005EB8901427814F86A
:10525000160014F0D4FC761C09F10109BE42F1DB02
:105260000E9805440C9804440AF10100404582461A
:10527000E4DB15B0BDE8F08F40458246F9DA4FF027
:1052800000094E460FE000BF04EB460005EB890124
:10529000437814F8160013FB0BF2120A14F0AFFC5B
:1052A000761C09F10109BE42EEDB0E9805440C980C
:1052B00004440AF10100DFE74FF0000A564610E00F
:1052C00004EB460119F8063014F816004A7805EB8D
:1052D0008A0112FB03F2120A14F091FC761C0AF107
:1052E000010ABE42ECDB0E980BF1010B0A99054452
:1052F0000C9889440444C345DEDBBAE7059021E0FD
:105300004FF0000A564612E004EB460119F8063049
:1053100014F816004A7805EB8A0112FB03F303FB2D
:105320000BF31A0C14F06BFC761C0AF1010ABE4256
:10533000EADB0E9805440C9804440598401C05903F
:105340000A9989444045DBDB93E70020039028E07D
:1053500014F81A10B9F1000F029861F3174061F3C5
:105360000F2061F307002ED0039A04EB4A0319F8CB
:1053700002105A7812FB01F101FB0BF15FEA1141B7
:1053800010AB61F31F600290039896F822200299F7
:1053900005EB800003F070FC0398401C03900AF1B9
:1053A0000100B8428246D3DBB9F1000F01D00A995F
:1053B00089440E9805440C9804440598401C0590B7
:1053C0004045C2DB55E704EB4A014A7812FB0BF17A
:1053D000090AD5E72DE9F04F054687B0D5E9016701
:1053E00090F821B000680090E8680190D5E9064087
:1053F0000390D5E904900490686AC11700EB5171DD
:1054000021F00701A0EB010A95F8220008B1002065
:105410002AE1B9F1000F06D0BBF1FD0F4FF00000FB
:1054200072D38346A7E0BBF1FD0F4FF000002FD2EF
:1054300034E000BF4FF0000845461FE008EB0A01CA
:1054400000988B460BF061FB04EB4501C0EB00209C
:105450008DF8080014F815004A7802A914F0EEFB44
:105460009DF8080059467F28009802D932F01AFDAD
:1054700001E005F0E7FB6D1C08F10108B542DDDB3A
:10548000DDE90010084400900398044409F101008C
:10549000B8428146CEDB07B0BDE8F08FB842814606
:1054A000F9DA4FF00008454623E000BF009808EB0A
:1054B0000A0102910BF029FBC0EB00208DF81000CF
:1054C00004EB4500427814F8150012FB0BF10A0AB0
:1054D00004A914F0B3FB9DF8100002997F280098EE
:1054E00002D932F0DFFC01E005F0ACFB6D1C08F1E5
:1054F0000108B542DADBDDE90010084400900398AA
:10550000044409F10100C9E738E000BF4FF000088A
:10551000454624E0009808EB0A0102910BF0F5FAE9
:1055200004EB4501C0EB00208DF8140019F80520AC
:10553000497814F8150011FB02F10A0A05A914F0C4
:105540007DFB9DF8140002997F28009802D932F063
:10555000A9FC01E005F076FB6D1C08F10108B542DD
:10556000D8DBDDE900010BF1010B08440090039842
:10557000049904448944BB45C8DB8CE7059037E0B7
:105580004FF00008454626E0009808EB0A0102911A
:105590000BF0BBFA04EB4501C0EB00208DF81800BE
:1055A00019F80520497814F8150011FB02F101FBE8
:1055B0000BF10A0C06A914F041FB9DF818000299A2
:1055C0007F28009802D932F06DFC01E005F03AFB2B
:1055D0006D1C08F10108B542D6DBDDE90010084476
:1055E000009003980499044405988944401C059050
:1055F000B842C5DB4FE70020059025E014F81810ED
:10560000B9F1000F029861F3174061F30F2061F3C5
:1056100007002DD004EB480319F808105A7812FB44
:1056200001F202FB0BF2110C61F31F60059902906D
:10563000024695F822305144009803F090FB0598FB
:10564000401C059008F10100B0428046D6DBB9F15C
:10565000000F01D004998944DDE90001084400905D
:10566000039804440698401C0690B842C3DB12E736
:1056700004EB48014A7812FB0BF1090AD4E7000059
:105680002DE9F04F064690F8220091B00028D6E9A7
:10569000017096F821B035688046F0680F90D6E921
:1056A00006400D90D6E904900B9001D00020C8E090
:1056B000B9F1000F06D0BBF1FD0F4FF0000067D32A
:1056C000834662E0BBF1FD0F4FF0000018D21DE0F1
:1056D0004FF000094E460BE004EB460005EB0901D4
:1056E000427814F8160014F0B8FA761C09F1010992
:1056F000BE42F1DB0F9805440D9804440AF1010005
:1057000040458246E4DB11B0BDE8F08F404582465B
:10571000F9DA4FF000094E460FE000BF04EB4600F7
:1057200005EB0901437814F8160013FB0BF2120A7B
:1057300014F093FA761C09F10109BE42EEDB0F98D2
:1057400005440D9804440AF10100DFE74FF0000A18
:10575000564610E004EB460119F8063014F816001E
:105760004A7805EB0A0112FB03F2120A14F075FAEB
:10577000761C0AF1010ABE42ECDB0F980BF1010B1B
:105780000B9905440D9889440444C345DEDBBAE710
:10579000049021E04FF0000A564612E004EB460167
:1057A00019F8063014F816004A7805EB0A0112FBC6
:1057B00003F202FB0BF2120C14F04FFA761C0AF102
:1057C000010ABE42EADB0F980B9905440D98894403
:1057D00004440498401C04904045DBDB93E7002020
:1057E000039020E014F81A10B9F1000F009861F34B
:1057F000174061F30F2061F3070026D0039A19F8D0
:10580000022012FB0BF1090A61F31F60009003985C
:1058100096F822200099284403F0E2FA0398401CED
:1058200003900AF10100B8428246DBDBB9F1000FB8
:1058300001D00B9989440F9805440D9804440498AD
:10584000401C04904045CADB5DE76BF31F60DDE759
:105850002DE9F04F814690F8220093B00028D9E955
:105860000170824699F821001090D9F80040D9F8CB
:105870000C000F90D9E906500E90D9E904B00D90B4
:1058800001D0002050E11098BBF1000F05D0FD2899
:105890004FF00000814666D28BE0FD284FF00000FB
:1058A0001AD21FE00026B0460EE000BF05EB48000C
:1058B00034F81610427815F8180014F023F924F87B
:1058C0001600761C08F10108BE42EFDB0F98044475
:1058D0000E98054409F1010050458146E2DB13B002
:1058E000BDE8F08F50458146F9DA0026B04611E058
:1058F00005EB48004178109811FB00F215F81800EC
:1059000034F81610120A14F0FDF824F81600761C6C
:1059100008F10108BE42EBDB0F9804440E980544E1
:1059200009F10100DEE70026B04612E005EB480071
:105930001BF80610407810FB01F215F8180034F837
:105940001610120A14F0DEF824F81600761C08F17E
:105950000108BE42EADB0F9809F101090D990444E0
:105960000E988B440544D145DDDBB8E70026B046F0
:1059700015E000BF05EB48011BF80600109A4978B6
:1059800011FB00F315F8180034F8161053431A0CE5
:1059900014F0B8F824F81600761C08F10108BE428D
:1059A000E8DB0F9809F1010904440E9805440D98AD
:1059B0008344D145DADB92E7002606960894A5E0F9
:1059C000069899F82220012A15F810104FEAD10004
:1059D0004FEA910125D0022A4BD0032A66D0042A2F
:1059E000C3D1089A32F816E0C0EBDE23002B01DCAD
:1059F000A0EBDE234FF6FF78CEF3451CACEB0102A3
:105A0000002A08EAC32801DCA1EB0C020EF01F03F8
:105A1000191A08EB421292B2002900DCC11A881848
:105A20001BE0089A32F8168000EBD8221F2A00D318
:105A30001F224FF6FF73C8F3451C61443F2903EA58
:105A4000C22200D33F2108F01F0302EB411118448A
:105A500089B21F2800D31F200844109980B2BBF1DF
:105A6000000F3FD0FD2964D31BF8062034F8161030
:105A700044E0089A32F81680C0EBD822002A00DCF5
:105A800000224FF6FF73C8F3451CACEB010100295F
:105A900003EAC22200DC002108F01F03181A02EBFF
:105AA000411189B20028D7DC0020D5E7089A4FF6CB
:105AB000FF7332F816204FEAD22CC2F345181CFBB4
:105AC00000FC02F01F0218FB01F812FB00F14FEA84
:105AD0005C104FEA981203EAC02000EB421000EB82
